{
	"src/MysteryBox.sol": {
		"MysteryBox": {
			"abi": [
				{
					"inputs": [],
					"stateMutability": "payable",
					"type": "constructor"
				},
				{
					"inputs": [],
					"name": "SEEDVALUE",
					"outputs": [
						{
							"internalType": "uint256",
							"name": "",
							"type": "uint256"
						}
					],
					"stateMutability": "view",
					"type": "function"
				},
				{
					"inputs": [
						{
							"internalType": "string",
							"name": "_name",
							"type": "string"
						},
						{
							"internalType": "uint256",
							"name": "_value",
							"type": "uint256"
						}
					],
					"name": "addReward",
					"outputs": [],
					"stateMutability": "nonpayable",
					"type": "function"
				},
				{
					"inputs": [],
					"name": "boxPrice",
					"outputs": [
						{
							"internalType": "uint256",
							"name": "",
							"type": "uint256"
						}
					],
					"stateMutability": "view",
					"type": "function"
				},
				{
					"inputs": [
						{
							"internalType": "address",
							"name": "",
							"type": "address"
						}
					],
					"name": "boxesOwned",
					"outputs": [
						{
							"internalType": "uint256",
							"name": "",
							"type": "uint256"
						}
					],
					"stateMutability": "view",
					"type": "function"
				},
				{
					"inputs": [],
					"name": "buyBox",
					"outputs": [],
					"stateMutability": "payable",
					"type": "function"
				},
				{
					"inputs": [
						{
							"internalType": "address",
							"name": "_newOwner",
							"type": "address"
						}
					],
					"name": "changeOwner",
					"outputs": [],
					"stateMutability": "nonpayable",
					"type": "function"
				},
				{
					"inputs": [],
					"name": "claimAllRewards",
					"outputs": [],
					"stateMutability": "nonpayable",
					"type": "function"
				},
				{
					"inputs": [
						{
							"internalType": "uint256",
							"name": "_index",
							"type": "uint256"
						}
					],
					"name": "claimSingleReward",
					"outputs": [],
					"stateMutability": "nonpayable",
					"type": "function"
				},
				{
					"inputs": [],
					"name": "getRewardPool",
					"outputs": [
						{
							"components": [
								{
									"internalType": "string",
									"name": "name",
									"type": "string"
								},
								{
									"internalType": "uint256",
									"name": "value",
									"type": "uint256"
								}
							],
							"internalType": "struct MysteryBox.Reward[]",
							"name": "",
							"type": "tuple[]"
						}
					],
					"stateMutability": "view",
					"type": "function"
				},
				{
					"inputs": [],
					"name": "getRewards",
					"outputs": [
						{
							"components": [
								{
									"internalType": "string",
									"name": "name",
									"type": "string"
								},
								{
									"internalType": "uint256",
									"name": "value",
									"type": "uint256"
								}
							],
							"internalType": "struct MysteryBox.Reward[]",
							"name": "",
							"type": "tuple[]"
						}
					],
					"stateMutability": "view",
					"type": "function"
				},
				{
					"inputs": [],
					"name": "openBox",
					"outputs": [],
					"stateMutability": "nonpayable",
					"type": "function"
				},
				{
					"inputs": [],
					"name": "owner",
					"outputs": [
						{
							"internalType": "address",
							"name": "",
							"type": "address"
						}
					],
					"stateMutability": "view",
					"type": "function"
				},
				{
					"inputs": [
						{
							"internalType": "uint256",
							"name": "",
							"type": "uint256"
						}
					],
					"name": "rewardPool",
					"outputs": [
						{
							"internalType": "string",
							"name": "name",
							"type": "string"
						},
						{
							"internalType": "uint256",
							"name": "value",
							"type": "uint256"
						}
					],
					"stateMutability": "view",
					"type": "function"
				},
				{
					"inputs": [
						{
							"internalType": "address",
							"name": "",
							"type": "address"
						},
						{
							"internalType": "uint256",
							"name": "",
							"type": "uint256"
						}
					],
					"name": "rewardsOwned",
					"outputs": [
						{
							"internalType": "string",
							"name": "name",
							"type": "string"
						},
						{
							"internalType": "uint256",
							"name": "value",
							"type": "uint256"
						}
					],
					"stateMutability": "view",
					"type": "function"
				},
				{
					"inputs": [
						{
							"internalType": "uint256",
							"name": "_price",
							"type": "uint256"
						}
					],
					"name": "setBoxPrice",
					"outputs": [],
					"stateMutability": "nonpayable",
					"type": "function"
				},
				{
					"inputs": [
						{
							"internalType": "address",
							"name": "_to",
							"type": "address"
						},
						{
							"internalType": "uint256",
							"name": "_index",
							"type": "uint256"
						}
					],
					"name": "transferReward",
					"outputs": [],
					"stateMutability": "nonpayable",
					"type": "function"
				},
				{
					"inputs": [],
					"name": "withdrawFunds",
					"outputs": [],
					"stateMutability": "nonpayable",
					"type": "function"
				}
			],
			"devdoc": {
				"kind": "dev",
				"methods": {},
				"version": 1
			},
			"evm": {
				"assembly": "    /* \"src/MysteryBox.sol\":57:4190  contract MysteryBox {... */\n  mstore(0x40, 0x80)\n    /* \"src/MysteryBox.sol\":438:448  msg.sender */\n  caller\n    /* \"src/MysteryBox.sol\":430:435  owner */\n  0x00\n  dup1\n    /* \"src/MysteryBox.sol\":430:448  owner = msg.sender */\n  0x0100\n  exp\n  dup2\n  sload\n  dup2\n  0xffffffffffffffffffffffffffffffffffffffff\n  mul\n  not\n  and\n  swap1\n  dup4\n  0xffffffffffffffffffffffffffffffffffffffff\n  and\n  mul\n  or\n  swap1\n  sstore\n  pop\n    /* \"src/MysteryBox.sol\":469:478  0.1 ether */\n  0x016345785d8a0000\n    /* \"src/MysteryBox.sol\":458:466  boxPrice */\n  0x01\n    /* \"src/MysteryBox.sol\":458:478  boxPrice = 0.1 ether */\n  dup2\n  swap1\n  sstore\n  pop\n    /* \"src/MysteryBox.sol\":311:320  0.1 ether */\n  0x016345785d8a0000\n    /* \"src/MysteryBox.sol\":496:505  msg.value */\n  callvalue\n    /* \"src/MysteryBox.sol\":496:518  msg.value >= SEEDVALUE */\n  lt\n  iszero\n    /* \"src/MysteryBox.sol\":488:541  require(msg.value >= SEEDVALUE, \"Incorrect ETH sent\") */\n  tag_3\n  jumpi\n  mload(0x40)\n  0x08c379a000000000000000000000000000000000000000000000000000000000\n  dup2\n  mstore\n  0x04\n  add\n  tag_4\n  swap1\n  tag_5\n  jump\t// in\ntag_4:\n  mload(0x40)\n  dup1\n  swap2\n  sub\n  swap1\n  revert\ntag_3:\n    /* \"src/MysteryBox.sol\":599:609  rewardPool */\n  0x04\n    /* \"src/MysteryBox.sol\":615:645  Reward(\"Gold Coin\", 0.5 ether) */\n  mload(0x40)\n  dup1\n  0x40\n  add\n  0x40\n  mstore\n  dup1\n  mload(0x40)\n  dup1\n  0x40\n  add\n  0x40\n  mstore\n  dup1\n  0x09\n  dup2\n  mstore\n  0x20\n  add\n  0x476f6c6420436f696e0000000000000000000000000000000000000000000000\n  dup2\n  mstore\n  pop\n  dup2\n  mstore\n  0x20\n  add\n    /* \"src/MysteryBox.sol\":635:644  0.5 ether */\n  0x06f05b59d3b20000\n    /* \"src/MysteryBox.sol\":615:645  Reward(\"Gold Coin\", 0.5 ether) */\n  dup2\n  mstore\n  pop\n    /* \"src/MysteryBox.sol\":599:646  rewardPool.push(Reward(\"Gold Coin\", 0.5 ether)) */\n  swap1\n  dup1\n  0x01\n  dup2\n  sload\n  add\n  dup1\n  dup3\n  sstore\n  dup1\n  swap2\n  pop\n  pop\n  0x01\n  swap1\n  sub\n  swap1\n  0x00\n  mstore\n  keccak256(0x00, 0x20)\n  swap1\n  0x02\n  mul\n  add\n  0x00\n  swap1\n  swap2\n  swap1\n  swap2\n  swap1\n  swap2\n  pop\n  0x00\n  dup3\n  add\n  mload\n  dup2\n  0x00\n  add\n  swap1\n  dup2\n  tag_7\n  swap2\n  swap1\n  tag_8\n  jump\t// in\ntag_7:\n  pop\n  0x20\n  dup3\n  add\n  mload\n  dup2\n  0x01\n  add\n  sstore\n  pop\n  pop\n    /* \"src/MysteryBox.sol\":656:666  rewardPool */\n  0x04\n    /* \"src/MysteryBox.sol\":672:705  Reward(\"Silver Coin\", 0.25 ether) */\n  mload(0x40)\n  dup1\n  0x40\n  add\n  0x40\n  mstore\n  dup1\n  mload(0x40)\n  dup1\n  0x40\n  add\n  0x40\n  mstore\n  dup1\n  0x0b\n  dup2\n  mstore\n  0x20\n  add\n  0x53696c76657220436f696e000000000000000000000000000000000000000000\n  dup2\n  mstore\n  pop\n  dup2\n  mstore\n  0x20\n  add\n    /* \"src/MysteryBox.sol\":694:704  0.25 ether */\n  0x03782dace9d90000\n    /* \"src/MysteryBox.sol\":672:705  Reward(\"Silver Coin\", 0.25 ether) */\n  dup2\n  mstore\n  pop\n    /* \"src/MysteryBox.sol\":656:706  rewardPool.push(Reward(\"Silver Coin\", 0.25 ether)) */\n  swap1\n  dup1\n  0x01\n  dup2\n  sload\n  add\n  dup1\n  dup3\n  sstore\n  dup1\n  swap2\n  pop\n  pop\n  0x01\n  swap1\n  sub\n  swap1\n  0x00\n  mstore\n  keccak256(0x00, 0x20)\n  swap1\n  0x02\n  mul\n  add\n  0x00\n  swap1\n  swap2\n  swap1\n  swap2\n  swap1\n  swap2\n  pop\n  0x00\n  dup3\n  add\n  mload\n  dup2\n  0x00\n  add\n  swap1\n  dup2\n  tag_10\n  swap2\n  swap1\n  tag_8\n  jump\t// in\ntag_10:\n  pop\n  0x20\n  dup3\n  add\n  mload\n  dup2\n  0x01\n  add\n  sstore\n  pop\n  pop\n    /* \"src/MysteryBox.sol\":716:726  rewardPool */\n  0x04\n    /* \"src/MysteryBox.sol\":732:764  Reward(\"Bronze Coin\", 0.1 ether) */\n  mload(0x40)\n  dup1\n  0x40\n  add\n  0x40\n  mstore\n  dup1\n  mload(0x40)\n  dup1\n  0x40\n  add\n  0x40\n  mstore\n  dup1\n  0x0b\n  dup2\n  mstore\n  0x20\n  add\n  0x42726f6e7a6520436f696e000000000000000000000000000000000000000000\n  dup2\n  mstore\n  pop\n  dup2\n  mstore\n  0x20\n  add\n    /* \"src/MysteryBox.sol\":754:763  0.1 ether */\n  0x016345785d8a0000\n    /* \"src/MysteryBox.sol\":732:764  Reward(\"Bronze Coin\", 0.1 ether) */\n  dup2\n  mstore\n  pop\n    /* \"src/MysteryBox.sol\":716:765  rewardPool.push(Reward(\"Bronze Coin\", 0.1 ether)) */\n  swap1\n  dup1\n  0x01\n  dup2\n  sload\n  add\n  dup1\n  dup3\n  sstore\n  dup1\n  swap2\n  pop\n  pop\n  0x01\n  swap1\n  sub\n  swap1\n  0x00\n  mstore\n  keccak256(0x00, 0x20)\n  swap1\n  0x02\n  mul\n  add\n  0x00\n  swap1\n  swap2\n  swap1\n  swap2\n  swap1\n  swap2\n  pop\n  0x00\n  dup3\n  add\n  mload\n  dup2\n  0x00\n  add\n  swap1\n  dup2\n  tag_12\n  swap2\n  swap1\n  tag_8\n  jump\t// in\ntag_12:\n  pop\n  0x20\n  dup3\n  add\n  mload\n  dup2\n  0x01\n  add\n  sstore\n  pop\n  pop\n    /* \"src/MysteryBox.sol\":775:785  rewardPool */\n  0x04\n    /* \"src/MysteryBox.sol\":791:814  Reward(\"Coal\", 0 ether) */\n  mload(0x40)\n  dup1\n  0x40\n  add\n  0x40\n  mstore\n  dup1\n  mload(0x40)\n  dup1\n  0x40\n  add\n  0x40\n  mstore\n  dup1\n  0x04\n  dup2\n  mstore\n  0x20\n  add\n  0x436f616c00000000000000000000000000000000000000000000000000000000\n  dup2\n  mstore\n  pop\n  dup2\n  mstore\n  0x20\n  add\n    /* \"src/MysteryBox.sol\":806:813  0 ether */\n  0x00\n    /* \"src/MysteryBox.sol\":791:814  Reward(\"Coal\", 0 ether) */\n  dup2\n  mstore\n  pop\n    /* \"src/MysteryBox.sol\":775:815  rewardPool.push(Reward(\"Coal\", 0 ether)) */\n  swap1\n  dup1\n  0x01\n  dup2\n  sload\n  add\n  dup1\n  dup3\n  sstore\n  dup1\n  swap2\n  pop\n  pop\n  0x01\n  swap1\n  sub\n  swap1\n  0x00\n  mstore\n  keccak256(0x00, 0x20)\n  swap1\n  0x02\n  mul\n  add\n  0x00\n  swap1\n  swap2\n  swap1\n  swap2\n  swap1\n  swap2\n  pop\n  0x00\n  dup3\n  add\n  mload\n  dup2\n  0x00\n  add\n  swap1\n  dup2\n  tag_14\n  swap2\n  swap1\n  tag_8\n  jump\t// in\ntag_14:\n  pop\n  0x20\n  dup3\n  add\n  mload\n  dup2\n  0x01\n  add\n  sstore\n  pop\n  pop\n    /* \"src/MysteryBox.sol\":57:4190  contract MysteryBox {... */\n  jump(tag_15)\n    /* \"#utility.yul\":7:176   */\ntag_16:\n    /* \"#utility.yul\":91:102   */\n  0x00\n    /* \"#utility.yul\":125:131   */\n  dup3\n    /* \"#utility.yul\":120:123   */\n  dup3\n    /* \"#utility.yul\":113:132   */\n  mstore\n    /* \"#utility.yul\":165:169   */\n  0x20\n    /* \"#utility.yul\":160:163   */\n  dup3\n    /* \"#utility.yul\":156:170   */\n  add\n    /* \"#utility.yul\":141:170   */\n  swap1\n  pop\n    /* \"#utility.yul\":7:176   */\n  swap3\n  swap2\n  pop\n  pop\n  jump\t// out\n    /* \"#utility.yul\":182:350   */\ntag_17:\n    /* \"#utility.yul\":322:342   */\n  0x496e636f7272656374204554482073656e740000000000000000000000000000\n    /* \"#utility.yul\":318:319   */\n  0x00\n    /* \"#utility.yul\":310:316   */\n  dup3\n    /* \"#utility.yul\":306:320   */\n  add\n    /* \"#utility.yul\":299:343   */\n  mstore\n    /* \"#utility.yul\":182:350   */\n  pop\n  jump\t// out\n    /* \"#utility.yul\":356:722   */\ntag_18:\n    /* \"#utility.yul\":498:501   */\n  0x00\n    /* \"#utility.yul\":519:586   */\n  tag_43\n    /* \"#utility.yul\":583:585   */\n  0x12\n    /* \"#utility.yul\":578:581   */\n  dup4\n    /* \"#utility.yul\":519:586   */\n  tag_16\n  jump\t// in\ntag_43:\n    /* \"#utility.yul\":512:586   */\n  swap2\n  pop\n    /* \"#utility.yul\":595:688   */\n  tag_44\n    /* \"#utility.yul\":684:687   */\n  dup3\n    /* \"#utility.yul\":595:688   */\n  tag_17\n  jump\t// in\ntag_44:\n    /* \"#utility.yul\":713:715   */\n  0x20\n    /* \"#utility.yul\":708:711   */\n  dup3\n    /* \"#utility.yul\":704:716   */\n  add\n    /* \"#utility.yul\":697:716   */\n  swap1\n  pop\n    /* \"#utility.yul\":356:722   */\n  swap2\n  swap1\n  pop\n  jump\t// out\n    /* \"#utility.yul\":728:1147   */\ntag_5:\n    /* \"#utility.yul\":894:898   */\n  0x00\n    /* \"#utility.yul\":932:934   */\n  0x20\n    /* \"#utility.yul\":921:930   */\n  dup3\n    /* \"#utility.yul\":917:935   */\n  add\n    /* \"#utility.yul\":909:935   */\n  swap1\n  pop\n    /* \"#utility.yul\":981:990   */\n  dup2\n    /* \"#utility.yul\":975:979   */\n  dup2\n    /* \"#utility.yul\":971:991   */\n  sub\n    /* \"#utility.yul\":967:968   */\n  0x00\n    /* \"#utility.yul\":956:965   */\n  dup4\n    /* \"#utility.yul\":952:969   */\n  add\n    /* \"#utility.yul\":945:992   */\n  mstore\n    /* \"#utility.yul\":1009:1140   */\n  tag_46\n    /* \"#utility.yul\":1135:1139   */\n  dup2\n    /* \"#utility.yul\":1009:1140   */\n  tag_18\n  jump\t// in\ntag_46:\n    /* \"#utility.yul\":1001:1140   */\n  swap1\n  pop\n    /* \"#utility.yul\":728:1147   */\n  swap2\n  swap1\n  pop\n  jump\t// out\n    /* \"#utility.yul\":1153:1252   */\ntag_19:\n    /* \"#utility.yul\":1205:1211   */\n  0x00\n    /* \"#utility.yul\":1239:1244   */\n  dup2\n    /* \"#utility.yul\":1233:1245   */\n  mload\n    /* \"#utility.yul\":1223:1245   */\n  swap1\n  pop\n    /* \"#utility.yul\":1153:1252   */\n  swap2\n  swap1\n  pop\n  jump\t// out\n    /* \"#utility.yul\":1258:1438   */\ntag_20:\n    /* \"#utility.yul\":1306:1383   */\n  0x4e487b7100000000000000000000000000000000000000000000000000000000\n    /* \"#utility.yul\":1303:1304   */\n  0x00\n    /* \"#utility.yul\":1296:1384   */\n  mstore\n    /* \"#utility.yul\":1403:1407   */\n  0x41\n    /* \"#utility.yul\":1400:1401   */\n  0x04\n    /* \"#utility.yul\":1393:1408   */\n  mstore\n    /* \"#utility.yul\":1427:1431   */\n  0x24\n    /* \"#utility.yul\":1424:1425   */\n  0x00\n    /* \"#utility.yul\":1417:1432   */\n  revert\n    /* \"#utility.yul\":1444:1624   */\ntag_21:\n    /* \"#utility.yul\":1492:1569   */\n  0x4e487b7100000000000000000000000000000000000000000000000000000000\n    /* \"#utility.yul\":1489:1490   */\n  0x00\n    /* \"#utility.yul\":1482:1570   */\n  mstore\n    /* \"#utility.yul\":1589:1593   */\n  0x22\n    /* \"#utility.yul\":1586:1587   */\n  0x04\n    /* \"#utility.yul\":1579:1594   */\n  mstore\n    /* \"#utility.yul\":1613:1617   */\n  0x24\n    /* \"#utility.yul\":1610:1611   */\n  0x00\n    /* \"#utility.yul\":1603:1618   */\n  revert\n    /* \"#utility.yul\":1630:1950   */\ntag_22:\n    /* \"#utility.yul\":1674:1680   */\n  0x00\n    /* \"#utility.yul\":1711:1712   */\n  0x02\n    /* \"#utility.yul\":1705:1709   */\n  dup3\n    /* \"#utility.yul\":1701:1713   */\n  div\n    /* \"#utility.yul\":1691:1713   */\n  swap1\n  pop\n    /* \"#utility.yul\":1758:1759   */\n  0x01\n    /* \"#utility.yul\":1752:1756   */\n  dup3\n    /* \"#utility.yul\":1748:1760   */\n  and\n    /* \"#utility.yul\":1779:1797   */\n  dup1\n    /* \"#utility.yul\":1769:1850   */\n  tag_51\n  jumpi\n    /* \"#utility.yul\":1835:1839   */\n  0x7f\n    /* \"#utility.yul\":1827:1833   */\n  dup3\n    /* \"#utility.yul\":1823:1840   */\n  and\n    /* \"#utility.yul\":1813:1840   */\n  swap2\n  pop\n    /* \"#utility.yul\":1769:1850   */\ntag_51:\n    /* \"#utility.yul\":1897:1899   */\n  0x20\n    /* \"#utility.yul\":1889:1895   */\n  dup3\n    /* \"#utility.yul\":1886:1900   */\n  lt\n    /* \"#utility.yul\":1866:1884   */\n  dup2\n    /* \"#utility.yul\":1863:1901   */\n  sub\n    /* \"#utility.yul\":1860:1944   */\n  tag_52\n  jumpi\n    /* \"#utility.yul\":1916:1934   */\n  tag_53\n  tag_21\n  jump\t// in\ntag_53:\n    /* \"#utility.yul\":1860:1944   */\ntag_52:\n    /* \"#utility.yul\":1681:1950   */\n  pop\n    /* \"#utility.yul\":1630:1950   */\n  swap2\n  swap1\n  pop\n  jump\t// out\n    /* \"#utility.yul\":1956:2097   */\ntag_23:\n    /* \"#utility.yul\":2005:2009   */\n  0x00\n    /* \"#utility.yul\":2028:2031   */\n  dup2\n    /* \"#utility.yul\":2020:2031   */\n  swap1\n  pop\n    /* \"#utility.yul\":2051:2054   */\n  dup2\n    /* \"#utility.yul\":2048:2049   */\n  0x00\n    /* \"#utility.yul\":2041:2055   */\n  mstore\n    /* \"#utility.yul\":2085:2089   */\n  0x20\n    /* \"#utility.yul\":2082:2083   */\n  0x00\n    /* \"#utility.yul\":2072:2090   */\n  keccak256\n    /* \"#utility.yul\":2064:2090   */\n  swap1\n  pop\n    /* \"#utility.yul\":1956:2097   */\n  swap2\n  swap1\n  pop\n  jump\t// out\n    /* \"#utility.yul\":2103:2196   */\ntag_24:\n    /* \"#utility.yul\":2140:2146   */\n  0x00\n    /* \"#utility.yul\":2187:2189   */\n  0x20\n    /* \"#utility.yul\":2182:2184   */\n  0x1f\n    /* \"#utility.yul\":2175:2180   */\n  dup4\n    /* \"#utility.yul\":2171:2185   */\n  add\n    /* \"#utility.yul\":2167:2190   */\n  div\n    /* \"#utility.yul\":2157:2190   */\n  swap1\n  pop\n    /* \"#utility.yul\":2103:2196   */\n  swap2\n  swap1\n  pop\n  jump\t// out\n    /* \"#utility.yul\":2202:2309   */\ntag_25:\n    /* \"#utility.yul\":2246:2254   */\n  0x00\n    /* \"#utility.yul\":2296:2301   */\n  dup3\n    /* \"#utility.yul\":2290:2294   */\n  dup3\n    /* \"#utility.yul\":2286:2302   */\n  shl\n    /* \"#utility.yul\":2265:2302   */\n  swap1\n  pop\n    /* \"#utility.yul\":2202:2309   */\n  swap3\n  swap2\n  pop\n  pop\n  jump\t// out\n    /* \"#utility.yul\":2315:2708   */\ntag_26:\n    /* \"#utility.yul\":2384:2390   */\n  0x00\n    /* \"#utility.yul\":2434:2435   */\n  0x08\n    /* \"#utility.yul\":2422:2432   */\n  dup4\n    /* \"#utility.yul\":2418:2436   */\n  mul\n    /* \"#utility.yul\":2457:2554   */\n  tag_58\n    /* \"#utility.yul\":2487:2553   */\n  0xffffffffffffffffffffffffffffffffffffffffffffffffffffffffffffffff\n    /* \"#utility.yul\":2476:2485   */\n  dup3\n    /* \"#utility.yul\":2457:2554   */\n  tag_25\n  jump\t// in\ntag_58:\n    /* \"#utility.yul\":2575:2614   */\n  tag_59\n    /* \"#utility.yul\":2605:2613   */\n  dup7\n    /* \"#utility.yul\":2594:2603   */\n  dup4\n    /* \"#utility.yul\":2575:2614   */\n  tag_25\n  jump\t// in\ntag_59:\n    /* \"#utility.yul\":2563:2614   */\n  swap6\n  pop\n    /* \"#utility.yul\":2647:2651   */\n  dup1\n    /* \"#utility.yul\":2643:2652   */\n  not\n    /* \"#utility.yul\":2636:2641   */\n  dup5\n    /* \"#utility.yul\":2632:2653   */\n  and\n    /* \"#utility.yul\":2623:2653   */\n  swap4\n  pop\n    /* \"#utility.yul\":2696:2700   */\n  dup1\n    /* \"#utility.yul\":2686:2694   */\n  dup7\n    /* \"#utility.yul\":2682:2701   */\n  and\n    /* \"#utility.yul\":2675:2680   */\n  dup5\n    /* \"#utility.yul\":2672:2702   */\n  or\n    /* \"#utility.yul\":2662:2702   */\n  swap3\n  pop\n    /* \"#utility.yul\":2391:2708   */\n  pop\n  pop\n    /* \"#utility.yul\":2315:2708   */\n  swap4\n  swap3\n  pop\n  pop\n  pop\n  jump\t// out\n    /* \"#utility.yul\":2714:2791   */\ntag_27:\n    /* \"#utility.yul\":2751:2758   */\n  0x00\n    /* \"#utility.yul\":2780:2785   */\n  dup2\n    /* \"#utility.yul\":2769:2785   */\n  swap1\n  pop\n    /* \"#utility.yul\":2714:2791   */\n  swap2\n  swap1\n  pop\n  jump\t// out\n    /* \"#utility.yul\":2797:2857   */\ntag_28:\n    /* \"#utility.yul\":2825:2828   */\n  0x00\n    /* \"#utility.yul\":2846:2851   */\n  dup2\n    /* \"#utility.yul\":2839:2851   */\n  swap1\n  pop\n    /* \"#utility.yul\":2797:2857   */\n  swap2\n  swap1\n  pop\n  jump\t// out\n    /* \"#utility.yul\":2863:3005   */\ntag_29:\n    /* \"#utility.yul\":2913:2922   */\n  0x00\n    /* \"#utility.yul\":2946:2999   */\n  tag_63\n    /* \"#utility.yul\":2964:2998   */\n  tag_64\n    /* \"#utility.yul\":2973:2997   */\n  tag_65\n    /* \"#utility.yul\":2991:2996   */\n  dup5\n    /* \"#utility.yul\":2973:2997   */\n  tag_27\n  jump\t// in\ntag_65:\n    /* \"#utility.yul\":2964:2998   */\n  tag_28\n  jump\t// in\ntag_64:\n    /* \"#utility.yul\":2946:2999   */\n  tag_27\n  jump\t// in\ntag_63:\n    /* \"#utility.yul\":2933:2999   */\n  swap1\n  pop\n    /* \"#utility.yul\":2863:3005   */\n  swap2\n  swap1\n  pop\n  jump\t// out\n    /* \"#utility.yul\":3011:3086   */\ntag_30:\n    /* \"#utility.yul\":3054:3057   */\n  0x00\n    /* \"#utility.yul\":3075:3080   */\n  dup2\n    /* \"#utility.yul\":3068:3080   */\n  swap1\n  pop\n    /* \"#utility.yul\":3011:3086   */\n  swap2\n  swap1\n  pop\n  jump\t// out\n    /* \"#utility.yul\":3092:3361   */\ntag_31:\n    /* \"#utility.yul\":3202:3241   */\n  tag_68\n    /* \"#utility.yul\":3233:3240   */\n  dup4\n    /* \"#utility.yul\":3202:3241   */\n  tag_29\n  jump\t// in\ntag_68:\n    /* \"#utility.yul\":3263:3354   */\n  tag_69\n    /* \"#utility.yul\":3312:3353   */\n  tag_70\n    /* \"#utility.yul\":3336:3352   */\n  dup3\n    /* \"#utility.yul\":3312:3353   */\n  tag_30\n  jump\t// in\ntag_70:\n    /* \"#utility.yul\":3304:3310   */\n  dup5\n    /* \"#utility.yul\":3297:3301   */\n  dup5\n    /* \"#utility.yul\":3291:3302   */\n  sload\n    /* \"#utility.yul\":3263:3354   */\n  tag_26\n  jump\t// in\ntag_69:\n    /* \"#utility.yul\":3257:3261   */\n  dup3\n    /* \"#utility.yul\":3250:3355   */\n  sstore\n    /* \"#utility.yul\":3168:3361   */\n  pop\n    /* \"#utility.yul\":3092:3361   */\n  pop\n  pop\n  pop\n  jump\t// out\n    /* \"#utility.yul\":3367:3440   */\ntag_32:\n    /* \"#utility.yul\":3412:3415   */\n  0x00\n    /* \"#utility.yul\":3367:3440   */\n  swap1\n  jump\t// out\n    /* \"#utility.yul\":3446:3635   */\ntag_33:\n    /* \"#utility.yul\":3523:3555   */\n  tag_73\n  tag_32\n  jump\t// in\ntag_73:\n    /* \"#utility.yul\":3564:3629   */\n  tag_74\n    /* \"#utility.yul\":3622:3628   */\n  dup2\n    /* \"#utility.yul\":3614:3620   */\n  dup5\n    /* \"#utility.yul\":3608:3612   */\n  dup5\n    /* \"#utility.yul\":3564:3629   */\n  tag_31\n  jump\t// in\ntag_74:\n    /* \"#utility.yul\":3499:3635   */\n  pop\n    /* \"#utility.yul\":3446:3635   */\n  pop\n  pop\n  jump\t// out\n    /* \"#utility.yul\":3641:3827   */\ntag_34:\n    /* \"#utility.yul\":3701:3821   */\ntag_76:\n    /* \"#utility.yul\":3718:3721   */\n  dup2\n    /* \"#utility.yul\":3711:3716   */\n  dup2\n    /* \"#utility.yul\":3708:3722   */\n  lt\n    /* \"#utility.yul\":3701:3821   */\n  iszero\n  tag_78\n  jumpi\n    /* \"#utility.yul\":3772:3811   */\n  tag_79\n    /* \"#utility.yul\":3809:3810   */\n  0x00\n    /* \"#utility.yul\":3802:3807   */\n  dup3\n    /* \"#utility.yul\":3772:3811   */\n  tag_33\n  jump\t// in\ntag_79:\n    /* \"#utility.yul\":3745:3746   */\n  0x01\n    /* \"#utility.yul\":3738:3743   */\n  dup2\n    /* \"#utility.yul\":3734:3747   */\n  add\n    /* \"#utility.yul\":3725:3747   */\n  swap1\n  pop\n    /* \"#utility.yul\":3701:3821   */\n  jump(tag_76)\ntag_78:\n    /* \"#utility.yul\":3641:3827   */\n  pop\n  pop\n  jump\t// out\n    /* \"#utility.yul\":3833:4376   */\ntag_35:\n    /* \"#utility.yul\":3934:3936   */\n  0x1f\n    /* \"#utility.yul\":3929:3932   */\n  dup3\n    /* \"#utility.yul\":3926:3937   */\n  gt\n    /* \"#utility.yul\":3923:4369   */\n  iszero\n  tag_81\n  jumpi\n    /* \"#utility.yul\":3968:4006   */\n  tag_82\n    /* \"#utility.yul\":4000:4005   */\n  dup2\n    /* \"#utility.yul\":3968:4006   */\n  tag_23\n  jump\t// in\ntag_82:\n    /* \"#utility.yul\":4052:4081   */\n  tag_83\n    /* \"#utility.yul\":4070:4080   */\n  dup5\n    /* \"#utility.yul\":4052:4081   */\n  tag_24\n  jump\t// in\ntag_83:\n    /* \"#utility.yul\":4042:4050   */\n  dup2\n    /* \"#utility.yul\":4038:4082   */\n  add\n    /* \"#utility.yul\":4235:4237   */\n  0x20\n    /* \"#utility.yul\":4223:4233   */\n  dup6\n    /* \"#utility.yul\":4220:4238   */\n  lt\n    /* \"#utility.yul\":4217:4266   */\n  iszero\n  tag_84\n  jumpi\n    /* \"#utility.yul\":4256:4264   */\n  dup2\n    /* \"#utility.yul\":4241:4264   */\n  swap1\n  pop\n    /* \"#utility.yul\":4217:4266   */\ntag_84:\n    /* \"#utility.yul\":4279:4359   */\n  tag_85\n    /* \"#utility.yul\":4335:4357   */\n  tag_86\n    /* \"#utility.yul\":4353:4356   */\n  dup6\n    /* \"#utility.yul\":4335:4357   */\n  tag_24\n  jump\t// in\ntag_86:\n    /* \"#utility.yul\":4325:4333   */\n  dup4\n    /* \"#utility.yul\":4321:4358   */\n  add\n    /* \"#utility.yul\":4308:4319   */\n  dup3\n    /* \"#utility.yul\":4279:4359   */\n  tag_34\n  jump\t// in\ntag_85:\n    /* \"#utility.yul\":3938:4369   */\n  pop\n  pop\n    /* \"#utility.yul\":3923:4369   */\ntag_81:\n    /* \"#utility.yul\":3833:4376   */\n  pop\n  pop\n  pop\n  jump\t// out\n    /* \"#utility.yul\":4382:4499   */\ntag_36:\n    /* \"#utility.yul\":4436:4444   */\n  0x00\n    /* \"#utility.yul\":4486:4491   */\n  dup3\n    /* \"#utility.yul\":4480:4484   */\n  dup3\n    /* \"#utility.yul\":4476:4492   */\n  shr\n    /* \"#utility.yul\":4455:4492   */\n  swap1\n  pop\n    /* \"#utility.yul\":4382:4499   */\n  swap3\n  swap2\n  pop\n  pop\n  jump\t// out\n    /* \"#utility.yul\":4505:4674   */\ntag_37:\n    /* \"#utility.yul\":4549:4555   */\n  0x00\n    /* \"#utility.yul\":4582:4633   */\n  tag_89\n    /* \"#utility.yul\":4630:4631   */\n  0x00\n    /* \"#utility.yul\":4626:4632   */\n  not\n    /* \"#utility.yul\":4618:4623   */\n  dup5\n    /* \"#utility.yul\":4615:4616   */\n  0x08\n    /* \"#utility.yul\":4611:4624   */\n  mul\n    /* \"#utility.yul\":4582:4633   */\n  tag_36\n  jump\t// in\ntag_89:\n    /* \"#utility.yul\":4578:4634   */\n  not\n    /* \"#utility.yul\":4663:4667   */\n  dup1\n    /* \"#utility.yul\":4657:4661   */\n  dup4\n    /* \"#utility.yul\":4653:4668   */\n  and\n    /* \"#utility.yul\":4643:4668   */\n  swap2\n  pop\n    /* \"#utility.yul\":4556:4674   */\n  pop\n    /* \"#utility.yul\":4505:4674   */\n  swap3\n  swap2\n  pop\n  pop\n  jump\t// out\n    /* \"#utility.yul\":4679:4974   */\ntag_38:\n    /* \"#utility.yul\":4755:4759   */\n  0x00\n    /* \"#utility.yul\":4901:4930   */\n  tag_91\n    /* \"#utility.yul\":4926:4929   */\n  dup4\n    /* \"#utility.yul\":4920:4924   */\n  dup4\n    /* \"#utility.yul\":4901:4930   */\n  tag_37\n  jump\t// in\ntag_91:\n    /* \"#utility.yul\":4893:4930   */\n  swap2\n  pop\n    /* \"#utility.yul\":4963:4966   */\n  dup3\n    /* \"#utility.yul\":4960:4961   */\n  0x02\n    /* \"#utility.yul\":4956:4967   */\n  mul\n    /* \"#utility.yul\":4950:4954   */\n  dup3\n    /* \"#utility.yul\":4947:4968   */\n  or\n    /* \"#utility.yul\":4939:4968   */\n  swap1\n  pop\n    /* \"#utility.yul\":4679:4974   */\n  swap3\n  swap2\n  pop\n  pop\n  jump\t// out\n    /* \"#utility.yul\":4979:6374   */\ntag_8:\n    /* \"#utility.yul\":5096:5133   */\n  tag_93\n    /* \"#utility.yul\":5129:5132   */\n  dup3\n    /* \"#utility.yul\":5096:5133   */\n  tag_19\n  jump\t// in\ntag_93:\n    /* \"#utility.yul\":5198:5216   */\n  0xffffffffffffffff\n    /* \"#utility.yul\":5190:5196   */\n  dup2\n    /* \"#utility.yul\":5187:5217   */\n  gt\n    /* \"#utility.yul\":5184:5240   */\n  iszero\n  tag_94\n  jumpi\n    /* \"#utility.yul\":5220:5238   */\n  tag_95\n  tag_20\n  jump\t// in\ntag_95:\n    /* \"#utility.yul\":5184:5240   */\ntag_94:\n    /* \"#utility.yul\":5264:5302   */\n  tag_96\n    /* \"#utility.yul\":5296:5300   */\n  dup3\n    /* \"#utility.yul\":5290:5301   */\n  sload\n    /* \"#utility.yul\":5264:5302   */\n  tag_22\n  jump\t// in\ntag_96:\n    /* \"#utility.yul\":5349:5416   */\n  tag_97\n    /* \"#utility.yul\":5409:5415   */\n  dup3\n    /* \"#utility.yul\":5401:5407   */\n  dup3\n    /* \"#utility.yul\":5395:5399   */\n  dup6\n    /* \"#utility.yul\":5349:5416   */\n  tag_35\n  jump\t// in\ntag_97:\n    /* \"#utility.yul\":5443:5444   */\n  0x00\n    /* \"#utility.yul\":5467:5471   */\n  0x20\n    /* \"#utility.yul\":5454:5471   */\n  swap1\n  pop\n    /* \"#utility.yul\":5499:5501   */\n  0x1f\n    /* \"#utility.yul\":5491:5497   */\n  dup4\n    /* \"#utility.yul\":5488:5502   */\n  gt\n    /* \"#utility.yul\":5516:5517   */\n  0x01\n    /* \"#utility.yul\":5511:6129   */\n  dup2\n  eq\n  tag_99\n  jumpi\n    /* \"#utility.yul\":6173:6174   */\n  0x00\n    /* \"#utility.yul\":6190:6196   */\n  dup5\n    /* \"#utility.yul\":6187:6264   */\n  iszero\n  tag_100\n  jumpi\n    /* \"#utility.yul\":6239:6248   */\n  dup3\n    /* \"#utility.yul\":6234:6237   */\n  dup8\n    /* \"#utility.yul\":6230:6249   */\n  add\n    /* \"#utility.yul\":6224:6250   */\n  mload\n    /* \"#utility.yul\":6215:6250   */\n  swap1\n  pop\n    /* \"#utility.yul\":6187:6264   */\ntag_100:\n    /* \"#utility.yul\":6290:6357   */\n  tag_101\n    /* \"#utility.yul\":6350:6356   */\n  dup6\n    /* \"#utility.yul\":6343:6348   */\n  dup3\n    /* \"#utility.yul\":6290:6357   */\n  tag_38\n  jump\t// in\ntag_101:\n    /* \"#utility.yul\":6284:6288   */\n  dup7\n    /* \"#utility.yul\":6277:6358   */\n  sstore\n    /* \"#utility.yul\":6146:6368   */\n  pop\n    /* \"#utility.yul\":5481:6368   */\n  jump(tag_98)\n    /* \"#utility.yul\":5511:6129   */\ntag_99:\n    /* \"#utility.yul\":5563:5567   */\n  0x1f\n    /* \"#utility.yul\":5559:5568   */\n  not\n    /* \"#utility.yul\":5551:5557   */\n  dup5\n    /* \"#utility.yul\":5547:5569   */\n  and\n    /* \"#utility.yul\":5597:5634   */\n  tag_102\n    /* \"#utility.yul\":5629:5633   */\n  dup7\n    /* \"#utility.yul\":5597:5634   */\n  tag_23\n  jump\t// in\ntag_102:\n    /* \"#utility.yul\":5656:5657   */\n  0x00\n    /* \"#utility.yul\":5670:5878   */\ntag_103:\n    /* \"#utility.yul\":5684:5691   */\n  dup3\n    /* \"#utility.yul\":5681:5682   */\n  dup2\n    /* \"#utility.yul\":5678:5692   */\n  lt\n    /* \"#utility.yul\":5670:5878   */\n  iszero\n  tag_105\n  jumpi\n    /* \"#utility.yul\":5763:5772   */\n  dup5\n    /* \"#utility.yul\":5758:5761   */\n  dup10\n    /* \"#utility.yul\":5754:5773   */\n  add\n    /* \"#utility.yul\":5748:5774   */\n  mload\n    /* \"#utility.yul\":5740:5746   */\n  dup3\n    /* \"#utility.yul\":5733:5775   */\n  sstore\n    /* \"#utility.yul\":5814:5815   */\n  0x01\n    /* \"#utility.yul\":5806:5812   */\n  dup3\n    /* \"#utility.yul\":5802:5816   */\n  add\n    /* \"#utility.yul\":5792:5816   */\n  swap2\n  pop\n    /* \"#utility.yul\":5861:5863   */\n  0x20\n    /* \"#utility.yul\":5850:5859   */\n  dup6\n    /* \"#utility.yul\":5846:5864   */\n  add\n    /* \"#utility.yul\":5833:5864   */\n  swap5\n  pop\n    /* \"#utility.yul\":5707:5711   */\n  0x20\n    /* \"#utility.yul\":5704:5705   */\n  dup2\n    /* \"#utility.yul\":5700:5712   */\n  add\n    /* \"#utility.yul\":5695:5712   */\n  swap1\n  pop\n    /* \"#utility.yul\":5670:5878   */\n  jump(tag_103)\ntag_105:\n    /* \"#utility.yul\":5906:5912   */\n  dup7\n    /* \"#utility.yul\":5897:5904   */\n  dup4\n    /* \"#utility.yul\":5894:5913   */\n  lt\n    /* \"#utility.yul\":5891:6070   */\n  iszero\n  tag_106\n  jumpi\n    /* \"#utility.yul\":5964:5973   */\n  dup5\n    /* \"#utility.yul\":5959:5962   */\n  dup10\n    /* \"#utility.yul\":5955:5974   */\n  add\n    /* \"#utility.yul\":5949:5975   */\n  mload\n    /* \"#utility.yul\":6007:6055   */\n  tag_107\n    /* \"#utility.yul\":6049:6053   */\n  0x1f\n    /* \"#utility.yul\":6041:6047   */\n  dup10\n    /* \"#utility.yul\":6037:6054   */\n  and\n    /* \"#utility.yul\":6026:6035   */\n  dup3\n    /* \"#utility.yul\":6007:6055   */\n  tag_37\n  jump\t// in\ntag_107:\n    /* \"#utility.yul\":5999:6005   */\n  dup4\n    /* \"#utility.yul\":5992:6056   */\n  sstore\n    /* \"#utility.yul\":5914:6070   */\n  pop\n    /* \"#utility.yul\":5891:6070   */\ntag_106:\n    /* \"#utility.yul\":6116:6117   */\n  0x01\n    /* \"#utility.yul\":6112:6113   */\n  0x02\n    /* \"#utility.yul\":6104:6110   */\n  dup9\n    /* \"#utility.yul\":6100:6114   */\n  mul\n    /* \"#utility.yul\":6096:6118   */\n  add\n    /* \"#utility.yul\":6090:6094   */\n  dup9\n    /* \"#utility.yul\":6083:6119   */\n  sstore\n    /* \"#utility.yul\":5518:6129   */\n  pop\n  pop\n  pop\n    /* \"#utility.yul\":5481:6368   */\ntag_98:\n  pop\n    /* \"#utility.yul\":5071:6374   */\n  pop\n  pop\n  pop\n    /* \"#utility.yul\":4979:6374   */\n  pop\n  pop\n  jump\t// out\n    /* \"src/MysteryBox.sol\":57:4190  contract MysteryBox {... */\ntag_15:\n  dataSize(sub_0)\n  dup1\n  dataOffset(sub_0)\n  0x00\n  codecopy\n  0x00\n  return\nstop\n\nsub_0: assembly {\n        /* \"src/MysteryBox.sol\":57:4190  contract MysteryBox {... */\n      mstore(0x40, 0x80)\n      jumpi(tag_1, lt(calldatasize, 0x04))\n      shr(0xe0, calldataload(0x00))\n      dup1\n      0x7061eb13\n      gt\n      tag_19\n      jumpi\n      dup1\n      0xa6f9dae1\n      gt\n      tag_20\n      jumpi\n      dup1\n      0xa6f9dae1\n      eq\n      tag_14\n      jumpi\n      dup1\n      0xc2e952c7\n      eq\n      tag_15\n      jumpi\n      dup1\n      0xcdd35d4c\n      eq\n      tag_16\n      jumpi\n      dup1\n      0xf26d9f2f\n      eq\n      tag_17\n      jumpi\n      dup1\n      0xf7dbea3e\n      eq\n      tag_18\n      jumpi\n      jump(tag_1)\n    tag_20:\n      dup1\n      0x7061eb13\n      eq\n      tag_10\n      jumpi\n      dup1\n      0x7706c4ba\n      eq\n      tag_11\n      jumpi\n      dup1\n      0x8da5cb5b\n      eq\n      tag_12\n      jumpi\n      dup1\n      0xa6482858\n      eq\n      tag_13\n      jumpi\n      jump(tag_1)\n    tag_19:\n      dup1\n      0x1b8b13a7\n      gt\n      tag_21\n      jumpi\n      dup1\n      0x1b8b13a7\n      eq\n      tag_6\n      jumpi\n      dup1\n      0x24600fc3\n      eq\n      tag_7\n      jumpi\n      dup1\n      0x479507bb\n      eq\n      tag_8\n      jumpi\n      dup1\n      0x521de05c\n      eq\n      tag_9\n      jumpi\n      jump(tag_1)\n    tag_21:\n      dup1\n      0x0572b0cc\n      eq\n      tag_2\n      jumpi\n      dup1\n      0x0b83a727\n      eq\n      tag_3\n      jumpi\n      dup1\n      0x11cf62f8\n      eq\n      tag_4\n      jumpi\n      dup1\n      0x15490ebb\n      eq\n      tag_5\n      jumpi\n    tag_1:\n      0x00\n      dup1\n      revert\n        /* \"src/MysteryBox.sol\":3890:3998  function getRewards() public view returns (Reward[] memory) {... */\n    tag_2:\n      callvalue\n      dup1\n      iszero\n      tag_22\n      jumpi\n      0x00\n      dup1\n      revert\n    tag_22:\n      pop\n      tag_23\n      tag_24\n      jump\t// in\n    tag_23:\n      mload(0x40)\n      tag_25\n      swap2\n      swap1\n      tag_26\n      jump\t// in\n    tag_25:\n      mload(0x40)\n      dup1\n      swap2\n      sub\n      swap1\n      return\n        /* \"src/MysteryBox.sol\":2858:3301  function claimAllRewards() public {... */\n    tag_3:\n      callvalue\n      dup1\n      iszero\n      tag_27\n      jumpi\n      0x00\n      dup1\n      revert\n    tag_27:\n      pop\n      tag_28\n      tag_29\n      jump\t// in\n    tag_28:\n      stop\n        /* \"src/MysteryBox.sol\":189:237  mapping(address => Reward[]) public rewardsOwned */\n    tag_4:\n      callvalue\n      dup1\n      iszero\n      tag_30\n      jumpi\n      0x00\n      dup1\n      revert\n    tag_30:\n      pop\n      tag_31\n      0x04\n      dup1\n      calldatasize\n      sub\n      dup2\n      add\n      swap1\n      tag_32\n      swap2\n      swap1\n      tag_33\n      jump\t// in\n    tag_32:\n      tag_34\n      jump\t// in\n    tag_31:\n      mload(0x40)\n      tag_35\n      swap3\n      swap2\n      swap1\n      tag_36\n      jump\t// in\n    tag_35:\n      mload(0x40)\n      dup1\n      swap2\n      sub\n      swap1\n      return\n        /* \"src/MysteryBox.sol\":2594:2852  function transferReward(address _to, uint256 _index) public {... */\n    tag_5:\n      callvalue\n      dup1\n      iszero\n      tag_37\n      jumpi\n      0x00\n      dup1\n      revert\n    tag_37:\n      pop\n      tag_38\n      0x04\n      dup1\n      calldatasize\n      sub\n      dup2\n      add\n      swap1\n      tag_39\n      swap2\n      swap1\n      tag_33\n      jump\t// in\n    tag_39:\n      tag_40\n      jump\t// in\n    tag_38:\n      stop\n        /* \"src/MysteryBox.sol\":4004:4101  function getRewardPool() public view returns (Reward[] memory) {... */\n    tag_6:\n      callvalue\n      dup1\n      iszero\n      tag_41\n      jumpi\n      0x00\n      dup1\n      revert\n    tag_41:\n      pop\n      tag_42\n      tag_43\n      jump\t// in\n    tag_42:\n      mload(0x40)\n      tag_44\n      swap2\n      swap1\n      tag_26\n      jump\t// in\n    tag_44:\n      mload(0x40)\n      dup1\n      swap2\n      sub\n      swap1\n      return\n        /* \"src/MysteryBox.sol\":2358:2588  function withdrawFunds() public {... */\n    tag_7:\n      callvalue\n      dup1\n      iszero\n      tag_45\n      jumpi\n      0x00\n      dup1\n      revert\n    tag_45:\n      pop\n      tag_46\n      tag_47\n      jump\t// in\n    tag_46:\n      stop\n        /* \"src/MysteryBox.sol\":1231:1370  function buyBox() public payable {... */\n    tag_8:\n      tag_48\n      tag_49\n      jump\t// in\n    tag_48:\n      stop\n        /* \"src/MysteryBox.sol\":138:183  mapping(address => uint256) public boxesOwned */\n    tag_9:\n      callvalue\n      dup1\n      iszero\n      tag_50\n      jumpi\n      0x00\n      dup1\n      revert\n    tag_50:\n      pop\n      tag_51\n      0x04\n      dup1\n      calldatasize\n      sub\n      dup2\n      add\n      swap1\n      tag_52\n      swap2\n      swap1\n      tag_53\n      jump\t// in\n    tag_52:\n      tag_54\n      jump\t// in\n    tag_51:\n      mload(0x40)\n      tag_55\n      swap2\n      swap1\n      tag_56\n      jump\t// in\n    tag_55:\n      mload(0x40)\n      dup1\n      swap2\n      sub\n      swap1\n      return\n        /* \"src/MysteryBox.sol\":275:320  uint256 public constant SEEDVALUE = 0.1 ether */\n    tag_10:\n      callvalue\n      dup1\n      iszero\n      tag_57\n      jumpi\n      0x00\n      dup1\n      revert\n    tag_57:\n      pop\n      tag_58\n      tag_59\n      jump\t// in\n    tag_58:\n      mload(0x40)\n      tag_60\n      swap2\n      swap1\n      tag_56\n      jump\t// in\n    tag_60:\n      mload(0x40)\n      dup1\n      swap2\n      sub\n      swap1\n      return\n        /* \"src/MysteryBox.sol\":243:269  Reward[] public rewardPool */\n    tag_11:\n      callvalue\n      dup1\n      iszero\n      tag_61\n      jumpi\n      0x00\n      dup1\n      revert\n    tag_61:\n      pop\n      tag_62\n      0x04\n      dup1\n      calldatasize\n      sub\n      dup2\n      add\n      swap1\n      tag_63\n      swap2\n      swap1\n      tag_64\n      jump\t// in\n    tag_63:\n      tag_65\n      jump\t// in\n    tag_62:\n      mload(0x40)\n      tag_66\n      swap3\n      swap2\n      swap1\n      tag_36\n      jump\t// in\n    tag_66:\n      mload(0x40)\n      dup1\n      swap2\n      sub\n      swap1\n      return\n        /* \"src/MysteryBox.sol\":83:103  address public owner */\n    tag_12:\n      callvalue\n      dup1\n      iszero\n      tag_67\n      jumpi\n      0x00\n      dup1\n      revert\n    tag_67:\n      pop\n      tag_68\n      tag_69\n      jump\t// in\n    tag_68:\n      mload(0x40)\n      tag_70\n      swap2\n      swap1\n      tag_71\n      jump\t// in\n    tag_70:\n      mload(0x40)\n      dup1\n      swap2\n      sub\n      swap1\n      return\n        /* \"src/MysteryBox.sol\":109:132  uint256 public boxPrice */\n    tag_13:\n      callvalue\n      dup1\n      iszero\n      tag_72\n      jumpi\n      0x00\n      dup1\n      revert\n    tag_72:\n      pop\n      tag_73\n      tag_74\n      jump\t// in\n    tag_73:\n      mload(0x40)\n      tag_75\n      swap2\n      swap1\n      tag_56\n      jump\t// in\n    tag_75:\n      mload(0x40)\n      dup1\n      swap2\n      sub\n      swap1\n      return\n        /* \"src/MysteryBox.sol\":4107:4188  function changeOwner(address _newOwner) public {... */\n    tag_14:\n      callvalue\n      dup1\n      iszero\n      tag_76\n      jumpi\n      0x00\n      dup1\n      revert\n    tag_76:\n      pop\n      tag_77\n      0x04\n      dup1\n      calldatasize\n      sub\n      dup2\n      add\n      swap1\n      tag_78\n      swap2\n      swap1\n      tag_53\n      jump\t// in\n    tag_78:\n      tag_79\n      jump\t// in\n    tag_77:\n      stop\n        /* \"src/MysteryBox.sol\":1376:2352  function openBox() public {... */\n    tag_15:\n      callvalue\n      dup1\n      iszero\n      tag_80\n      jumpi\n      0x00\n      dup1\n      revert\n    tag_80:\n      pop\n      tag_81\n      tag_82\n      jump\t// in\n    tag_81:\n      stop\n        /* \"src/MysteryBox.sol\":1039:1225  function addReward(string memory _name, uint256 _value) public {... */\n    tag_16:\n      callvalue\n      dup1\n      iszero\n      tag_83\n      jumpi\n      0x00\n      dup1\n      revert\n    tag_83:\n      pop\n      tag_84\n      0x04\n      dup1\n      calldatasize\n      sub\n      dup2\n      add\n      swap1\n      tag_85\n      swap2\n      swap1\n      tag_86\n      jump\t// in\n    tag_85:\n      tag_87\n      jump\t// in\n    tag_84:\n      stop\n        /* \"src/MysteryBox.sol\":3470:3884  function claimSingleReward(uint256 _index) public {... */\n    tag_17:\n      callvalue\n      dup1\n      iszero\n      tag_88\n      jumpi\n      0x00\n      dup1\n      revert\n    tag_88:\n      pop\n      tag_89\n      0x04\n      dup1\n      calldatasize\n      sub\n      dup2\n      add\n      swap1\n      tag_90\n      swap2\n      swap1\n      tag_64\n      jump\t// in\n    tag_90:\n      tag_91\n      jump\t// in\n    tag_89:\n      stop\n        /* \"src/MysteryBox.sol\":889:1033  function setBoxPrice(uint256 _price) public {... */\n    tag_18:\n      callvalue\n      dup1\n      iszero\n      tag_92\n      jumpi\n      0x00\n      dup1\n      revert\n    tag_92:\n      pop\n      tag_93\n      0x04\n      dup1\n      calldatasize\n      sub\n      dup2\n      add\n      swap1\n      tag_94\n      swap2\n      swap1\n      tag_64\n      jump\t// in\n    tag_94:\n      tag_95\n      jump\t// in\n    tag_93:\n      stop\n        /* \"src/MysteryBox.sol\":3890:3998  function getRewards() public view returns (Reward[] memory) {... */\n    tag_24:\n        /* \"src/MysteryBox.sol\":3933:3948  Reward[] memory */\n      0x60\n        /* \"src/MysteryBox.sol\":3967:3979  rewardsOwned */\n      0x03\n        /* \"src/MysteryBox.sol\":3967:3991  rewardsOwned[msg.sender] */\n      0x00\n        /* \"src/MysteryBox.sol\":3980:3990  msg.sender */\n      caller\n        /* \"src/MysteryBox.sol\":3967:3991  rewardsOwned[msg.sender] */\n      0xffffffffffffffffffffffffffffffffffffffff\n      and\n      0xffffffffffffffffffffffffffffffffffffffff\n      and\n      dup2\n      mstore\n      0x20\n      add\n      swap1\n      dup2\n      mstore\n      0x20\n      add\n      0x00\n      keccak256\n        /* \"src/MysteryBox.sol\":3960:3991  return rewardsOwned[msg.sender] */\n      dup1\n      sload\n      dup1\n      0x20\n      mul\n      0x20\n      add\n      mload(0x40)\n      swap1\n      dup2\n      add\n      0x40\n      mstore\n      dup1\n      swap3\n      swap2\n      swap1\n      dup2\n      dup2\n      mstore\n      0x20\n      add\n      0x00\n      swap1\n    tag_97:\n      dup3\n      dup3\n      lt\n      iszero\n      tag_98\n      jumpi\n      dup4\n      dup3\n      swap1\n      0x00\n      mstore\n      keccak256(0x00, 0x20)\n      swap1\n      0x02\n      mul\n      add\n      mload(0x40)\n      dup1\n      0x40\n      add\n      0x40\n      mstore\n      swap1\n      dup2\n      0x00\n      dup3\n      add\n      dup1\n      sload\n      tag_100\n      swap1\n      tag_101\n      jump\t// in\n    tag_100:\n      dup1\n      0x1f\n      add\n      0x20\n      dup1\n      swap2\n      div\n      mul\n      0x20\n      add\n      mload(0x40)\n      swap1\n      dup2\n      add\n      0x40\n      mstore\n      dup1\n      swap3\n      swap2\n      swap1\n      dup2\n      dup2\n      mstore\n      0x20\n      add\n      dup3\n      dup1\n      sload\n      tag_102\n      swap1\n      tag_101\n      jump\t// in\n    tag_102:\n      dup1\n      iszero\n      tag_103\n      jumpi\n      dup1\n      0x1f\n      lt\n      tag_104\n      jumpi\n      0x0100\n      dup1\n      dup4\n      sload\n      div\n      mul\n      dup4\n      mstore\n      swap2\n      0x20\n      add\n      swap2\n      jump(tag_103)\n    tag_104:\n      dup3\n      add\n      swap2\n      swap1\n      0x00\n      mstore\n      keccak256(0x00, 0x20)\n      swap1\n    tag_105:\n      dup2\n      sload\n      dup2\n      mstore\n      swap1\n      0x01\n      add\n      swap1\n      0x20\n      add\n      dup1\n      dup4\n      gt\n      tag_105\n      jumpi\n      dup3\n      swap1\n      sub\n      0x1f\n      and\n      dup3\n      add\n      swap2\n    tag_103:\n      pop\n      pop\n      pop\n      pop\n      pop\n      dup2\n      mstore\n      0x20\n      add\n      0x01\n      dup3\n      add\n      sload\n      dup2\n      mstore\n      pop\n      pop\n      dup2\n      mstore\n      0x20\n      add\n      swap1\n      0x01\n      add\n      swap1\n      jump(tag_97)\n    tag_98:\n      pop\n      pop\n      pop\n      pop\n      swap1\n      pop\n        /* \"src/MysteryBox.sol\":3890:3998  function getRewards() public view returns (Reward[] memory) {... */\n      swap1\n      jump\t// out\n        /* \"src/MysteryBox.sol\":2858:3301  function claimAllRewards() public {... */\n    tag_29:\n        /* \"src/MysteryBox.sol\":2902:2920  uint256 totalValue */\n      0x00\n        /* \"src/MysteryBox.sol\":2939:2948  uint256 i */\n      dup1\n        /* \"src/MysteryBox.sol\":2934:3068  for (uint256 i = 0; i < rewardsOwned[msg.sender].length; i++) {... */\n    tag_107:\n        /* \"src/MysteryBox.sol\":2958:2970  rewardsOwned */\n      0x03\n        /* \"src/MysteryBox.sol\":2958:2982  rewardsOwned[msg.sender] */\n      0x00\n        /* \"src/MysteryBox.sol\":2971:2981  msg.sender */\n      caller\n        /* \"src/MysteryBox.sol\":2958:2982  rewardsOwned[msg.sender] */\n      0xffffffffffffffffffffffffffffffffffffffff\n      and\n      0xffffffffffffffffffffffffffffffffffffffff\n      and\n      dup2\n      mstore\n      0x20\n      add\n      swap1\n      dup2\n      mstore\n      0x20\n      add\n      0x00\n      keccak256\n        /* \"src/MysteryBox.sol\":2958:2989  rewardsOwned[msg.sender].length */\n      dup1\n      sload\n      swap1\n      pop\n        /* \"src/MysteryBox.sol\":2954:2955  i */\n      dup2\n        /* \"src/MysteryBox.sol\":2954:2989  i < rewardsOwned[msg.sender].length */\n      lt\n        /* \"src/MysteryBox.sol\":2934:3068  for (uint256 i = 0; i < rewardsOwned[msg.sender].length; i++) {... */\n      iszero\n      tag_108\n      jumpi\n        /* \"src/MysteryBox.sol\":3024:3036  rewardsOwned */\n      0x03\n        /* \"src/MysteryBox.sol\":3024:3048  rewardsOwned[msg.sender] */\n      0x00\n        /* \"src/MysteryBox.sol\":3037:3047  msg.sender */\n      caller\n        /* \"src/MysteryBox.sol\":3024:3048  rewardsOwned[msg.sender] */\n      0xffffffffffffffffffffffffffffffffffffffff\n      and\n      0xffffffffffffffffffffffffffffffffffffffff\n      and\n      dup2\n      mstore\n      0x20\n      add\n      swap1\n      dup2\n      mstore\n      0x20\n      add\n      0x00\n      keccak256\n        /* \"src/MysteryBox.sol\":3049:3050  i */\n      dup2\n        /* \"src/MysteryBox.sol\":3024:3051  rewardsOwned[msg.sender][i] */\n      dup2\n      sload\n      dup2\n      lt\n      tag_110\n      jumpi\n      tag_111\n      tag_112\n      jump\t// in\n    tag_111:\n    tag_110:\n      swap1\n      0x00\n      mstore\n      keccak256(0x00, 0x20)\n      swap1\n      0x02\n      mul\n      add\n        /* \"src/MysteryBox.sol\":3024:3057  rewardsOwned[msg.sender][i].value */\n      0x01\n      add\n      sload\n        /* \"src/MysteryBox.sol\":3010:3057  totalValue += rewardsOwned[msg.sender][i].value */\n      dup3\n      tag_114\n      swap2\n      swap1\n      tag_115\n      jump\t// in\n    tag_114:\n      swap2\n      pop\n        /* \"src/MysteryBox.sol\":2991:2994  i++ */\n      dup1\n      dup1\n      0x01\n      add\n      swap2\n      pop\n      pop\n        /* \"src/MysteryBox.sol\":2934:3068  for (uint256 i = 0; i < rewardsOwned[msg.sender].length; i++) {... */\n      jump(tag_107)\n    tag_108:\n      pop\n        /* \"src/MysteryBox.sol\":3098:3099  0 */\n      0x00\n        /* \"src/MysteryBox.sol\":3085:3095  totalValue */\n      dup2\n        /* \"src/MysteryBox.sol\":3085:3099  totalValue > 0 */\n      gt\n        /* \"src/MysteryBox.sol\":3077:3123  require(totalValue > 0, \"No rewards to claim\") */\n      tag_116\n      jumpi\n      mload(0x40)\n      0x08c379a000000000000000000000000000000000000000000000000000000000\n      dup2\n      mstore\n      0x04\n      add\n      tag_117\n      swap1\n      tag_118\n      jump\t// in\n    tag_117:\n      mload(0x40)\n      dup1\n      swap2\n      sub\n      swap1\n      revert\n    tag_116:\n        /* \"src/MysteryBox.sol\":3135:3147  bool success */\n      0x00\n        /* \"src/MysteryBox.sol\":3160:3170  msg.sender */\n      caller\n        /* \"src/MysteryBox.sol\":3152:3176  payable(msg.sender).call */\n      0xffffffffffffffffffffffffffffffffffffffff\n      and\n        /* \"src/MysteryBox.sol\":3184:3194  totalValue */\n      dup3\n        /* \"src/MysteryBox.sol\":3152:3199  payable(msg.sender).call{value: totalValue}(\"\") */\n      mload(0x40)\n      tag_119\n      swap1\n      tag_120\n      jump\t// in\n    tag_119:\n      0x00\n      mload(0x40)\n      dup1\n      dup4\n      sub\n      dup2\n      dup6\n      dup8\n      gas\n      call\n      swap3\n      pop\n      pop\n      pop\n      returndatasize\n      dup1\n      0x00\n      dup2\n      eq\n      tag_123\n      jumpi\n      mload(0x40)\n      swap2\n      pop\n      and(add(returndatasize, 0x3f), not(0x1f))\n      dup3\n      add\n      0x40\n      mstore\n      returndatasize\n      dup3\n      mstore\n      returndatasize\n      0x00\n      0x20\n      dup5\n      add\n      returndatacopy\n      jump(tag_122)\n    tag_123:\n      0x60\n      swap2\n      pop\n    tag_122:\n      pop\n        /* \"src/MysteryBox.sol\":3134:3199  (bool success,) = payable(msg.sender).call{value: totalValue}(\"\") */\n      pop\n      swap1\n      pop\n        /* \"src/MysteryBox.sol\":3217:3224  success */\n      dup1\n        /* \"src/MysteryBox.sol\":3209:3252  require(success, \"Transfer failed-> Check\") */\n      tag_124\n      jumpi\n      mload(0x40)\n      0x08c379a000000000000000000000000000000000000000000000000000000000\n      dup2\n      mstore\n      0x04\n      add\n      tag_125\n      swap1\n      tag_126\n      jump\t// in\n    tag_125:\n      mload(0x40)\n      dup1\n      swap2\n      sub\n      swap1\n      revert\n    tag_124:\n        /* \"src/MysteryBox.sol\":3270:3282  rewardsOwned */\n      0x03\n        /* \"src/MysteryBox.sol\":3270:3294  rewardsOwned[msg.sender] */\n      0x00\n        /* \"src/MysteryBox.sol\":3283:3293  msg.sender */\n      caller\n        /* \"src/MysteryBox.sol\":3270:3294  rewardsOwned[msg.sender] */\n      0xffffffffffffffffffffffffffffffffffffffff\n      and\n      0xffffffffffffffffffffffffffffffffffffffff\n      and\n      dup2\n      mstore\n      0x20\n      add\n      swap1\n      dup2\n      mstore\n      0x20\n      add\n      0x00\n      keccak256\n      0x00\n        /* \"src/MysteryBox.sol\":3263:3294  delete rewardsOwned[msg.sender] */\n      tag_127\n      swap2\n      swap1\n      tag_128\n      jump\t// in\n    tag_127:\n        /* \"src/MysteryBox.sol\":2892:3301  {... */\n      pop\n      pop\n        /* \"src/MysteryBox.sol\":2858:3301  function claimAllRewards() public {... */\n      jump\t// out\n        /* \"src/MysteryBox.sol\":189:237  mapping(address => Reward[]) public rewardsOwned */\n    tag_34:\n      mstore(0x20, 0x03)\n      dup2\n      0x00\n      mstore\n      keccak256(0x00, 0x40)\n      dup2\n      dup2\n      sload\n      dup2\n      lt\n      tag_129\n      jumpi\n      0x00\n      dup1\n      revert\n    tag_129:\n      swap1\n      0x00\n      mstore\n      keccak256(0x00, 0x20)\n      swap1\n      0x02\n      mul\n      add\n      0x00\n      swap2\n      pop\n      swap2\n      pop\n      pop\n      dup1\n      0x00\n      add\n      dup1\n      sload\n      tag_131\n      swap1\n      tag_101\n      jump\t// in\n    tag_131:\n      dup1\n      0x1f\n      add\n      0x20\n      dup1\n      swap2\n      div\n      mul\n      0x20\n      add\n      mload(0x40)\n      swap1\n      dup2\n      add\n      0x40\n      mstore\n      dup1\n      swap3\n      swap2\n      swap1\n      dup2\n      dup2\n      mstore\n      0x20\n      add\n      dup3\n      dup1\n      sload\n      tag_132\n      swap1\n      tag_101\n      jump\t// in\n    tag_132:\n      dup1\n      iszero\n      tag_133\n      jumpi\n      dup1\n      0x1f\n      lt\n      tag_134\n      jumpi\n      0x0100\n      dup1\n      dup4\n      sload\n      div\n      mul\n      dup4\n      mstore\n      swap2\n      0x20\n      add\n      swap2\n      jump(tag_133)\n    tag_134:\n      dup3\n      add\n      swap2\n      swap1\n      0x00\n      mstore\n      keccak256(0x00, 0x20)\n      swap1\n    tag_135:\n      dup2\n      sload\n      dup2\n      mstore\n      swap1\n      0x01\n      add\n      swap1\n      0x20\n      add\n      dup1\n      dup4\n      gt\n      tag_135\n      jumpi\n      dup3\n      swap1\n      sub\n      0x1f\n      and\n      dup3\n      add\n      swap2\n    tag_133:\n      pop\n      pop\n      pop\n      pop\n      pop\n      swap1\n      dup1\n      0x01\n      add\n      sload\n      swap1\n      pop\n      dup3\n      jump\t// out\n        /* \"src/MysteryBox.sol\":2594:2852  function transferReward(address _to, uint256 _index) public {... */\n    tag_40:\n        /* \"src/MysteryBox.sol\":2681:2693  rewardsOwned */\n      0x03\n        /* \"src/MysteryBox.sol\":2681:2705  rewardsOwned[msg.sender] */\n      0x00\n        /* \"src/MysteryBox.sol\":2694:2704  msg.sender */\n      caller\n        /* \"src/MysteryBox.sol\":2681:2705  rewardsOwned[msg.sender] */\n      0xffffffffffffffffffffffffffffffffffffffff\n      and\n      0xffffffffffffffffffffffffffffffffffffffff\n      and\n      dup2\n      mstore\n      0x20\n      add\n      swap1\n      dup2\n      mstore\n      0x20\n      add\n      0x00\n      keccak256\n        /* \"src/MysteryBox.sol\":2681:2712  rewardsOwned[msg.sender].length */\n      dup1\n      sload\n      swap1\n      pop\n        /* \"src/MysteryBox.sol\":2672:2678  _index */\n      dup2\n        /* \"src/MysteryBox.sol\":2672:2712  _index < rewardsOwned[msg.sender].length */\n      lt\n        /* \"src/MysteryBox.sol\":2664:2730  require(_index < rewardsOwned[msg.sender].length, \"Invalid index\") */\n      tag_137\n      jumpi\n      mload(0x40)\n      0x08c379a000000000000000000000000000000000000000000000000000000000\n      dup2\n      mstore\n      0x04\n      add\n      tag_138\n      swap1\n      tag_139\n      jump\t// in\n    tag_138:\n      mload(0x40)\n      dup1\n      swap2\n      sub\n      swap1\n      revert\n    tag_137:\n        /* \"src/MysteryBox.sol\":2740:2752  rewardsOwned */\n      0x03\n        /* \"src/MysteryBox.sol\":2740:2757  rewardsOwned[_to] */\n      0x00\n        /* \"src/MysteryBox.sol\":2753:2756  _to */\n      dup4\n        /* \"src/MysteryBox.sol\":2740:2757  rewardsOwned[_to] */\n      0xffffffffffffffffffffffffffffffffffffffff\n      and\n      0xffffffffffffffffffffffffffffffffffffffff\n      and\n      dup2\n      mstore\n      0x20\n      add\n      swap1\n      dup2\n      mstore\n      0x20\n      add\n      0x00\n      keccak256\n        /* \"src/MysteryBox.sol\":2763:2775  rewardsOwned */\n      0x03\n        /* \"src/MysteryBox.sol\":2763:2787  rewardsOwned[msg.sender] */\n      0x00\n        /* \"src/MysteryBox.sol\":2776:2786  msg.sender */\n      caller\n        /* \"src/MysteryBox.sol\":2763:2787  rewardsOwned[msg.sender] */\n      0xffffffffffffffffffffffffffffffffffffffff\n      and\n      0xffffffffffffffffffffffffffffffffffffffff\n      and\n      dup2\n      mstore\n      0x20\n      add\n      swap1\n      dup2\n      mstore\n      0x20\n      add\n      0x00\n      keccak256\n        /* \"src/MysteryBox.sol\":2788:2794  _index */\n      dup3\n        /* \"src/MysteryBox.sol\":2763:2795  rewardsOwned[msg.sender][_index] */\n      dup2\n      sload\n      dup2\n      lt\n      tag_140\n      jumpi\n      tag_141\n      tag_112\n      jump\t// in\n    tag_141:\n    tag_140:\n      swap1\n      0x00\n      mstore\n      keccak256(0x00, 0x20)\n      swap1\n      0x02\n      mul\n      add\n        /* \"src/MysteryBox.sol\":2740:2796  rewardsOwned[_to].push(rewardsOwned[msg.sender][_index]) */\n      swap1\n      dup1\n      0x01\n      dup2\n      sload\n      add\n      dup1\n      dup3\n      sstore\n      dup1\n      swap2\n      pop\n      pop\n      0x01\n      swap1\n      sub\n      swap1\n      0x00\n      mstore\n      keccak256(0x00, 0x20)\n      swap1\n      0x02\n      mul\n      add\n      0x00\n      swap1\n      swap2\n      swap1\n      swap2\n      swap1\n      swap2\n      pop\n      0x00\n      dup3\n      add\n      dup2\n      0x00\n      add\n      swap1\n      dup2\n      tag_144\n      swap2\n      swap1\n      tag_145\n      jump\t// in\n    tag_144:\n      pop\n      0x01\n      dup3\n      add\n      sload\n      dup2\n      0x01\n      add\n      sstore\n      pop\n      pop\n        /* \"src/MysteryBox.sol\":2813:2825  rewardsOwned */\n      0x03\n        /* \"src/MysteryBox.sol\":2813:2837  rewardsOwned[msg.sender] */\n      0x00\n        /* \"src/MysteryBox.sol\":2826:2836  msg.sender */\n      caller\n        /* \"src/MysteryBox.sol\":2813:2837  rewardsOwned[msg.sender] */\n      0xffffffffffffffffffffffffffffffffffffffff\n      and\n      0xffffffffffffffffffffffffffffffffffffffff\n      and\n      dup2\n      mstore\n      0x20\n      add\n      swap1\n      dup2\n      mstore\n      0x20\n      add\n      0x00\n      keccak256\n        /* \"src/MysteryBox.sol\":2838:2844  _index */\n      dup2\n        /* \"src/MysteryBox.sol\":2813:2845  rewardsOwned[msg.sender][_index] */\n      dup2\n      sload\n      dup2\n      lt\n      tag_146\n      jumpi\n      tag_147\n      tag_112\n      jump\t// in\n    tag_147:\n    tag_146:\n      swap1\n      0x00\n      mstore\n      keccak256(0x00, 0x20)\n      swap1\n      0x02\n      mul\n      add\n      0x00\n        /* \"src/MysteryBox.sol\":2806:2845  delete rewardsOwned[msg.sender][_index] */\n      dup1\n      dup3\n      add\n      0x00\n      tag_149\n      swap2\n      swap1\n      tag_150\n      jump\t// in\n    tag_149:\n      0x01\n      dup3\n      add\n      0x00\n      swap1\n      sstore\n      pop\n      pop\n        /* \"src/MysteryBox.sol\":2594:2852  function transferReward(address _to, uint256 _index) public {... */\n      pop\n      pop\n      jump\t// out\n        /* \"src/MysteryBox.sol\":4004:4101  function getRewardPool() public view returns (Reward[] memory) {... */\n    tag_43:\n        /* \"src/MysteryBox.sol\":4050:4065  Reward[] memory */\n      0x60\n        /* \"src/MysteryBox.sol\":4084:4094  rewardPool */\n      0x04\n        /* \"src/MysteryBox.sol\":4077:4094  return rewardPool */\n      dup1\n      sload\n      dup1\n      0x20\n      mul\n      0x20\n      add\n      mload(0x40)\n      swap1\n      dup2\n      add\n      0x40\n      mstore\n      dup1\n      swap3\n      swap2\n      swap1\n      dup2\n      dup2\n      mstore\n      0x20\n      add\n      0x00\n      swap1\n    tag_152:\n      dup3\n      dup3\n      lt\n      iszero\n      tag_153\n      jumpi\n      dup4\n      dup3\n      swap1\n      0x00\n      mstore\n      keccak256(0x00, 0x20)\n      swap1\n      0x02\n      mul\n      add\n      mload(0x40)\n      dup1\n      0x40\n      add\n      0x40\n      mstore\n      swap1\n      dup2\n      0x00\n      dup3\n      add\n      dup1\n      sload\n      tag_155\n      swap1\n      tag_101\n      jump\t// in\n    tag_155:\n      dup1\n      0x1f\n      add\n      0x20\n      dup1\n      swap2\n      div\n      mul\n      0x20\n      add\n      mload(0x40)\n      swap1\n      dup2\n      add\n      0x40\n      mstore\n      dup1\n      swap3\n      swap2\n      swap1\n      dup2\n      dup2\n      mstore\n      0x20\n      add\n      dup3\n      dup1\n      sload\n      tag_156\n      swap1\n      tag_101\n      jump\t// in\n    tag_156:\n      dup1\n      iszero\n      tag_157\n      jumpi\n      dup1\n      0x1f\n      lt\n      tag_158\n      jumpi\n      0x0100\n      dup1\n      dup4\n      sload\n      div\n      mul\n      dup4\n      mstore\n      swap2\n      0x20\n      add\n      swap2\n      jump(tag_157)\n    tag_158:\n      dup3\n      add\n      swap2\n      swap1\n      0x00\n      mstore\n      keccak256(0x00, 0x20)\n      swap1\n    tag_159:\n      dup2\n      sload\n      dup2\n      mstore\n      swap1\n      0x01\n      add\n      swap1\n      0x20\n      add\n      dup1\n      dup4\n      gt\n      tag_159\n      jumpi\n      dup3\n      swap1\n      sub\n      0x1f\n      and\n      dup3\n      add\n      swap2\n    tag_157:\n      pop\n      pop\n      pop\n      pop\n      pop\n      dup2\n      mstore\n      0x20\n      add\n      0x01\n      dup3\n      add\n      sload\n      dup2\n      mstore\n      pop\n      pop\n      dup2\n      mstore\n      0x20\n      add\n      swap1\n      0x01\n      add\n      swap1\n      jump(tag_152)\n    tag_153:\n      pop\n      pop\n      pop\n      pop\n      swap1\n      pop\n        /* \"src/MysteryBox.sol\":4004:4101  function getRewardPool() public view returns (Reward[] memory) {... */\n      swap1\n      jump\t// out\n        /* \"src/MysteryBox.sol\":2358:2588  function withdrawFunds() public {... */\n    tag_47:\n        /* \"src/MysteryBox.sol\":2422:2427  owner */\n      0x00\n      dup1\n      sload\n      swap1\n      0x0100\n      exp\n      swap1\n      div\n      0xffffffffffffffffffffffffffffffffffffffff\n      and\n        /* \"src/MysteryBox.sol\":2408:2427  msg.sender == owner */\n      0xffffffffffffffffffffffffffffffffffffffff\n      and\n        /* \"src/MysteryBox.sol\":2408:2418  msg.sender */\n      caller\n        /* \"src/MysteryBox.sol\":2408:2427  msg.sender == owner */\n      0xffffffffffffffffffffffffffffffffffffffff\n      and\n      eq\n        /* \"src/MysteryBox.sol\":2400:2455  require(msg.sender == owner, \"Only owner can withdraw\") */\n      tag_161\n      jumpi\n      mload(0x40)\n      0x08c379a000000000000000000000000000000000000000000000000000000000\n      dup2\n      mstore\n      0x04\n      add\n      tag_162\n      swap1\n      tag_163\n      jump\t// in\n    tag_162:\n      mload(0x40)\n      dup1\n      swap2\n      sub\n      swap1\n      revert\n    tag_161:\n        /* \"src/MysteryBox.sol\":2466:2478  bool success */\n      0x00\n        /* \"src/MysteryBox.sol\":2491:2496  owner */\n      dup1\n      0x00\n      swap1\n      sload\n      swap1\n      0x0100\n      exp\n      swap1\n      div\n      0xffffffffffffffffffffffffffffffffffffffff\n      and\n        /* \"src/MysteryBox.sol\":2483:2502  payable(owner).call */\n      0xffffffffffffffffffffffffffffffffffffffff\n      and\n        /* \"src/MysteryBox.sol\":2510:2531  address(this).balance */\n      selfbalance\n        /* \"src/MysteryBox.sol\":2483:2536  payable(owner).call{value: address(this).balance}(\"\") */\n      mload(0x40)\n      tag_164\n      swap1\n      tag_120\n      jump\t// in\n    tag_164:\n      0x00\n      mload(0x40)\n      dup1\n      dup4\n      sub\n      dup2\n      dup6\n      dup8\n      gas\n      call\n      swap3\n      pop\n      pop\n      pop\n      returndatasize\n      dup1\n      0x00\n      dup2\n      eq\n      tag_167\n      jumpi\n      mload(0x40)\n      swap2\n      pop\n      and(add(returndatasize, 0x3f), not(0x1f))\n      dup3\n      add\n      0x40\n      mstore\n      returndatasize\n      dup3\n      mstore\n      returndatasize\n      0x00\n      0x20\n      dup5\n      add\n      returndatacopy\n      jump(tag_166)\n    tag_167:\n      0x60\n      swap2\n      pop\n    tag_166:\n      pop\n        /* \"src/MysteryBox.sol\":2465:2536  (bool success,) = payable(owner).call{value: address(this).balance}(\"\") */\n      pop\n      swap1\n      pop\n        /* \"src/MysteryBox.sol\":2554:2561  success */\n      dup1\n        /* \"src/MysteryBox.sol\":2546:2581  require(success, \"Transfer failed\") */\n      tag_168\n      jumpi\n      mload(0x40)\n      0x08c379a000000000000000000000000000000000000000000000000000000000\n      dup2\n      mstore\n      0x04\n      add\n      tag_169\n      swap1\n      tag_170\n      jump\t// in\n    tag_169:\n      mload(0x40)\n      dup1\n      swap2\n      sub\n      swap1\n      revert\n    tag_168:\n        /* \"src/MysteryBox.sol\":2390:2588  {... */\n      pop\n        /* \"src/MysteryBox.sol\":2358:2588  function withdrawFunds() public {... */\n      jump\t// out\n        /* \"src/MysteryBox.sol\":1231:1370  function buyBox() public payable {... */\n    tag_49:\n        /* \"src/MysteryBox.sol\":1295:1303  boxPrice */\n      sload(0x01)\n        /* \"src/MysteryBox.sol\":1282:1291  msg.value */\n      callvalue\n        /* \"src/MysteryBox.sol\":1282:1303  msg.value == boxPrice */\n      eq\n        /* \"src/MysteryBox.sol\":1274:1326  require(msg.value == boxPrice, \"Incorrect ETH sent\") */\n      tag_172\n      jumpi\n      mload(0x40)\n      0x08c379a000000000000000000000000000000000000000000000000000000000\n      dup2\n      mstore\n      0x04\n      add\n      tag_173\n      swap1\n      tag_174\n      jump\t// in\n    tag_173:\n      mload(0x40)\n      dup1\n      swap2\n      sub\n      swap1\n      revert\n    tag_172:\n        /* \"src/MysteryBox.sol\":1362:1363  1 */\n      0x01\n        /* \"src/MysteryBox.sol\":1336:1346  boxesOwned */\n      0x02\n        /* \"src/MysteryBox.sol\":1336:1358  boxesOwned[msg.sender] */\n      0x00\n        /* \"src/MysteryBox.sol\":1347:1357  msg.sender */\n      caller\n        /* \"src/MysteryBox.sol\":1336:1358  boxesOwned[msg.sender] */\n      0xffffffffffffffffffffffffffffffffffffffff\n      and\n      0xffffffffffffffffffffffffffffffffffffffff\n      and\n      dup2\n      mstore\n      0x20\n      add\n      swap1\n      dup2\n      mstore\n      0x20\n      add\n      0x00\n      keccak256\n      0x00\n        /* \"src/MysteryBox.sol\":1336:1363  boxesOwned[msg.sender] += 1 */\n      dup3\n      dup3\n      sload\n      tag_175\n      swap2\n      swap1\n      tag_115\n      jump\t// in\n    tag_175:\n      swap3\n      pop\n      pop\n      dup2\n      swap1\n      sstore\n      pop\n        /* \"src/MysteryBox.sol\":1231:1370  function buyBox() public payable {... */\n      jump\t// out\n        /* \"src/MysteryBox.sol\":138:183  mapping(address => uint256) public boxesOwned */\n    tag_54:\n      mstore(0x20, 0x02)\n      dup1\n      0x00\n      mstore\n      keccak256(0x00, 0x40)\n      0x00\n      swap2\n      pop\n      swap1\n      pop\n      sload\n      dup2\n      jump\t// out\n        /* \"src/MysteryBox.sol\":275:320  uint256 public constant SEEDVALUE = 0.1 ether */\n    tag_59:\n        /* \"src/MysteryBox.sol\":311:320  0.1 ether */\n      0x016345785d8a0000\n        /* \"src/MysteryBox.sol\":275:320  uint256 public constant SEEDVALUE = 0.1 ether */\n      dup2\n      jump\t// out\n        /* \"src/MysteryBox.sol\":243:269  Reward[] public rewardPool */\n    tag_65:\n      0x04\n      dup2\n      dup2\n      sload\n      dup2\n      lt\n      tag_176\n      jumpi\n      0x00\n      dup1\n      revert\n    tag_176:\n      swap1\n      0x00\n      mstore\n      keccak256(0x00, 0x20)\n      swap1\n      0x02\n      mul\n      add\n      0x00\n      swap2\n      pop\n      swap1\n      pop\n      dup1\n      0x00\n      add\n      dup1\n      sload\n      tag_178\n      swap1\n      tag_101\n      jump\t// in\n    tag_178:\n      dup1\n      0x1f\n      add\n      0x20\n      dup1\n      swap2\n      div\n      mul\n      0x20\n      add\n      mload(0x40)\n      swap1\n      dup2\n      add\n      0x40\n      mstore\n      dup1\n      swap3\n      swap2\n      swap1\n      dup2\n      dup2\n      mstore\n      0x20\n      add\n      dup3\n      dup1\n      sload\n      tag_179\n      swap1\n      tag_101\n      jump\t// in\n    tag_179:\n      dup1\n      iszero\n      tag_180\n      jumpi\n      dup1\n      0x1f\n      lt\n      tag_181\n      jumpi\n      0x0100\n      dup1\n      dup4\n      sload\n      div\n      mul\n      dup4\n      mstore\n      swap2\n      0x20\n      add\n      swap2\n      jump(tag_180)\n    tag_181:\n      dup3\n      add\n      swap2\n      swap1\n      0x00\n      mstore\n      keccak256(0x00, 0x20)\n      swap1\n    tag_182:\n      dup2\n      sload\n      dup2\n      mstore\n      swap1\n      0x01\n      add\n      swap1\n      0x20\n      add\n      dup1\n      dup4\n      gt\n      tag_182\n      jumpi\n      dup3\n      swap1\n      sub\n      0x1f\n      and\n      dup3\n      add\n      swap2\n    tag_180:\n      pop\n      pop\n      pop\n      pop\n      pop\n      swap1\n      dup1\n      0x01\n      add\n      sload\n      swap1\n      pop\n      dup3\n      jump\t// out\n        /* \"src/MysteryBox.sol\":83:103  address public owner */\n    tag_69:\n      0x00\n      dup1\n      sload\n      swap1\n      0x0100\n      exp\n      swap1\n      div\n      0xffffffffffffffffffffffffffffffffffffffff\n      and\n      dup2\n      jump\t// out\n        /* \"src/MysteryBox.sol\":109:132  uint256 public boxPrice */\n    tag_74:\n      sload(0x01)\n      dup2\n      jump\t// out\n        /* \"src/MysteryBox.sol\":4107:4188  function changeOwner(address _newOwner) public {... */\n    tag_79:\n        /* \"src/MysteryBox.sol\":4172:4181  _newOwner */\n      dup1\n        /* \"src/MysteryBox.sol\":4164:4169  owner */\n      0x00\n      dup1\n        /* \"src/MysteryBox.sol\":4164:4181  owner = _newOwner */\n      0x0100\n      exp\n      dup2\n      sload\n      dup2\n      0xffffffffffffffffffffffffffffffffffffffff\n      mul\n      not\n      and\n      swap1\n      dup4\n      0xffffffffffffffffffffffffffffffffffffffff\n      and\n      mul\n      or\n      swap1\n      sstore\n      pop\n        /* \"src/MysteryBox.sol\":4107:4188  function changeOwner(address _newOwner) public {... */\n      pop\n      jump\t// out\n        /* \"src/MysteryBox.sol\":1376:2352  function openBox() public {... */\n    tag_82:\n        /* \"src/MysteryBox.sol\":1445:1446  0 */\n      0x00\n        /* \"src/MysteryBox.sol\":1420:1430  boxesOwned */\n      0x02\n        /* \"src/MysteryBox.sol\":1420:1442  boxesOwned[msg.sender] */\n      0x00\n        /* \"src/MysteryBox.sol\":1431:1441  msg.sender */\n      caller\n        /* \"src/MysteryBox.sol\":1420:1442  boxesOwned[msg.sender] */\n      0xffffffffffffffffffffffffffffffffffffffff\n      and\n      0xffffffffffffffffffffffffffffffffffffffff\n      and\n      dup2\n      mstore\n      0x20\n      add\n      swap1\n      dup2\n      mstore\n      0x20\n      add\n      0x00\n      keccak256\n      sload\n        /* \"src/MysteryBox.sol\":1420:1446  boxesOwned[msg.sender] > 0 */\n      gt\n        /* \"src/MysteryBox.sol\":1412:1467  require(boxesOwned[msg.sender] > 0, \"No boxes to open\") */\n      tag_185\n      jumpi\n      mload(0x40)\n      0x08c379a000000000000000000000000000000000000000000000000000000000\n      dup2\n      mstore\n      0x04\n      add\n      tag_186\n      swap1\n      tag_187\n      jump\t// in\n    tag_186:\n      mload(0x40)\n      dup1\n      swap2\n      sub\n      swap1\n      revert\n    tag_185:\n        /* \"src/MysteryBox.sol\":1531:1550  uint256 randomValue */\n      0x00\n        /* \"src/MysteryBox.sol\":1621:1624  100 */\n      0x64\n        /* \"src/MysteryBox.sol\":1588:1603  block.timestamp */\n      timestamp\n        /* \"src/MysteryBox.sol\":1605:1615  msg.sender */\n      caller\n        /* \"src/MysteryBox.sol\":1571:1616  abi.encodePacked(block.timestamp, msg.sender) */\n      add(0x20, mload(0x40))\n      tag_188\n      swap3\n      swap2\n      swap1\n      tag_189\n      jump\t// in\n    tag_188:\n      mload(0x40)\n      0x20\n      dup2\n      dup4\n      sub\n      sub\n      dup2\n      mstore\n      swap1\n      0x40\n      mstore\n        /* \"src/MysteryBox.sol\":1561:1617  keccak256(abi.encodePacked(block.timestamp, msg.sender)) */\n      dup1\n      mload\n      swap1\n      0x20\n      add\n      keccak256\n        /* \"src/MysteryBox.sol\":1553:1618  uint256(keccak256(abi.encodePacked(block.timestamp, msg.sender))) */\n      0x00\n      shr\n        /* \"src/MysteryBox.sol\":1553:1624  uint256(keccak256(abi.encodePacked(block.timestamp, msg.sender))) % 100 */\n      tag_190\n      swap2\n      swap1\n      tag_191\n      jump\t// in\n    tag_190:\n        /* \"src/MysteryBox.sol\":1531:1624  uint256 randomValue = uint256(keccak256(abi.encodePacked(block.timestamp, msg.sender))) % 100 */\n      swap1\n      pop\n        /* \"src/MysteryBox.sol\":1706:1708  75 */\n      0x4b\n        /* \"src/MysteryBox.sol\":1692:1703  randomValue */\n      dup2\n        /* \"src/MysteryBox.sol\":1692:1708  randomValue < 75 */\n      lt\n        /* \"src/MysteryBox.sol\":1688:2308  if (randomValue < 75) {... */\n      iszero\n      tag_192\n      jumpi\n        /* \"src/MysteryBox.sol\":1769:1781  rewardsOwned */\n      0x03\n        /* \"src/MysteryBox.sol\":1769:1793  rewardsOwned[msg.sender] */\n      0x00\n        /* \"src/MysteryBox.sol\":1782:1792  msg.sender */\n      caller\n        /* \"src/MysteryBox.sol\":1769:1793  rewardsOwned[msg.sender] */\n      0xffffffffffffffffffffffffffffffffffffffff\n      and\n      0xffffffffffffffffffffffffffffffffffffffff\n      and\n      dup2\n      mstore\n      0x20\n      add\n      swap1\n      dup2\n      mstore\n      0x20\n      add\n      0x00\n      keccak256\n        /* \"src/MysteryBox.sol\":1799:1822  Reward(\"Coal\", 0 ether) */\n      mload(0x40)\n      dup1\n      0x40\n      add\n      0x40\n      mstore\n      dup1\n      mload(0x40)\n      dup1\n      0x40\n      add\n      0x40\n      mstore\n      dup1\n      0x04\n      dup2\n      mstore\n      0x20\n      add\n      0x436f616c00000000000000000000000000000000000000000000000000000000\n      dup2\n      mstore\n      pop\n      dup2\n      mstore\n      0x20\n      add\n        /* \"src/MysteryBox.sol\":1814:1821  0 ether */\n      0x00\n        /* \"src/MysteryBox.sol\":1799:1822  Reward(\"Coal\", 0 ether) */\n      dup2\n      mstore\n      pop\n        /* \"src/MysteryBox.sol\":1769:1823  rewardsOwned[msg.sender].push(Reward(\"Coal\", 0 ether)) */\n      swap1\n      dup1\n      0x01\n      dup2\n      sload\n      add\n      dup1\n      dup3\n      sstore\n      dup1\n      swap2\n      pop\n      pop\n      0x01\n      swap1\n      sub\n      swap1\n      0x00\n      mstore\n      keccak256(0x00, 0x20)\n      swap1\n      0x02\n      mul\n      add\n      0x00\n      swap1\n      swap2\n      swap1\n      swap2\n      swap1\n      swap2\n      pop\n      0x00\n      dup3\n      add\n      mload\n      dup2\n      0x00\n      add\n      swap1\n      dup2\n      tag_194\n      swap2\n      swap1\n      tag_195\n      jump\t// in\n    tag_194:\n      pop\n      0x20\n      dup3\n      add\n      mload\n      dup2\n      0x01\n      add\n      sstore\n      pop\n      pop\n        /* \"src/MysteryBox.sol\":1688:2308  if (randomValue < 75) {... */\n      jump(tag_196)\n    tag_192:\n        /* \"src/MysteryBox.sol\":1858:1860  95 */\n      0x5f\n        /* \"src/MysteryBox.sol\":1844:1855  randomValue */\n      dup2\n        /* \"src/MysteryBox.sol\":1844:1860  randomValue < 95 */\n      lt\n        /* \"src/MysteryBox.sol\":1840:2308  if (randomValue < 95) {... */\n      iszero\n      tag_197\n      jumpi\n        /* \"src/MysteryBox.sol\":1929:1941  rewardsOwned */\n      0x03\n        /* \"src/MysteryBox.sol\":1929:1953  rewardsOwned[msg.sender] */\n      0x00\n        /* \"src/MysteryBox.sol\":1942:1952  msg.sender */\n      caller\n        /* \"src/MysteryBox.sol\":1929:1953  rewardsOwned[msg.sender] */\n      0xffffffffffffffffffffffffffffffffffffffff\n      and\n      0xffffffffffffffffffffffffffffffffffffffff\n      and\n      dup2\n      mstore\n      0x20\n      add\n      swap1\n      dup2\n      mstore\n      0x20\n      add\n      0x00\n      keccak256\n        /* \"src/MysteryBox.sol\":1959:1991  Reward(\"Bronze Coin\", 0.1 ether) */\n      mload(0x40)\n      dup1\n      0x40\n      add\n      0x40\n      mstore\n      dup1\n      mload(0x40)\n      dup1\n      0x40\n      add\n      0x40\n      mstore\n      dup1\n      0x0b\n      dup2\n      mstore\n      0x20\n      add\n      0x42726f6e7a6520436f696e000000000000000000000000000000000000000000\n      dup2\n      mstore\n      pop\n      dup2\n      mstore\n      0x20\n      add\n        /* \"src/MysteryBox.sol\":1981:1990  0.1 ether */\n      0x016345785d8a0000\n        /* \"src/MysteryBox.sol\":1959:1991  Reward(\"Bronze Coin\", 0.1 ether) */\n      dup2\n      mstore\n      pop\n        /* \"src/MysteryBox.sol\":1929:1992  rewardsOwned[msg.sender].push(Reward(\"Bronze Coin\", 0.1 ether)) */\n      swap1\n      dup1\n      0x01\n      dup2\n      sload\n      add\n      dup1\n      dup3\n      sstore\n      dup1\n      swap2\n      pop\n      pop\n      0x01\n      swap1\n      sub\n      swap1\n      0x00\n      mstore\n      keccak256(0x00, 0x20)\n      swap1\n      0x02\n      mul\n      add\n      0x00\n      swap1\n      swap2\n      swap1\n      swap2\n      swap1\n      swap2\n      pop\n      0x00\n      dup3\n      add\n      mload\n      dup2\n      0x00\n      add\n      swap1\n      dup2\n      tag_199\n      swap2\n      swap1\n      tag_195\n      jump\t// in\n    tag_199:\n      pop\n      0x20\n      dup3\n      add\n      mload\n      dup2\n      0x01\n      add\n      sstore\n      pop\n      pop\n        /* \"src/MysteryBox.sol\":1840:2308  if (randomValue < 95) {... */\n      jump(tag_200)\n    tag_197:\n        /* \"src/MysteryBox.sol\":2027:2029  99 */\n      0x63\n        /* \"src/MysteryBox.sol\":2013:2024  randomValue */\n      dup2\n        /* \"src/MysteryBox.sol\":2013:2029  randomValue < 99 */\n      lt\n        /* \"src/MysteryBox.sol\":2009:2308  if (randomValue < 99) {... */\n      iszero\n      tag_201\n      jumpi\n        /* \"src/MysteryBox.sol\":2097:2109  rewardsOwned */\n      0x03\n        /* \"src/MysteryBox.sol\":2097:2121  rewardsOwned[msg.sender] */\n      0x00\n        /* \"src/MysteryBox.sol\":2110:2120  msg.sender */\n      caller\n        /* \"src/MysteryBox.sol\":2097:2121  rewardsOwned[msg.sender] */\n      0xffffffffffffffffffffffffffffffffffffffff\n      and\n      0xffffffffffffffffffffffffffffffffffffffff\n      and\n      dup2\n      mstore\n      0x20\n      add\n      swap1\n      dup2\n      mstore\n      0x20\n      add\n      0x00\n      keccak256\n        /* \"src/MysteryBox.sol\":2127:2159  Reward(\"Silver Coin\", 0.5 ether) */\n      mload(0x40)\n      dup1\n      0x40\n      add\n      0x40\n      mstore\n      dup1\n      mload(0x40)\n      dup1\n      0x40\n      add\n      0x40\n      mstore\n      dup1\n      0x0b\n      dup2\n      mstore\n      0x20\n      add\n      0x53696c76657220436f696e000000000000000000000000000000000000000000\n      dup2\n      mstore\n      pop\n      dup2\n      mstore\n      0x20\n      add\n        /* \"src/MysteryBox.sol\":2149:2158  0.5 ether */\n      0x06f05b59d3b20000\n        /* \"src/MysteryBox.sol\":2127:2159  Reward(\"Silver Coin\", 0.5 ether) */\n      dup2\n      mstore\n      pop\n        /* \"src/MysteryBox.sol\":2097:2160  rewardsOwned[msg.sender].push(Reward(\"Silver Coin\", 0.5 ether)) */\n      swap1\n      dup1\n      0x01\n      dup2\n      sload\n      add\n      dup1\n      dup3\n      sstore\n      dup1\n      swap2\n      pop\n      pop\n      0x01\n      swap1\n      sub\n      swap1\n      0x00\n      mstore\n      keccak256(0x00, 0x20)\n      swap1\n      0x02\n      mul\n      add\n      0x00\n      swap1\n      swap2\n      swap1\n      swap2\n      swap1\n      swap2\n      pop\n      0x00\n      dup3\n      add\n      mload\n      dup2\n      0x00\n      add\n      swap1\n      dup2\n      tag_203\n      swap2\n      swap1\n      tag_195\n      jump\t// in\n    tag_203:\n      pop\n      0x20\n      dup3\n      add\n      mload\n      dup2\n      0x01\n      add\n      sstore\n      pop\n      pop\n        /* \"src/MysteryBox.sol\":2009:2308  if (randomValue < 99) {... */\n      jump(tag_204)\n    tag_201:\n        /* \"src/MysteryBox.sol\":2238:2250  rewardsOwned */\n      0x03\n        /* \"src/MysteryBox.sol\":2238:2262  rewardsOwned[msg.sender] */\n      0x00\n        /* \"src/MysteryBox.sol\":2251:2261  msg.sender */\n      caller\n        /* \"src/MysteryBox.sol\":2238:2262  rewardsOwned[msg.sender] */\n      0xffffffffffffffffffffffffffffffffffffffff\n      and\n      0xffffffffffffffffffffffffffffffffffffffff\n      and\n      dup2\n      mstore\n      0x20\n      add\n      swap1\n      dup2\n      mstore\n      0x20\n      add\n      0x00\n      keccak256\n        /* \"src/MysteryBox.sol\":2268:2296  Reward(\"Gold Coin\", 1 ether) */\n      mload(0x40)\n      dup1\n      0x40\n      add\n      0x40\n      mstore\n      dup1\n      mload(0x40)\n      dup1\n      0x40\n      add\n      0x40\n      mstore\n      dup1\n      0x09\n      dup2\n      mstore\n      0x20\n      add\n      0x476f6c6420436f696e0000000000000000000000000000000000000000000000\n      dup2\n      mstore\n      pop\n      dup2\n      mstore\n      0x20\n      add\n        /* \"src/MysteryBox.sol\":2288:2295  1 ether */\n      0x0de0b6b3a7640000\n        /* \"src/MysteryBox.sol\":2268:2296  Reward(\"Gold Coin\", 1 ether) */\n      dup2\n      mstore\n      pop\n        /* \"src/MysteryBox.sol\":2238:2297  rewardsOwned[msg.sender].push(Reward(\"Gold Coin\", 1 ether)) */\n      swap1\n      dup1\n      0x01\n      dup2\n      sload\n      add\n      dup1\n      dup3\n      sstore\n      dup1\n      swap2\n      pop\n      pop\n      0x01\n      swap1\n      sub\n      swap1\n      0x00\n      mstore\n      keccak256(0x00, 0x20)\n      swap1\n      0x02\n      mul\n      add\n      0x00\n      swap1\n      swap2\n      swap1\n      swap2\n      swap1\n      swap2\n      pop\n      0x00\n      dup3\n      add\n      mload\n      dup2\n      0x00\n      add\n      swap1\n      dup2\n      tag_206\n      swap2\n      swap1\n      tag_195\n      jump\t// in\n    tag_206:\n      pop\n      0x20\n      dup3\n      add\n      mload\n      dup2\n      0x01\n      add\n      sstore\n      pop\n      pop\n        /* \"src/MysteryBox.sol\":2009:2308  if (randomValue < 99) {... */\n    tag_204:\n        /* \"src/MysteryBox.sol\":1840:2308  if (randomValue < 95) {... */\n    tag_200:\n        /* \"src/MysteryBox.sol\":1688:2308  if (randomValue < 75) {... */\n    tag_196:\n        /* \"src/MysteryBox.sol\":2344:2345  1 */\n      0x01\n        /* \"src/MysteryBox.sol\":2318:2328  boxesOwned */\n      0x02\n        /* \"src/MysteryBox.sol\":2318:2340  boxesOwned[msg.sender] */\n      0x00\n        /* \"src/MysteryBox.sol\":2329:2339  msg.sender */\n      caller\n        /* \"src/MysteryBox.sol\":2318:2340  boxesOwned[msg.sender] */\n      0xffffffffffffffffffffffffffffffffffffffff\n      and\n      0xffffffffffffffffffffffffffffffffffffffff\n      and\n      dup2\n      mstore\n      0x20\n      add\n      swap1\n      dup2\n      mstore\n      0x20\n      add\n      0x00\n      keccak256\n      0x00\n        /* \"src/MysteryBox.sol\":2318:2345  boxesOwned[msg.sender] -= 1 */\n      dup3\n      dup3\n      sload\n      tag_207\n      swap2\n      swap1\n      tag_208\n      jump\t// in\n    tag_207:\n      swap3\n      pop\n      pop\n      dup2\n      swap1\n      sstore\n      pop\n        /* \"src/MysteryBox.sol\":1402:2352  {... */\n      pop\n        /* \"src/MysteryBox.sol\":1376:2352  function openBox() public {... */\n      jump\t// out\n        /* \"src/MysteryBox.sol\":1039:1225  function addReward(string memory _name, uint256 _value) public {... */\n    tag_87:\n        /* \"src/MysteryBox.sol\":1134:1139  owner */\n      0x00\n      dup1\n      sload\n      swap1\n      0x0100\n      exp\n      swap1\n      div\n      0xffffffffffffffffffffffffffffffffffffffff\n      and\n        /* \"src/MysteryBox.sol\":1120:1139  msg.sender == owner */\n      0xffffffffffffffffffffffffffffffffffffffff\n      and\n        /* \"src/MysteryBox.sol\":1120:1130  msg.sender */\n      caller\n        /* \"src/MysteryBox.sol\":1120:1139  msg.sender == owner */\n      0xffffffffffffffffffffffffffffffffffffffff\n      and\n      eq\n        /* \"src/MysteryBox.sol\":1112:1170  require(msg.sender == owner, \"Only owner can add rewards\") */\n      tag_210\n      jumpi\n      mload(0x40)\n      0x08c379a000000000000000000000000000000000000000000000000000000000\n      dup2\n      mstore\n      0x04\n      add\n      tag_211\n      swap1\n      tag_212\n      jump\t// in\n    tag_211:\n      mload(0x40)\n      dup1\n      swap2\n      sub\n      swap1\n      revert\n    tag_210:\n        /* \"src/MysteryBox.sol\":1180:1190  rewardPool */\n      0x04\n        /* \"src/MysteryBox.sol\":1196:1217  Reward(_name, _value) */\n      mload(0x40)\n      dup1\n      0x40\n      add\n      0x40\n      mstore\n      dup1\n        /* \"src/MysteryBox.sol\":1203:1208  _name */\n      dup5\n        /* \"src/MysteryBox.sol\":1196:1217  Reward(_name, _value) */\n      dup2\n      mstore\n      0x20\n      add\n        /* \"src/MysteryBox.sol\":1210:1216  _value */\n      dup4\n        /* \"src/MysteryBox.sol\":1196:1217  Reward(_name, _value) */\n      dup2\n      mstore\n      pop\n        /* \"src/MysteryBox.sol\":1180:1218  rewardPool.push(Reward(_name, _value)) */\n      swap1\n      dup1\n      0x01\n      dup2\n      sload\n      add\n      dup1\n      dup3\n      sstore\n      dup1\n      swap2\n      pop\n      pop\n      0x01\n      swap1\n      sub\n      swap1\n      0x00\n      mstore\n      keccak256(0x00, 0x20)\n      swap1\n      0x02\n      mul\n      add\n      0x00\n      swap1\n      swap2\n      swap1\n      swap2\n      swap1\n      swap2\n      pop\n      0x00\n      dup3\n      add\n      mload\n      dup2\n      0x00\n      add\n      swap1\n      dup2\n      tag_214\n      swap2\n      swap1\n      tag_195\n      jump\t// in\n    tag_214:\n      pop\n      0x20\n      dup3\n      add\n      mload\n      dup2\n      0x01\n      add\n      sstore\n      pop\n      pop\n        /* \"src/MysteryBox.sol\":1039:1225  function addReward(string memory _name, uint256 _value) public {... */\n      pop\n      pop\n      jump\t// out\n        /* \"src/MysteryBox.sol\":3470:3884  function claimSingleReward(uint256 _index) public {... */\n    tag_91:\n        /* \"src/MysteryBox.sol\":3548:3560  rewardsOwned */\n      0x03\n        /* \"src/MysteryBox.sol\":3548:3572  rewardsOwned[msg.sender] */\n      0x00\n        /* \"src/MysteryBox.sol\":3561:3571  msg.sender */\n      caller\n        /* \"src/MysteryBox.sol\":3548:3572  rewardsOwned[msg.sender] */\n      0xffffffffffffffffffffffffffffffffffffffff\n      and\n      0xffffffffffffffffffffffffffffffffffffffff\n      and\n      dup2\n      mstore\n      0x20\n      add\n      swap1\n      dup2\n      mstore\n      0x20\n      add\n      0x00\n      keccak256\n        /* \"src/MysteryBox.sol\":3548:3579  rewardsOwned[msg.sender].length */\n      dup1\n      sload\n      swap1\n      pop\n        /* \"src/MysteryBox.sol\":3538:3544  _index */\n      dup2\n        /* \"src/MysteryBox.sol\":3538:3579  _index <= rewardsOwned[msg.sender].length */\n      gt\n      iszero\n        /* \"src/MysteryBox.sol\":3530:3597  require(_index <= rewardsOwned[msg.sender].length, \"Invalid index\") */\n      tag_216\n      jumpi\n      mload(0x40)\n      0x08c379a000000000000000000000000000000000000000000000000000000000\n      dup2\n      mstore\n      0x04\n      add\n      tag_217\n      swap1\n      tag_139\n      jump\t// in\n    tag_217:\n      mload(0x40)\n      dup1\n      swap2\n      sub\n      swap1\n      revert\n    tag_216:\n        /* \"src/MysteryBox.sol\":3607:3620  uint256 value */\n      0x00\n        /* \"src/MysteryBox.sol\":3623:3635  rewardsOwned */\n      0x03\n        /* \"src/MysteryBox.sol\":3623:3647  rewardsOwned[msg.sender] */\n      0x00\n        /* \"src/MysteryBox.sol\":3636:3646  msg.sender */\n      caller\n        /* \"src/MysteryBox.sol\":3623:3647  rewardsOwned[msg.sender] */\n      0xffffffffffffffffffffffffffffffffffffffff\n      and\n      0xffffffffffffffffffffffffffffffffffffffff\n      and\n      dup2\n      mstore\n      0x20\n      add\n      swap1\n      dup2\n      mstore\n      0x20\n      add\n      0x00\n      keccak256\n        /* \"src/MysteryBox.sol\":3648:3654  _index */\n      dup3\n        /* \"src/MysteryBox.sol\":3623:3655  rewardsOwned[msg.sender][_index] */\n      dup2\n      sload\n      dup2\n      lt\n      tag_218\n      jumpi\n      tag_219\n      tag_112\n      jump\t// in\n    tag_219:\n    tag_218:\n      swap1\n      0x00\n      mstore\n      keccak256(0x00, 0x20)\n      swap1\n      0x02\n      mul\n      add\n        /* \"src/MysteryBox.sol\":3623:3661  rewardsOwned[msg.sender][_index].value */\n      0x01\n      add\n      sload\n        /* \"src/MysteryBox.sol\":3607:3661  uint256 value = rewardsOwned[msg.sender][_index].value */\n      swap1\n      pop\n        /* \"src/MysteryBox.sol\":3687:3688  0 */\n      0x00\n        /* \"src/MysteryBox.sol\":3679:3684  value */\n      dup2\n        /* \"src/MysteryBox.sol\":3679:3688  value > 0 */\n      gt\n        /* \"src/MysteryBox.sol\":3671:3711  require(value > 0, \"No reward to claim\") */\n      tag_221\n      jumpi\n      mload(0x40)\n      0x08c379a000000000000000000000000000000000000000000000000000000000\n      dup2\n      mstore\n      0x04\n      add\n      tag_222\n      swap1\n      tag_223\n      jump\t// in\n    tag_222:\n      mload(0x40)\n      dup1\n      swap2\n      sub\n      swap1\n      revert\n    tag_221:\n        /* \"src/MysteryBox.sol\":3723:3735  bool success */\n      0x00\n        /* \"src/MysteryBox.sol\":3748:3758  msg.sender */\n      caller\n        /* \"src/MysteryBox.sol\":3740:3764  payable(msg.sender).call */\n      0xffffffffffffffffffffffffffffffffffffffff\n      and\n        /* \"src/MysteryBox.sol\":3772:3777  value */\n      dup3\n        /* \"src/MysteryBox.sol\":3740:3782  payable(msg.sender).call{value: value}(\"\") */\n      mload(0x40)\n      tag_224\n      swap1\n      tag_120\n      jump\t// in\n    tag_224:\n      0x00\n      mload(0x40)\n      dup1\n      dup4\n      sub\n      dup2\n      dup6\n      dup8\n      gas\n      call\n      swap3\n      pop\n      pop\n      pop\n      returndatasize\n      dup1\n      0x00\n      dup2\n      eq\n      tag_227\n      jumpi\n      mload(0x40)\n      swap2\n      pop\n      and(add(returndatasize, 0x3f), not(0x1f))\n      dup3\n      add\n      0x40\n      mstore\n      returndatasize\n      dup3\n      mstore\n      returndatasize\n      0x00\n      0x20\n      dup5\n      add\n      returndatacopy\n      jump(tag_226)\n    tag_227:\n      0x60\n      swap2\n      pop\n    tag_226:\n      pop\n        /* \"src/MysteryBox.sol\":3722:3782  (bool success,) = payable(msg.sender).call{value: value}(\"\") */\n      pop\n      swap1\n      pop\n        /* \"src/MysteryBox.sol\":3800:3807  success */\n      dup1\n        /* \"src/MysteryBox.sol\":3792:3827  require(success, \"Transfer failed\") */\n      tag_228\n      jumpi\n      mload(0x40)\n      0x08c379a000000000000000000000000000000000000000000000000000000000\n      dup2\n      mstore\n      0x04\n      add\n      tag_229\n      swap1\n      tag_170\n      jump\t// in\n    tag_229:\n      mload(0x40)\n      dup1\n      swap2\n      sub\n      swap1\n      revert\n    tag_228:\n        /* \"src/MysteryBox.sol\":3845:3857  rewardsOwned */\n      0x03\n        /* \"src/MysteryBox.sol\":3845:3869  rewardsOwned[msg.sender] */\n      0x00\n        /* \"src/MysteryBox.sol\":3858:3868  msg.sender */\n      caller\n        /* \"src/MysteryBox.sol\":3845:3869  rewardsOwned[msg.sender] */\n      0xffffffffffffffffffffffffffffffffffffffff\n      and\n      0xffffffffffffffffffffffffffffffffffffffff\n      and\n      dup2\n      mstore\n      0x20\n      add\n      swap1\n      dup2\n      mstore\n      0x20\n      add\n      0x00\n      keccak256\n        /* \"src/MysteryBox.sol\":3870:3876  _index */\n      dup4\n        /* \"src/MysteryBox.sol\":3845:3877  rewardsOwned[msg.sender][_index] */\n      dup2\n      sload\n      dup2\n      lt\n      tag_230\n      jumpi\n      tag_231\n      tag_112\n      jump\t// in\n    tag_231:\n    tag_230:\n      swap1\n      0x00\n      mstore\n      keccak256(0x00, 0x20)\n      swap1\n      0x02\n      mul\n      add\n      0x00\n        /* \"src/MysteryBox.sol\":3838:3877  delete rewardsOwned[msg.sender][_index] */\n      dup1\n      dup3\n      add\n      0x00\n      tag_233\n      swap2\n      swap1\n      tag_150\n      jump\t// in\n    tag_233:\n      0x01\n      dup3\n      add\n      0x00\n      swap1\n      sstore\n      pop\n      pop\n        /* \"src/MysteryBox.sol\":3520:3884  {... */\n      pop\n      pop\n        /* \"src/MysteryBox.sol\":3470:3884  function claimSingleReward(uint256 _index) public {... */\n      pop\n      jump\t// out\n        /* \"src/MysteryBox.sol\":889:1033  function setBoxPrice(uint256 _price) public {... */\n    tag_95:\n        /* \"src/MysteryBox.sol\":965:970  owner */\n      0x00\n      dup1\n      sload\n      swap1\n      0x0100\n      exp\n      swap1\n      div\n      0xffffffffffffffffffffffffffffffffffffffff\n      and\n        /* \"src/MysteryBox.sol\":951:970  msg.sender == owner */\n      0xffffffffffffffffffffffffffffffffffffffff\n      and\n        /* \"src/MysteryBox.sol\":951:961  msg.sender */\n      caller\n        /* \"src/MysteryBox.sol\":951:970  msg.sender == owner */\n      0xffffffffffffffffffffffffffffffffffffffff\n      and\n      eq\n        /* \"src/MysteryBox.sol\":943:999  require(msg.sender == owner, \"Only owner can set price\") */\n      tag_235\n      jumpi\n      mload(0x40)\n      0x08c379a000000000000000000000000000000000000000000000000000000000\n      dup2\n      mstore\n      0x04\n      add\n      tag_236\n      swap1\n      tag_237\n      jump\t// in\n    tag_236:\n      mload(0x40)\n      dup1\n      swap2\n      sub\n      swap1\n      revert\n    tag_235:\n        /* \"src/MysteryBox.sol\":1020:1026  _price */\n      dup1\n        /* \"src/MysteryBox.sol\":1009:1017  boxPrice */\n      0x01\n        /* \"src/MysteryBox.sol\":1009:1026  boxPrice = _price */\n      dup2\n      swap1\n      sstore\n      pop\n        /* \"src/MysteryBox.sol\":889:1033  function setBoxPrice(uint256 _price) public {... */\n      pop\n      jump\t// out\n    tag_128:\n      pop\n      dup1\n      sload\n      0x00\n      dup3\n      sstore\n      0x02\n      mul\n      swap1\n      0x00\n      mstore\n      keccak256(0x00, 0x20)\n      swap1\n      dup2\n      add\n      swap1\n      tag_239\n      swap2\n      swap1\n      tag_240\n      jump\t// in\n    tag_239:\n      pop\n      jump\t// out\n    tag_150:\n      pop\n      dup1\n      sload\n      tag_241\n      swap1\n      tag_101\n      jump\t// in\n    tag_241:\n      0x00\n      dup3\n      sstore\n      dup1\n      0x1f\n      lt\n      tag_243\n      jumpi\n      pop\n      jump(tag_242)\n    tag_243:\n      0x1f\n      add\n      0x20\n      swap1\n      div\n      swap1\n      0x00\n      mstore\n      keccak256(0x00, 0x20)\n      swap1\n      dup2\n      add\n      swap1\n      tag_244\n      swap2\n      swap1\n      tag_245\n      jump\t// in\n    tag_244:\n    tag_242:\n      pop\n      jump\t// out\n    tag_240:\n    tag_246:\n      dup1\n      dup3\n      gt\n      iszero\n      tag_247\n      jumpi\n      0x00\n      dup1\n      dup3\n      add\n      0x00\n      tag_248\n      swap2\n      swap1\n      tag_150\n      jump\t// in\n    tag_248:\n      0x01\n      dup3\n      add\n      0x00\n      swap1\n      sstore\n      pop\n      0x02\n      add\n      jump(tag_246)\n    tag_247:\n      pop\n      swap1\n      jump\t// out\n    tag_245:\n    tag_249:\n      dup1\n      dup3\n      gt\n      iszero\n      tag_250\n      jumpi\n      0x00\n      dup2\n      0x00\n      swap1\n      sstore\n      pop\n      0x01\n      add\n      jump(tag_249)\n    tag_250:\n      pop\n      swap1\n      jump\t// out\n        /* \"#utility.yul\":7:143   */\n    tag_251:\n        /* \"#utility.yul\":96:102   */\n      0x00\n        /* \"#utility.yul\":130:135   */\n      dup2\n        /* \"#utility.yul\":124:136   */\n      mload\n        /* \"#utility.yul\":114:136   */\n      swap1\n      pop\n        /* \"#utility.yul\":7:143   */\n      swap2\n      swap1\n      pop\n      jump\t// out\n        /* \"#utility.yul\":149:355   */\n    tag_252:\n        /* \"#utility.yul\":270:281   */\n      0x00\n        /* \"#utility.yul\":304:310   */\n      dup3\n        /* \"#utility.yul\":299:302   */\n      dup3\n        /* \"#utility.yul\":292:311   */\n      mstore\n        /* \"#utility.yul\":344:348   */\n      0x20\n        /* \"#utility.yul\":339:342   */\n      dup3\n        /* \"#utility.yul\":335:349   */\n      add\n        /* \"#utility.yul\":320:349   */\n      swap1\n      pop\n        /* \"#utility.yul\":149:355   */\n      swap3\n      swap2\n      pop\n      pop\n      jump\t// out\n        /* \"#utility.yul\":361:515   */\n    tag_253:\n        /* \"#utility.yul\":450:454   */\n      0x00\n        /* \"#utility.yul\":473:476   */\n      dup2\n        /* \"#utility.yul\":465:476   */\n      swap1\n      pop\n        /* \"#utility.yul\":503:507   */\n      0x20\n        /* \"#utility.yul\":498:501   */\n      dup3\n        /* \"#utility.yul\":494:508   */\n      add\n        /* \"#utility.yul\":486:508   */\n      swap1\n      pop\n        /* \"#utility.yul\":361:515   */\n      swap2\n      swap1\n      pop\n      jump\t// out\n        /* \"#utility.yul\":521:620   */\n    tag_254:\n        /* \"#utility.yul\":573:579   */\n      0x00\n        /* \"#utility.yul\":607:612   */\n      dup2\n        /* \"#utility.yul\":601:613   */\n      mload\n        /* \"#utility.yul\":591:613   */\n      swap1\n      pop\n        /* \"#utility.yul\":521:620   */\n      swap2\n      swap1\n      pop\n      jump\t// out\n        /* \"#utility.yul\":626:785   */\n    tag_255:\n        /* \"#utility.yul\":700:711   */\n      0x00\n        /* \"#utility.yul\":734:740   */\n      dup3\n        /* \"#utility.yul\":729:732   */\n      dup3\n        /* \"#utility.yul\":722:741   */\n      mstore\n        /* \"#utility.yul\":774:778   */\n      0x20\n        /* \"#utility.yul\":769:772   */\n      dup3\n        /* \"#utility.yul\":765:779   */\n      add\n        /* \"#utility.yul\":750:779   */\n      swap1\n      pop\n        /* \"#utility.yul\":626:785   */\n      swap3\n      swap2\n      pop\n      pop\n      jump\t// out\n        /* \"#utility.yul\":791:930   */\n    tag_256:\n        /* \"#utility.yul\":880:886   */\n      dup3\n        /* \"#utility.yul\":875:878   */\n      dup2\n        /* \"#utility.yul\":870:873   */\n      dup4\n        /* \"#utility.yul\":864:887   */\n      mcopy\n        /* \"#utility.yul\":921:922   */\n      0x00\n        /* \"#utility.yul\":912:918   */\n      dup4\n        /* \"#utility.yul\":907:910   */\n      dup4\n        /* \"#utility.yul\":903:919   */\n      add\n        /* \"#utility.yul\":896:923   */\n      mstore\n        /* \"#utility.yul\":791:930   */\n      pop\n      pop\n      pop\n      jump\t// out\n        /* \"#utility.yul\":936:1038   */\n    tag_257:\n        /* \"#utility.yul\":977:983   */\n      0x00\n        /* \"#utility.yul\":1028:1030   */\n      0x1f\n        /* \"#utility.yul\":1024:1031   */\n      not\n        /* \"#utility.yul\":1019:1021   */\n      0x1f\n        /* \"#utility.yul\":1012:1017   */\n      dup4\n        /* \"#utility.yul\":1008:1022   */\n      add\n        /* \"#utility.yul\":1004:1032   */\n      and\n        /* \"#utility.yul\":994:1032   */\n      swap1\n      pop\n        /* \"#utility.yul\":936:1038   */\n      swap2\n      swap1\n      pop\n      jump\t// out\n        /* \"#utility.yul\":1044:1401   */\n    tag_258:\n        /* \"#utility.yul\":1122:1125   */\n      0x00\n        /* \"#utility.yul\":1150:1189   */\n      tag_344\n        /* \"#utility.yul\":1183:1188   */\n      dup3\n        /* \"#utility.yul\":1150:1189   */\n      tag_254\n      jump\t// in\n    tag_344:\n        /* \"#utility.yul\":1205:1266   */\n      tag_345\n        /* \"#utility.yul\":1259:1265   */\n      dup2\n        /* \"#utility.yul\":1254:1257   */\n      dup6\n        /* \"#utility.yul\":1205:1266   */\n      tag_255\n      jump\t// in\n    tag_345:\n        /* \"#utility.yul\":1198:1266   */\n      swap4\n      pop\n        /* \"#utility.yul\":1275:1340   */\n      tag_346\n        /* \"#utility.yul\":1333:1339   */\n      dup2\n        /* \"#utility.yul\":1328:1331   */\n      dup6\n        /* \"#utility.yul\":1321:1325   */\n      0x20\n        /* \"#utility.yul\":1314:1319   */\n      dup7\n        /* \"#utility.yul\":1310:1326   */\n      add\n        /* \"#utility.yul\":1275:1340   */\n      tag_256\n      jump\t// in\n    tag_346:\n        /* \"#utility.yul\":1365:1394   */\n      tag_347\n        /* \"#utility.yul\":1387:1393   */\n      dup2\n        /* \"#utility.yul\":1365:1394   */\n      tag_257\n      jump\t// in\n    tag_347:\n        /* \"#utility.yul\":1360:1363   */\n      dup5\n        /* \"#utility.yul\":1356:1395   */\n      add\n        /* \"#utility.yul\":1349:1395   */\n      swap2\n      pop\n        /* \"#utility.yul\":1126:1401   */\n      pop\n        /* \"#utility.yul\":1044:1401   */\n      swap3\n      swap2\n      pop\n      pop\n      jump\t// out\n        /* \"#utility.yul\":1407:1484   */\n    tag_259:\n        /* \"#utility.yul\":1444:1451   */\n      0x00\n        /* \"#utility.yul\":1473:1478   */\n      dup2\n        /* \"#utility.yul\":1462:1478   */\n      swap1\n      pop\n        /* \"#utility.yul\":1407:1484   */\n      swap2\n      swap1\n      pop\n      jump\t// out\n        /* \"#utility.yul\":1490:1598   */\n    tag_260:\n        /* \"#utility.yul\":1567:1591   */\n      tag_350\n        /* \"#utility.yul\":1585:1590   */\n      dup2\n        /* \"#utility.yul\":1567:1591   */\n      tag_259\n      jump\t// in\n    tag_350:\n        /* \"#utility.yul\":1562:1565   */\n      dup3\n        /* \"#utility.yul\":1555:1592   */\n      mstore\n        /* \"#utility.yul\":1490:1598   */\n      pop\n      pop\n      jump\t// out\n        /* \"#utility.yul\":1664:2255   */\n    tag_261:\n        /* \"#utility.yul\":1767:1770   */\n      0x00\n        /* \"#utility.yul\":1803:1807   */\n      0x40\n        /* \"#utility.yul\":1798:1801   */\n      dup4\n        /* \"#utility.yul\":1794:1808   */\n      add\n        /* \"#utility.yul\":1890:1894   */\n      0x00\n        /* \"#utility.yul\":1883:1888   */\n      dup4\n        /* \"#utility.yul\":1879:1895   */\n      add\n        /* \"#utility.yul\":1873:1896   */\n      mload\n        /* \"#utility.yul\":1943:1946   */\n      dup5\n        /* \"#utility.yul\":1937:1941   */\n      dup3\n        /* \"#utility.yul\":1933:1947   */\n      sub\n        /* \"#utility.yul\":1926:1930   */\n      0x00\n        /* \"#utility.yul\":1921:1924   */\n      dup7\n        /* \"#utility.yul\":1917:1931   */\n      add\n        /* \"#utility.yul\":1910:1948   */\n      mstore\n        /* \"#utility.yul\":1969:2042   */\n      tag_352\n        /* \"#utility.yul\":2037:2041   */\n      dup3\n        /* \"#utility.yul\":2023:2035   */\n      dup3\n        /* \"#utility.yul\":1969:2042   */\n      tag_258\n      jump\t// in\n    tag_352:\n        /* \"#utility.yul\":1961:2042   */\n      swap2\n      pop\n        /* \"#utility.yul\":1818:2053   */\n      pop\n        /* \"#utility.yul\":2136:2140   */\n      0x20\n        /* \"#utility.yul\":2129:2134   */\n      dup4\n        /* \"#utility.yul\":2125:2141   */\n      add\n        /* \"#utility.yul\":2119:2142   */\n      mload\n        /* \"#utility.yul\":2155:2218   */\n      tag_353\n        /* \"#utility.yul\":2212:2216   */\n      0x20\n        /* \"#utility.yul\":2207:2210   */\n      dup7\n        /* \"#utility.yul\":2203:2217   */\n      add\n        /* \"#utility.yul\":2189:2201   */\n      dup3\n        /* \"#utility.yul\":2155:2218   */\n      tag_260\n      jump\t// in\n    tag_353:\n        /* \"#utility.yul\":2063:2228   */\n      pop\n        /* \"#utility.yul\":2245:2249   */\n      dup1\n        /* \"#utility.yul\":2238:2249   */\n      swap2\n      pop\n        /* \"#utility.yul\":1772:2255   */\n      pop\n        /* \"#utility.yul\":1664:2255   */\n      swap3\n      swap2\n      pop\n      pop\n      jump\t// out\n        /* \"#utility.yul\":2261:2505   */\n    tag_262:\n        /* \"#utility.yul\":2374:2384   */\n      0x00\n        /* \"#utility.yul\":2409:2499   */\n      tag_355\n        /* \"#utility.yul\":2495:2498   */\n      dup4\n        /* \"#utility.yul\":2487:2493   */\n      dup4\n        /* \"#utility.yul\":2409:2499   */\n      tag_261\n      jump\t// in\n    tag_355:\n        /* \"#utility.yul\":2395:2499   */\n      swap1\n      pop\n        /* \"#utility.yul\":2261:2505   */\n      swap3\n      swap2\n      pop\n      pop\n      jump\t// out\n        /* \"#utility.yul\":2511:2646   */\n    tag_263:\n        /* \"#utility.yul\":2603:2607   */\n      0x00\n        /* \"#utility.yul\":2635:2639   */\n      0x20\n        /* \"#utility.yul\":2630:2633   */\n      dup3\n        /* \"#utility.yul\":2626:2640   */\n      add\n        /* \"#utility.yul\":2618:2640   */\n      swap1\n      pop\n        /* \"#utility.yul\":2511:2646   */\n      swap2\n      swap1\n      pop\n      jump\t// out\n        /* \"#utility.yul\":2716:3803   */\n    tag_264:\n        /* \"#utility.yul\":2879:2882   */\n      0x00\n        /* \"#utility.yul\":2908:2984   */\n      tag_358\n        /* \"#utility.yul\":2978:2983   */\n      dup3\n        /* \"#utility.yul\":2908:2984   */\n      tag_251\n      jump\t// in\n    tag_358:\n        /* \"#utility.yul\":3000:3108   */\n      tag_359\n        /* \"#utility.yul\":3101:3107   */\n      dup2\n        /* \"#utility.yul\":3096:3099   */\n      dup6\n        /* \"#utility.yul\":3000:3108   */\n      tag_252\n      jump\t// in\n    tag_359:\n        /* \"#utility.yul\":2993:3108   */\n      swap4\n      pop\n        /* \"#utility.yul\":3134:3137   */\n      dup4\n        /* \"#utility.yul\":3179:3183   */\n      0x20\n        /* \"#utility.yul\":3171:3177   */\n      dup3\n        /* \"#utility.yul\":3167:3184   */\n      mul\n        /* \"#utility.yul\":3162:3165   */\n      dup6\n        /* \"#utility.yul\":3158:3185   */\n      add\n        /* \"#utility.yul\":3209:3287   */\n      tag_360\n        /* \"#utility.yul\":3281:3286   */\n      dup6\n        /* \"#utility.yul\":3209:3287   */\n      tag_253\n      jump\t// in\n    tag_360:\n        /* \"#utility.yul\":3310:3317   */\n      dup1\n        /* \"#utility.yul\":3341:3342   */\n      0x00\n        /* \"#utility.yul\":3326:3758   */\n    tag_361:\n        /* \"#utility.yul\":3351:3357   */\n      dup6\n        /* \"#utility.yul\":3348:3349   */\n      dup2\n        /* \"#utility.yul\":3345:3358   */\n      lt\n        /* \"#utility.yul\":3326:3758   */\n      iszero\n      tag_363\n      jumpi\n        /* \"#utility.yul\":3422:3431   */\n      dup5\n        /* \"#utility.yul\":3416:3420   */\n      dup5\n        /* \"#utility.yul\":3412:3432   */\n      sub\n        /* \"#utility.yul\":3407:3410   */\n      dup10\n        /* \"#utility.yul\":3400:3433   */\n      mstore\n        /* \"#utility.yul\":3473:3479   */\n      dup2\n        /* \"#utility.yul\":3467:3480   */\n      mload\n        /* \"#utility.yul\":3501:3609   */\n      tag_364\n        /* \"#utility.yul\":3604:3608   */\n      dup6\n        /* \"#utility.yul\":3589:3602   */\n      dup3\n        /* \"#utility.yul\":3501:3609   */\n      tag_262\n      jump\t// in\n    tag_364:\n        /* \"#utility.yul\":3493:3609   */\n      swap5\n      pop\n        /* \"#utility.yul\":3632:3714   */\n      tag_365\n        /* \"#utility.yul\":3707:3713   */\n      dup4\n        /* \"#utility.yul\":3632:3714   */\n      tag_263\n      jump\t// in\n    tag_365:\n        /* \"#utility.yul\":3622:3714   */\n      swap3\n      pop\n        /* \"#utility.yul\":3743:3747   */\n      0x20\n        /* \"#utility.yul\":3738:3741   */\n      dup11\n        /* \"#utility.yul\":3734:3748   */\n      add\n        /* \"#utility.yul\":3727:3748   */\n      swap10\n      pop\n        /* \"#utility.yul\":3386:3758   */\n      pop\n        /* \"#utility.yul\":3373:3374   */\n      0x01\n        /* \"#utility.yul\":3370:3371   */\n      dup2\n        /* \"#utility.yul\":3366:3375   */\n      add\n        /* \"#utility.yul\":3361:3375   */\n      swap1\n      pop\n        /* \"#utility.yul\":3326:3758   */\n      jump(tag_361)\n    tag_363:\n        /* \"#utility.yul\":3330:3344   */\n      pop\n        /* \"#utility.yul\":3774:3778   */\n      dup3\n        /* \"#utility.yul\":3767:3778   */\n      swap8\n      pop\n        /* \"#utility.yul\":3794:3797   */\n      dup8\n        /* \"#utility.yul\":3787:3797   */\n      swap6\n      pop\n        /* \"#utility.yul\":2884:3803   */\n      pop\n      pop\n      pop\n      pop\n      pop\n        /* \"#utility.yul\":2716:3803   */\n      swap3\n      swap2\n      pop\n      pop\n      jump\t// out\n        /* \"#utility.yul\":3809:4270   */\n    tag_26:\n        /* \"#utility.yul\":3996:4000   */\n      0x00\n        /* \"#utility.yul\":4034:4036   */\n      0x20\n        /* \"#utility.yul\":4023:4032   */\n      dup3\n        /* \"#utility.yul\":4019:4037   */\n      add\n        /* \"#utility.yul\":4011:4037   */\n      swap1\n      pop\n        /* \"#utility.yul\":4083:4092   */\n      dup2\n        /* \"#utility.yul\":4077:4081   */\n      dup2\n        /* \"#utility.yul\":4073:4093   */\n      sub\n        /* \"#utility.yul\":4069:4070   */\n      0x00\n        /* \"#utility.yul\":4058:4067   */\n      dup4\n        /* \"#utility.yul\":4054:4071   */\n      add\n        /* \"#utility.yul\":4047:4094   */\n      mstore\n        /* \"#utility.yul\":4111:4263   */\n      tag_367\n        /* \"#utility.yul\":4258:4262   */\n      dup2\n        /* \"#utility.yul\":4249:4255   */\n      dup5\n        /* \"#utility.yul\":4111:4263   */\n      tag_264\n      jump\t// in\n    tag_367:\n        /* \"#utility.yul\":4103:4263   */\n      swap1\n      pop\n        /* \"#utility.yul\":3809:4270   */\n      swap3\n      swap2\n      pop\n      pop\n      jump\t// out\n        /* \"#utility.yul\":4276:4351   */\n    tag_265:\n        /* \"#utility.yul\":4309:4315   */\n      0x00\n        /* \"#utility.yul\":4342:4344   */\n      0x40\n        /* \"#utility.yul\":4336:4345   */\n      mload\n        /* \"#utility.yul\":4326:4345   */\n      swap1\n      pop\n        /* \"#utility.yul\":4276:4351   */\n      swap1\n      jump\t// out\n        /* \"#utility.yul\":4357:4474   */\n    tag_266:\n        /* \"#utility.yul\":4466:4467   */\n      0x00\n        /* \"#utility.yul\":4463:4464   */\n      dup1\n        /* \"#utility.yul\":4456:4468   */\n      revert\n        /* \"#utility.yul\":4480:4597   */\n    tag_267:\n        /* \"#utility.yul\":4589:4590   */\n      0x00\n        /* \"#utility.yul\":4586:4587   */\n      dup1\n        /* \"#utility.yul\":4579:4591   */\n      revert\n        /* \"#utility.yul\":4603:4729   */\n    tag_268:\n        /* \"#utility.yul\":4640:4647   */\n      0x00\n        /* \"#utility.yul\":4680:4722   */\n      0xffffffffffffffffffffffffffffffffffffffff\n        /* \"#utility.yul\":4673:4678   */\n      dup3\n        /* \"#utility.yul\":4669:4723   */\n      and\n        /* \"#utility.yul\":4658:4723   */\n      swap1\n      pop\n        /* \"#utility.yul\":4603:4729   */\n      swap2\n      swap1\n      pop\n      jump\t// out\n        /* \"#utility.yul\":4735:4831   */\n    tag_269:\n        /* \"#utility.yul\":4772:4779   */\n      0x00\n        /* \"#utility.yul\":4801:4825   */\n      tag_373\n        /* \"#utility.yul\":4819:4824   */\n      dup3\n        /* \"#utility.yul\":4801:4825   */\n      tag_268\n      jump\t// in\n    tag_373:\n        /* \"#utility.yul\":4790:4825   */\n      swap1\n      pop\n        /* \"#utility.yul\":4735:4831   */\n      swap2\n      swap1\n      pop\n      jump\t// out\n        /* \"#utility.yul\":4837:4959   */\n    tag_270:\n        /* \"#utility.yul\":4910:4934   */\n      tag_375\n        /* \"#utility.yul\":4928:4933   */\n      dup2\n        /* \"#utility.yul\":4910:4934   */\n      tag_269\n      jump\t// in\n    tag_375:\n        /* \"#utility.yul\":4903:4908   */\n      dup2\n        /* \"#utility.yul\":4900:4935   */\n      eq\n        /* \"#utility.yul\":4890:4953   */\n      tag_376\n      jumpi\n        /* \"#utility.yul\":4949:4950   */\n      0x00\n        /* \"#utility.yul\":4946:4947   */\n      dup1\n        /* \"#utility.yul\":4939:4951   */\n      revert\n        /* \"#utility.yul\":4890:4953   */\n    tag_376:\n        /* \"#utility.yul\":4837:4959   */\n      pop\n      jump\t// out\n        /* \"#utility.yul\":4965:5104   */\n    tag_271:\n        /* \"#utility.yul\":5011:5016   */\n      0x00\n        /* \"#utility.yul\":5049:5055   */\n      dup2\n        /* \"#utility.yul\":5036:5056   */\n      calldataload\n        /* \"#utility.yul\":5027:5056   */\n      swap1\n      pop\n        /* \"#utility.yul\":5065:5098   */\n      tag_378\n        /* \"#utility.yul\":5092:5097   */\n      dup2\n        /* \"#utility.yul\":5065:5098   */\n      tag_270\n      jump\t// in\n    tag_378:\n        /* \"#utility.yul\":4965:5104   */\n      swap3\n      swap2\n      pop\n      pop\n      jump\t// out\n        /* \"#utility.yul\":5110:5232   */\n    tag_272:\n        /* \"#utility.yul\":5183:5207   */\n      tag_380\n        /* \"#utility.yul\":5201:5206   */\n      dup2\n        /* \"#utility.yul\":5183:5207   */\n      tag_259\n      jump\t// in\n    tag_380:\n        /* \"#utility.yul\":5176:5181   */\n      dup2\n        /* \"#utility.yul\":5173:5208   */\n      eq\n        /* \"#utility.yul\":5163:5226   */\n      tag_381\n      jumpi\n        /* \"#utility.yul\":5222:5223   */\n      0x00\n        /* \"#utility.yul\":5219:5220   */\n      dup1\n        /* \"#utility.yul\":5212:5224   */\n      revert\n        /* \"#utility.yul\":5163:5226   */\n    tag_381:\n        /* \"#utility.yul\":5110:5232   */\n      pop\n      jump\t// out\n        /* \"#utility.yul\":5238:5377   */\n    tag_273:\n        /* \"#utility.yul\":5284:5289   */\n      0x00\n        /* \"#utility.yul\":5322:5328   */\n      dup2\n        /* \"#utility.yul\":5309:5329   */\n      calldataload\n        /* \"#utility.yul\":5300:5329   */\n      swap1\n      pop\n        /* \"#utility.yul\":5338:5371   */\n      tag_383\n        /* \"#utility.yul\":5365:5370   */\n      dup2\n        /* \"#utility.yul\":5338:5371   */\n      tag_272\n      jump\t// in\n    tag_383:\n        /* \"#utility.yul\":5238:5377   */\n      swap3\n      swap2\n      pop\n      pop\n      jump\t// out\n        /* \"#utility.yul\":5383:5857   */\n    tag_33:\n        /* \"#utility.yul\":5451:5457   */\n      0x00\n        /* \"#utility.yul\":5459:5465   */\n      dup1\n        /* \"#utility.yul\":5508:5510   */\n      0x40\n        /* \"#utility.yul\":5496:5505   */\n      dup4\n        /* \"#utility.yul\":5487:5494   */\n      dup6\n        /* \"#utility.yul\":5483:5506   */\n      sub\n        /* \"#utility.yul\":5479:5511   */\n      slt\n        /* \"#utility.yul\":5476:5595   */\n      iszero\n      tag_385\n      jumpi\n        /* \"#utility.yul\":5514:5593   */\n      tag_386\n      tag_266\n      jump\t// in\n    tag_386:\n        /* \"#utility.yul\":5476:5595   */\n    tag_385:\n        /* \"#utility.yul\":5634:5635   */\n      0x00\n        /* \"#utility.yul\":5659:5712   */\n      tag_387\n        /* \"#utility.yul\":5704:5711   */\n      dup6\n        /* \"#utility.yul\":5695:5701   */\n      dup3\n        /* \"#utility.yul\":5684:5693   */\n      dup7\n        /* \"#utility.yul\":5680:5702   */\n      add\n        /* \"#utility.yul\":5659:5712   */\n      tag_271\n      jump\t// in\n    tag_387:\n        /* \"#utility.yul\":5649:5712   */\n      swap3\n      pop\n        /* \"#utility.yul\":5605:5722   */\n      pop\n        /* \"#utility.yul\":5761:5763   */\n      0x20\n        /* \"#utility.yul\":5787:5840   */\n      tag_388\n        /* \"#utility.yul\":5832:5839   */\n      dup6\n        /* \"#utility.yul\":5823:5829   */\n      dup3\n        /* \"#utility.yul\":5812:5821   */\n      dup7\n        /* \"#utility.yul\":5808:5830   */\n      add\n        /* \"#utility.yul\":5787:5840   */\n      tag_273\n      jump\t// in\n    tag_388:\n        /* \"#utility.yul\":5777:5840   */\n      swap2\n      pop\n        /* \"#utility.yul\":5732:5850   */\n      pop\n        /* \"#utility.yul\":5383:5857   */\n      swap3\n      pop\n      swap3\n      swap1\n      pop\n      jump\t// out\n        /* \"#utility.yul\":5863:6032   */\n    tag_274:\n        /* \"#utility.yul\":5947:5958   */\n      0x00\n        /* \"#utility.yul\":5981:5987   */\n      dup3\n        /* \"#utility.yul\":5976:5979   */\n      dup3\n        /* \"#utility.yul\":5969:5988   */\n      mstore\n        /* \"#utility.yul\":6021:6025   */\n      0x20\n        /* \"#utility.yul\":6016:6019   */\n      dup3\n        /* \"#utility.yul\":6012:6026   */\n      add\n        /* \"#utility.yul\":5997:6026   */\n      swap1\n      pop\n        /* \"#utility.yul\":5863:6032   */\n      swap3\n      swap2\n      pop\n      pop\n      jump\t// out\n        /* \"#utility.yul\":6038:6415   */\n    tag_275:\n        /* \"#utility.yul\":6126:6129   */\n      0x00\n        /* \"#utility.yul\":6154:6193   */\n      tag_391\n        /* \"#utility.yul\":6187:6192   */\n      dup3\n        /* \"#utility.yul\":6154:6193   */\n      tag_254\n      jump\t// in\n    tag_391:\n        /* \"#utility.yul\":6209:6280   */\n      tag_392\n        /* \"#utility.yul\":6273:6279   */\n      dup2\n        /* \"#utility.yul\":6268:6271   */\n      dup6\n        /* \"#utility.yul\":6209:6280   */\n      tag_274\n      jump\t// in\n    tag_392:\n        /* \"#utility.yul\":6202:6280   */\n      swap4\n      pop\n        /* \"#utility.yul\":6289:6354   */\n      tag_393\n        /* \"#utility.yul\":6347:6353   */\n      dup2\n        /* \"#utility.yul\":6342:6345   */\n      dup6\n        /* \"#utility.yul\":6335:6339   */\n      0x20\n        /* \"#utility.yul\":6328:6333   */\n      dup7\n        /* \"#utility.yul\":6324:6340   */\n      add\n        /* \"#utility.yul\":6289:6354   */\n      tag_256\n      jump\t// in\n    tag_393:\n        /* \"#utility.yul\":6379:6408   */\n      tag_394\n        /* \"#utility.yul\":6401:6407   */\n      dup2\n        /* \"#utility.yul\":6379:6408   */\n      tag_257\n      jump\t// in\n    tag_394:\n        /* \"#utility.yul\":6374:6377   */\n      dup5\n        /* \"#utility.yul\":6370:6409   */\n      add\n        /* \"#utility.yul\":6363:6409   */\n      swap2\n      pop\n        /* \"#utility.yul\":6130:6415   */\n      pop\n        /* \"#utility.yul\":6038:6415   */\n      swap3\n      swap2\n      pop\n      pop\n      jump\t// out\n        /* \"#utility.yul\":6421:6539   */\n    tag_276:\n        /* \"#utility.yul\":6508:6532   */\n      tag_396\n        /* \"#utility.yul\":6526:6531   */\n      dup2\n        /* \"#utility.yul\":6508:6532   */\n      tag_259\n      jump\t// in\n    tag_396:\n        /* \"#utility.yul\":6503:6506   */\n      dup3\n        /* \"#utility.yul\":6496:6533   */\n      mstore\n        /* \"#utility.yul\":6421:6539   */\n      pop\n      pop\n      jump\t// out\n        /* \"#utility.yul\":6545:6968   */\n    tag_36:\n        /* \"#utility.yul\":6686:6690   */\n      0x00\n        /* \"#utility.yul\":6724:6726   */\n      0x40\n        /* \"#utility.yul\":6713:6722   */\n      dup3\n        /* \"#utility.yul\":6709:6727   */\n      add\n        /* \"#utility.yul\":6701:6727   */\n      swap1\n      pop\n        /* \"#utility.yul\":6773:6782   */\n      dup2\n        /* \"#utility.yul\":6767:6771   */\n      dup2\n        /* \"#utility.yul\":6763:6783   */\n      sub\n        /* \"#utility.yul\":6759:6760   */\n      0x00\n        /* \"#utility.yul\":6748:6757   */\n      dup4\n        /* \"#utility.yul\":6744:6761   */\n      add\n        /* \"#utility.yul\":6737:6784   */\n      mstore\n        /* \"#utility.yul\":6801:6879   */\n      tag_398\n        /* \"#utility.yul\":6874:6878   */\n      dup2\n        /* \"#utility.yul\":6865:6871   */\n      dup6\n        /* \"#utility.yul\":6801:6879   */\n      tag_275\n      jump\t// in\n    tag_398:\n        /* \"#utility.yul\":6793:6879   */\n      swap1\n      pop\n        /* \"#utility.yul\":6889:6961   */\n      tag_399\n        /* \"#utility.yul\":6957:6959   */\n      0x20\n        /* \"#utility.yul\":6946:6955   */\n      dup4\n        /* \"#utility.yul\":6942:6960   */\n      add\n        /* \"#utility.yul\":6933:6939   */\n      dup5\n        /* \"#utility.yul\":6889:6961   */\n      tag_276\n      jump\t// in\n    tag_399:\n        /* \"#utility.yul\":6545:6968   */\n      swap4\n      swap3\n      pop\n      pop\n      pop\n      jump\t// out\n        /* \"#utility.yul\":6974:7303   */\n    tag_53:\n        /* \"#utility.yul\":7033:7039   */\n      0x00\n        /* \"#utility.yul\":7082:7084   */\n      0x20\n        /* \"#utility.yul\":7070:7079   */\n      dup3\n        /* \"#utility.yul\":7061:7068   */\n      dup5\n        /* \"#utility.yul\":7057:7080   */\n      sub\n        /* \"#utility.yul\":7053:7085   */\n      slt\n        /* \"#utility.yul\":7050:7169   */\n      iszero\n      tag_401\n      jumpi\n        /* \"#utility.yul\":7088:7167   */\n      tag_402\n      tag_266\n      jump\t// in\n    tag_402:\n        /* \"#utility.yul\":7050:7169   */\n    tag_401:\n        /* \"#utility.yul\":7208:7209   */\n      0x00\n        /* \"#utility.yul\":7233:7286   */\n      tag_403\n        /* \"#utility.yul\":7278:7285   */\n      dup5\n        /* \"#utility.yul\":7269:7275   */\n      dup3\n        /* \"#utility.yul\":7258:7267   */\n      dup6\n        /* \"#utility.yul\":7254:7276   */\n      add\n        /* \"#utility.yul\":7233:7286   */\n      tag_271\n      jump\t// in\n    tag_403:\n        /* \"#utility.yul\":7223:7286   */\n      swap2\n      pop\n        /* \"#utility.yul\":7179:7296   */\n      pop\n        /* \"#utility.yul\":6974:7303   */\n      swap3\n      swap2\n      pop\n      pop\n      jump\t// out\n        /* \"#utility.yul\":7309:7531   */\n    tag_56:\n        /* \"#utility.yul\":7402:7406   */\n      0x00\n        /* \"#utility.yul\":7440:7442   */\n      0x20\n        /* \"#utility.yul\":7429:7438   */\n      dup3\n        /* \"#utility.yul\":7425:7443   */\n      add\n        /* \"#utility.yul\":7417:7443   */\n      swap1\n      pop\n        /* \"#utility.yul\":7453:7524   */\n      tag_405\n        /* \"#utility.yul\":7521:7522   */\n      0x00\n        /* \"#utility.yul\":7510:7519   */\n      dup4\n        /* \"#utility.yul\":7506:7523   */\n      add\n        /* \"#utility.yul\":7497:7503   */\n      dup5\n        /* \"#utility.yul\":7453:7524   */\n      tag_276\n      jump\t// in\n    tag_405:\n        /* \"#utility.yul\":7309:7531   */\n      swap3\n      swap2\n      pop\n      pop\n      jump\t// out\n        /* \"#utility.yul\":7537:7866   */\n    tag_64:\n        /* \"#utility.yul\":7596:7602   */\n      0x00\n        /* \"#utility.yul\":7645:7647   */\n      0x20\n        /* \"#utility.yul\":7633:7642   */\n      dup3\n        /* \"#utility.yul\":7624:7631   */\n      dup5\n        /* \"#utility.yul\":7620:7643   */\n      sub\n        /* \"#utility.yul\":7616:7648   */\n      slt\n        /* \"#utility.yul\":7613:7732   */\n      iszero\n      tag_407\n      jumpi\n        /* \"#utility.yul\":7651:7730   */\n      tag_408\n      tag_266\n      jump\t// in\n    tag_408:\n        /* \"#utility.yul\":7613:7732   */\n    tag_407:\n        /* \"#utility.yul\":7771:7772   */\n      0x00\n        /* \"#utility.yul\":7796:7849   */\n      tag_409\n        /* \"#utility.yul\":7841:7848   */\n      dup5\n        /* \"#utility.yul\":7832:7838   */\n      dup3\n        /* \"#utility.yul\":7821:7830   */\n      dup6\n        /* \"#utility.yul\":7817:7839   */\n      add\n        /* \"#utility.yul\":7796:7849   */\n      tag_273\n      jump\t// in\n    tag_409:\n        /* \"#utility.yul\":7786:7849   */\n      swap2\n      pop\n        /* \"#utility.yul\":7742:7859   */\n      pop\n        /* \"#utility.yul\":7537:7866   */\n      swap3\n      swap2\n      pop\n      pop\n      jump\t// out\n        /* \"#utility.yul\":7872:7990   */\n    tag_277:\n        /* \"#utility.yul\":7959:7983   */\n      tag_411\n        /* \"#utility.yul\":7977:7982   */\n      dup2\n        /* \"#utility.yul\":7959:7983   */\n      tag_269\n      jump\t// in\n    tag_411:\n        /* \"#utility.yul\":7954:7957   */\n      dup3\n        /* \"#utility.yul\":7947:7984   */\n      mstore\n        /* \"#utility.yul\":7872:7990   */\n      pop\n      pop\n      jump\t// out\n        /* \"#utility.yul\":7996:8218   */\n    tag_71:\n        /* \"#utility.yul\":8089:8093   */\n      0x00\n        /* \"#utility.yul\":8127:8129   */\n      0x20\n        /* \"#utility.yul\":8116:8125   */\n      dup3\n        /* \"#utility.yul\":8112:8130   */\n      add\n        /* \"#utility.yul\":8104:8130   */\n      swap1\n      pop\n        /* \"#utility.yul\":8140:8211   */\n      tag_413\n        /* \"#utility.yul\":8208:8209   */\n      0x00\n        /* \"#utility.yul\":8197:8206   */\n      dup4\n        /* \"#utility.yul\":8193:8210   */\n      add\n        /* \"#utility.yul\":8184:8190   */\n      dup5\n        /* \"#utility.yul\":8140:8211   */\n      tag_277\n      jump\t// in\n    tag_413:\n        /* \"#utility.yul\":7996:8218   */\n      swap3\n      swap2\n      pop\n      pop\n      jump\t// out\n        /* \"#utility.yul\":8224:8341   */\n    tag_278:\n        /* \"#utility.yul\":8333:8334   */\n      0x00\n        /* \"#utility.yul\":8330:8331   */\n      dup1\n        /* \"#utility.yul\":8323:8335   */\n      revert\n        /* \"#utility.yul\":8347:8464   */\n    tag_279:\n        /* \"#utility.yul\":8456:8457   */\n      0x00\n        /* \"#utility.yul\":8453:8454   */\n      dup1\n        /* \"#utility.yul\":8446:8458   */\n      revert\n        /* \"#utility.yul\":8470:8650   */\n    tag_280:\n        /* \"#utility.yul\":8518:8595   */\n      0x4e487b7100000000000000000000000000000000000000000000000000000000\n        /* \"#utility.yul\":8515:8516   */\n      0x00\n        /* \"#utility.yul\":8508:8596   */\n      mstore\n        /* \"#utility.yul\":8615:8619   */\n      0x41\n        /* \"#utility.yul\":8612:8613   */\n      0x04\n        /* \"#utility.yul\":8605:8620   */\n      mstore\n        /* \"#utility.yul\":8639:8643   */\n      0x24\n        /* \"#utility.yul\":8636:8637   */\n      0x00\n        /* \"#utility.yul\":8629:8644   */\n      revert\n        /* \"#utility.yul\":8656:8937   */\n    tag_281:\n        /* \"#utility.yul\":8739:8766   */\n      tag_418\n        /* \"#utility.yul\":8761:8765   */\n      dup3\n        /* \"#utility.yul\":8739:8766   */\n      tag_257\n      jump\t// in\n    tag_418:\n        /* \"#utility.yul\":8731:8737   */\n      dup2\n        /* \"#utility.yul\":8727:8767   */\n      add\n        /* \"#utility.yul\":8869:8875   */\n      dup2\n        /* \"#utility.yul\":8857:8867   */\n      dup2\n        /* \"#utility.yul\":8854:8876   */\n      lt\n        /* \"#utility.yul\":8833:8851   */\n      0xffffffffffffffff\n        /* \"#utility.yul\":8821:8831   */\n      dup3\n        /* \"#utility.yul\":8818:8852   */\n      gt\n        /* \"#utility.yul\":8815:8877   */\n      or\n        /* \"#utility.yul\":8812:8900   */\n      iszero\n      tag_419\n      jumpi\n        /* \"#utility.yul\":8880:8898   */\n      tag_420\n      tag_280\n      jump\t// in\n    tag_420:\n        /* \"#utility.yul\":8812:8900   */\n    tag_419:\n        /* \"#utility.yul\":8920:8930   */\n      dup1\n        /* \"#utility.yul\":8916:8918   */\n      0x40\n        /* \"#utility.yul\":8909:8931   */\n      mstore\n        /* \"#utility.yul\":8699:8937   */\n      pop\n        /* \"#utility.yul\":8656:8937   */\n      pop\n      pop\n      jump\t// out\n        /* \"#utility.yul\":8943:9072   */\n    tag_282:\n        /* \"#utility.yul\":8977:8983   */\n      0x00\n        /* \"#utility.yul\":9004:9024   */\n      tag_422\n      tag_265\n      jump\t// in\n    tag_422:\n        /* \"#utility.yul\":8994:9024   */\n      swap1\n      pop\n        /* \"#utility.yul\":9033:9066   */\n      tag_423\n        /* \"#utility.yul\":9061:9065   */\n      dup3\n        /* \"#utility.yul\":9053:9059   */\n      dup3\n        /* \"#utility.yul\":9033:9066   */\n      tag_281\n      jump\t// in\n    tag_423:\n        /* \"#utility.yul\":8943:9072   */\n      swap2\n      swap1\n      pop\n      jump\t// out\n        /* \"#utility.yul\":9078:9386   */\n    tag_283:\n        /* \"#utility.yul\":9140:9144   */\n      0x00\n        /* \"#utility.yul\":9230:9248   */\n      0xffffffffffffffff\n        /* \"#utility.yul\":9222:9228   */\n      dup3\n        /* \"#utility.yul\":9219:9249   */\n      gt\n        /* \"#utility.yul\":9216:9272   */\n      iszero\n      tag_425\n      jumpi\n        /* \"#utility.yul\":9252:9270   */\n      tag_426\n      tag_280\n      jump\t// in\n    tag_426:\n        /* \"#utility.yul\":9216:9272   */\n    tag_425:\n        /* \"#utility.yul\":9290:9319   */\n      tag_427\n        /* \"#utility.yul\":9312:9318   */\n      dup3\n        /* \"#utility.yul\":9290:9319   */\n      tag_257\n      jump\t// in\n    tag_427:\n        /* \"#utility.yul\":9282:9319   */\n      swap1\n      pop\n        /* \"#utility.yul\":9374:9378   */\n      0x20\n        /* \"#utility.yul\":9368:9372   */\n      dup2\n        /* \"#utility.yul\":9364:9379   */\n      add\n        /* \"#utility.yul\":9356:9379   */\n      swap1\n      pop\n        /* \"#utility.yul\":9078:9386   */\n      swap2\n      swap1\n      pop\n      jump\t// out\n        /* \"#utility.yul\":9392:9540   */\n    tag_284:\n        /* \"#utility.yul\":9490:9496   */\n      dup3\n        /* \"#utility.yul\":9485:9488   */\n      dup2\n        /* \"#utility.yul\":9480:9483   */\n      dup4\n        /* \"#utility.yul\":9467:9497   */\n      calldatacopy\n        /* \"#utility.yul\":9531:9532   */\n      0x00\n        /* \"#utility.yul\":9522:9528   */\n      dup4\n        /* \"#utility.yul\":9517:9520   */\n      dup4\n        /* \"#utility.yul\":9513:9529   */\n      add\n        /* \"#utility.yul\":9506:9533   */\n      mstore\n        /* \"#utility.yul\":9392:9540   */\n      pop\n      pop\n      pop\n      jump\t// out\n        /* \"#utility.yul\":9546:9971   */\n    tag_285:\n        /* \"#utility.yul\":9624:9629   */\n      0x00\n        /* \"#utility.yul\":9649:9715   */\n      tag_430\n        /* \"#utility.yul\":9665:9714   */\n      tag_431\n        /* \"#utility.yul\":9707:9713   */\n      dup5\n        /* \"#utility.yul\":9665:9714   */\n      tag_283\n      jump\t// in\n    tag_431:\n        /* \"#utility.yul\":9649:9715   */\n      tag_282\n      jump\t// in\n    tag_430:\n        /* \"#utility.yul\":9640:9715   */\n      swap1\n      pop\n        /* \"#utility.yul\":9738:9744   */\n      dup3\n        /* \"#utility.yul\":9731:9736   */\n      dup2\n        /* \"#utility.yul\":9724:9745   */\n      mstore\n        /* \"#utility.yul\":9776:9780   */\n      0x20\n        /* \"#utility.yul\":9769:9774   */\n      dup2\n        /* \"#utility.yul\":9765:9781   */\n      add\n        /* \"#utility.yul\":9814:9817   */\n      dup5\n        /* \"#utility.yul\":9805:9811   */\n      dup5\n        /* \"#utility.yul\":9800:9803   */\n      dup5\n        /* \"#utility.yul\":9796:9812   */\n      add\n        /* \"#utility.yul\":9793:9818   */\n      gt\n        /* \"#utility.yul\":9790:9902   */\n      iszero\n      tag_432\n      jumpi\n        /* \"#utility.yul\":9821:9900   */\n      tag_433\n      tag_279\n      jump\t// in\n    tag_433:\n        /* \"#utility.yul\":9790:9902   */\n    tag_432:\n        /* \"#utility.yul\":9911:9965   */\n      tag_434\n        /* \"#utility.yul\":9958:9964   */\n      dup5\n        /* \"#utility.yul\":9953:9956   */\n      dup3\n        /* \"#utility.yul\":9948:9951   */\n      dup6\n        /* \"#utility.yul\":9911:9965   */\n      tag_284\n      jump\t// in\n    tag_434:\n        /* \"#utility.yul\":9630:9971   */\n      pop\n        /* \"#utility.yul\":9546:9971   */\n      swap4\n      swap3\n      pop\n      pop\n      pop\n      jump\t// out\n        /* \"#utility.yul\":9991:10331   */\n    tag_286:\n        /* \"#utility.yul\":10047:10052   */\n      0x00\n        /* \"#utility.yul\":10096:10099   */\n      dup3\n        /* \"#utility.yul\":10089:10093   */\n      0x1f\n        /* \"#utility.yul\":10081:10087   */\n      dup4\n        /* \"#utility.yul\":10077:10094   */\n      add\n        /* \"#utility.yul\":10073:10100   */\n      slt\n        /* \"#utility.yul\":10063:10185   */\n      tag_436\n      jumpi\n        /* \"#utility.yul\":10104:10183   */\n      tag_437\n      tag_278\n      jump\t// in\n    tag_437:\n        /* \"#utility.yul\":10063:10185   */\n    tag_436:\n        /* \"#utility.yul\":10221:10227   */\n      dup2\n        /* \"#utility.yul\":10208:10228   */\n      calldataload\n        /* \"#utility.yul\":10246:10325   */\n      tag_438\n        /* \"#utility.yul\":10321:10324   */\n      dup5\n        /* \"#utility.yul\":10313:10319   */\n      dup3\n        /* \"#utility.yul\":10306:10310   */\n      0x20\n        /* \"#utility.yul\":10298:10304   */\n      dup7\n        /* \"#utility.yul\":10294:10311   */\n      add\n        /* \"#utility.yul\":10246:10325   */\n      tag_285\n      jump\t// in\n    tag_438:\n        /* \"#utility.yul\":10237:10325   */\n      swap2\n      pop\n        /* \"#utility.yul\":10053:10331   */\n      pop\n        /* \"#utility.yul\":9991:10331   */\n      swap3\n      swap2\n      pop\n      pop\n      jump\t// out\n        /* \"#utility.yul\":10337:10991   */\n    tag_86:\n        /* \"#utility.yul\":10415:10421   */\n      0x00\n        /* \"#utility.yul\":10423:10429   */\n      dup1\n        /* \"#utility.yul\":10472:10474   */\n      0x40\n        /* \"#utility.yul\":10460:10469   */\n      dup4\n        /* \"#utility.yul\":10451:10458   */\n      dup6\n        /* \"#utility.yul\":10447:10470   */\n      sub\n        /* \"#utility.yul\":10443:10475   */\n      slt\n        /* \"#utility.yul\":10440:10559   */\n      iszero\n      tag_440\n      jumpi\n        /* \"#utility.yul\":10478:10557   */\n      tag_441\n      tag_266\n      jump\t// in\n    tag_441:\n        /* \"#utility.yul\":10440:10559   */\n    tag_440:\n        /* \"#utility.yul\":10626:10627   */\n      0x00\n        /* \"#utility.yul\":10615:10624   */\n      dup4\n        /* \"#utility.yul\":10611:10628   */\n      add\n        /* \"#utility.yul\":10598:10629   */\n      calldataload\n        /* \"#utility.yul\":10656:10674   */\n      0xffffffffffffffff\n        /* \"#utility.yul\":10648:10654   */\n      dup2\n        /* \"#utility.yul\":10645:10675   */\n      gt\n        /* \"#utility.yul\":10642:10759   */\n      iszero\n      tag_442\n      jumpi\n        /* \"#utility.yul\":10678:10757   */\n      tag_443\n      tag_267\n      jump\t// in\n    tag_443:\n        /* \"#utility.yul\":10642:10759   */\n    tag_442:\n        /* \"#utility.yul\":10783:10846   */\n      tag_444\n        /* \"#utility.yul\":10838:10845   */\n      dup6\n        /* \"#utility.yul\":10829:10835   */\n      dup3\n        /* \"#utility.yul\":10818:10827   */\n      dup7\n        /* \"#utility.yul\":10814:10836   */\n      add\n        /* \"#utility.yul\":10783:10846   */\n      tag_286\n      jump\t// in\n    tag_444:\n        /* \"#utility.yul\":10773:10846   */\n      swap3\n      pop\n        /* \"#utility.yul\":10569:10856   */\n      pop\n        /* \"#utility.yul\":10895:10897   */\n      0x20\n        /* \"#utility.yul\":10921:10974   */\n      tag_445\n        /* \"#utility.yul\":10966:10973   */\n      dup6\n        /* \"#utility.yul\":10957:10963   */\n      dup3\n        /* \"#utility.yul\":10946:10955   */\n      dup7\n        /* \"#utility.yul\":10942:10964   */\n      add\n        /* \"#utility.yul\":10921:10974   */\n      tag_273\n      jump\t// in\n    tag_445:\n        /* \"#utility.yul\":10911:10974   */\n      swap2\n      pop\n        /* \"#utility.yul\":10866:10984   */\n      pop\n        /* \"#utility.yul\":10337:10991   */\n      swap3\n      pop\n      swap3\n      swap1\n      pop\n      jump\t// out\n        /* \"#utility.yul\":10997:11177   */\n    tag_287:\n        /* \"#utility.yul\":11045:11122   */\n      0x4e487b7100000000000000000000000000000000000000000000000000000000\n        /* \"#utility.yul\":11042:11043   */\n      0x00\n        /* \"#utility.yul\":11035:11123   */\n      mstore\n        /* \"#utility.yul\":11142:11146   */\n      0x22\n        /* \"#utility.yul\":11139:11140   */\n      0x04\n        /* \"#utility.yul\":11132:11147   */\n      mstore\n        /* \"#utility.yul\":11166:11170   */\n      0x24\n        /* \"#utility.yul\":11163:11164   */\n      0x00\n        /* \"#utility.yul\":11156:11171   */\n      revert\n        /* \"#utility.yul\":11183:11503   */\n    tag_101:\n        /* \"#utility.yul\":11227:11233   */\n      0x00\n        /* \"#utility.yul\":11264:11265   */\n      0x02\n        /* \"#utility.yul\":11258:11262   */\n      dup3\n        /* \"#utility.yul\":11254:11266   */\n      div\n        /* \"#utility.yul\":11244:11266   */\n      swap1\n      pop\n        /* \"#utility.yul\":11311:11312   */\n      0x01\n        /* \"#utility.yul\":11305:11309   */\n      dup3\n        /* \"#utility.yul\":11301:11313   */\n      and\n        /* \"#utility.yul\":11332:11350   */\n      dup1\n        /* \"#utility.yul\":11322:11403   */\n      tag_448\n      jumpi\n        /* \"#utility.yul\":11388:11392   */\n      0x7f\n        /* \"#utility.yul\":11380:11386   */\n      dup3\n        /* \"#utility.yul\":11376:11393   */\n      and\n        /* \"#utility.yul\":11366:11393   */\n      swap2\n      pop\n        /* \"#utility.yul\":11322:11403   */\n    tag_448:\n        /* \"#utility.yul\":11450:11452   */\n      0x20\n        /* \"#utility.yul\":11442:11448   */\n      dup3\n        /* \"#utility.yul\":11439:11453   */\n      lt\n        /* \"#utility.yul\":11419:11437   */\n      dup2\n        /* \"#utility.yul\":11416:11454   */\n      sub\n        /* \"#utility.yul\":11413:11497   */\n      tag_449\n      jumpi\n        /* \"#utility.yul\":11469:11487   */\n      tag_450\n      tag_287\n      jump\t// in\n    tag_450:\n        /* \"#utility.yul\":11413:11497   */\n    tag_449:\n        /* \"#utility.yul\":11234:11503   */\n      pop\n        /* \"#utility.yul\":11183:11503   */\n      swap2\n      swap1\n      pop\n      jump\t// out\n        /* \"#utility.yul\":11509:11689   */\n    tag_112:\n        /* \"#utility.yul\":11557:11634   */\n      0x4e487b7100000000000000000000000000000000000000000000000000000000\n        /* \"#utility.yul\":11554:11555   */\n      0x00\n        /* \"#utility.yul\":11547:11635   */\n      mstore\n        /* \"#utility.yul\":11654:11658   */\n      0x32\n        /* \"#utility.yul\":11651:11652   */\n      0x04\n        /* \"#utility.yul\":11644:11659   */\n      mstore\n        /* \"#utility.yul\":11678:11682   */\n      0x24\n        /* \"#utility.yul\":11675:11676   */\n      0x00\n        /* \"#utility.yul\":11668:11683   */\n      revert\n        /* \"#utility.yul\":11695:11875   */\n    tag_288:\n        /* \"#utility.yul\":11743:11820   */\n      0x4e487b7100000000000000000000000000000000000000000000000000000000\n        /* \"#utility.yul\":11740:11741   */\n      0x00\n        /* \"#utility.yul\":11733:11821   */\n      mstore\n        /* \"#utility.yul\":11840:11844   */\n      0x11\n        /* \"#utility.yul\":11837:11838   */\n      0x04\n        /* \"#utility.yul\":11830:11845   */\n      mstore\n        /* \"#utility.yul\":11864:11868   */\n      0x24\n        /* \"#utility.yul\":11861:11862   */\n      0x00\n        /* \"#utility.yul\":11854:11869   */\n      revert\n        /* \"#utility.yul\":11881:12072   */\n    tag_115:\n        /* \"#utility.yul\":11921:11924   */\n      0x00\n        /* \"#utility.yul\":11940:11960   */\n      tag_454\n        /* \"#utility.yul\":11958:11959   */\n      dup3\n        /* \"#utility.yul\":11940:11960   */\n      tag_259\n      jump\t// in\n    tag_454:\n        /* \"#utility.yul\":11935:11960   */\n      swap2\n      pop\n        /* \"#utility.yul\":11974:11994   */\n      tag_455\n        /* \"#utility.yul\":11992:11993   */\n      dup4\n        /* \"#utility.yul\":11974:11994   */\n      tag_259\n      jump\t// in\n    tag_455:\n        /* \"#utility.yul\":11969:11994   */\n      swap3\n      pop\n        /* \"#utility.yul\":12017:12018   */\n      dup3\n        /* \"#utility.yul\":12014:12015   */\n      dup3\n        /* \"#utility.yul\":12010:12019   */\n      add\n        /* \"#utility.yul\":12003:12019   */\n      swap1\n      pop\n        /* \"#utility.yul\":12038:12041   */\n      dup1\n        /* \"#utility.yul\":12035:12036   */\n      dup3\n        /* \"#utility.yul\":12032:12042   */\n      gt\n        /* \"#utility.yul\":12029:12065   */\n      iszero\n      tag_456\n      jumpi\n        /* \"#utility.yul\":12045:12063   */\n      tag_457\n      tag_288\n      jump\t// in\n    tag_457:\n        /* \"#utility.yul\":12029:12065   */\n    tag_456:\n        /* \"#utility.yul\":11881:12072   */\n      swap3\n      swap2\n      pop\n      pop\n      jump\t// out\n        /* \"#utility.yul\":12078:12247   */\n    tag_289:\n        /* \"#utility.yul\":12218:12239   */\n      0x4e6f207265776172647320746f20636c61696d00000000000000000000000000\n        /* \"#utility.yul\":12214:12215   */\n      0x00\n        /* \"#utility.yul\":12206:12212   */\n      dup3\n        /* \"#utility.yul\":12202:12216   */\n      add\n        /* \"#utility.yul\":12195:12240   */\n      mstore\n        /* \"#utility.yul\":12078:12247   */\n      pop\n      jump\t// out\n        /* \"#utility.yul\":12253:12619   */\n    tag_290:\n        /* \"#utility.yul\":12395:12398   */\n      0x00\n        /* \"#utility.yul\":12416:12483   */\n      tag_460\n        /* \"#utility.yul\":12480:12482   */\n      0x13\n        /* \"#utility.yul\":12475:12478   */\n      dup4\n        /* \"#utility.yul\":12416:12483   */\n      tag_274\n      jump\t// in\n    tag_460:\n        /* \"#utility.yul\":12409:12483   */\n      swap2\n      pop\n        /* \"#utility.yul\":12492:12585   */\n      tag_461\n        /* \"#utility.yul\":12581:12584   */\n      dup3\n        /* \"#utility.yul\":12492:12585   */\n      tag_289\n      jump\t// in\n    tag_461:\n        /* \"#utility.yul\":12610:12612   */\n      0x20\n        /* \"#utility.yul\":12605:12608   */\n      dup3\n        /* \"#utility.yul\":12601:12613   */\n      add\n        /* \"#utility.yul\":12594:12613   */\n      swap1\n      pop\n        /* \"#utility.yul\":12253:12619   */\n      swap2\n      swap1\n      pop\n      jump\t// out\n        /* \"#utility.yul\":12625:13044   */\n    tag_118:\n        /* \"#utility.yul\":12791:12795   */\n      0x00\n        /* \"#utility.yul\":12829:12831   */\n      0x20\n        /* \"#utility.yul\":12818:12827   */\n      dup3\n        /* \"#utility.yul\":12814:12832   */\n      add\n        /* \"#utility.yul\":12806:12832   */\n      swap1\n      pop\n        /* \"#utility.yul\":12878:12887   */\n      dup2\n        /* \"#utility.yul\":12872:12876   */\n      dup2\n        /* \"#utility.yul\":12868:12888   */\n      sub\n        /* \"#utility.yul\":12864:12865   */\n      0x00\n        /* \"#utility.yul\":12853:12862   */\n      dup4\n        /* \"#utility.yul\":12849:12866   */\n      add\n        /* \"#utility.yul\":12842:12889   */\n      mstore\n        /* \"#utility.yul\":12906:13037   */\n      tag_463\n        /* \"#utility.yul\":13032:13036   */\n      dup2\n        /* \"#utility.yul\":12906:13037   */\n      tag_290\n      jump\t// in\n    tag_463:\n        /* \"#utility.yul\":12898:13037   */\n      swap1\n      pop\n        /* \"#utility.yul\":12625:13044   */\n      swap2\n      swap1\n      pop\n      jump\t// out\n        /* \"#utility.yul\":13050:13197   */\n    tag_291:\n        /* \"#utility.yul\":13151:13162   */\n      0x00\n        /* \"#utility.yul\":13188:13191   */\n      dup2\n        /* \"#utility.yul\":13173:13191   */\n      swap1\n      pop\n        /* \"#utility.yul\":13050:13197   */\n      swap3\n      swap2\n      pop\n      pop\n      jump\t// out\n        /* \"#utility.yul\":13203:13317   */\n    tag_292:\n      pop\n      jump\t// out\n        /* \"#utility.yul\":13323:13721   */\n    tag_293:\n        /* \"#utility.yul\":13482:13485   */\n      0x00\n        /* \"#utility.yul\":13503:13586   */\n      tag_467\n        /* \"#utility.yul\":13584:13585   */\n      0x00\n        /* \"#utility.yul\":13579:13582   */\n      dup4\n        /* \"#utility.yul\":13503:13586   */\n      tag_291\n      jump\t// in\n    tag_467:\n        /* \"#utility.yul\":13496:13586   */\n      swap2\n      pop\n        /* \"#utility.yul\":13595:13688   */\n      tag_468\n        /* \"#utility.yul\":13684:13687   */\n      dup3\n        /* \"#utility.yul\":13595:13688   */\n      tag_292\n      jump\t// in\n    tag_468:\n        /* \"#utility.yul\":13713:13714   */\n      0x00\n        /* \"#utility.yul\":13708:13711   */\n      dup3\n        /* \"#utility.yul\":13704:13715   */\n      add\n        /* \"#utility.yul\":13697:13715   */\n      swap1\n      pop\n        /* \"#utility.yul\":13323:13721   */\n      swap2\n      swap1\n      pop\n      jump\t// out\n        /* \"#utility.yul\":13727:14106   */\n    tag_120:\n        /* \"#utility.yul\":13911:13914   */\n      0x00\n        /* \"#utility.yul\":13933:14080   */\n      tag_470\n        /* \"#utility.yul\":14076:14079   */\n      dup3\n        /* \"#utility.yul\":13933:14080   */\n      tag_293\n      jump\t// in\n    tag_470:\n        /* \"#utility.yul\":13926:14080   */\n      swap2\n      pop\n        /* \"#utility.yul\":14097:14100   */\n      dup2\n        /* \"#utility.yul\":14090:14100   */\n      swap1\n      pop\n        /* \"#utility.yul\":13727:14106   */\n      swap2\n      swap1\n      pop\n      jump\t// out\n        /* \"#utility.yul\":14112:14285   */\n    tag_294:\n        /* \"#utility.yul\":14252:14277   */\n      0x5472616e73666572206661696c65642d3e20436865636b000000000000000000\n        /* \"#utility.yul\":14248:14249   */\n      0x00\n        /* \"#utility.yul\":14240:14246   */\n      dup3\n        /* \"#utility.yul\":14236:14250   */\n      add\n        /* \"#utility.yul\":14229:14278   */\n      mstore\n        /* \"#utility.yul\":14112:14285   */\n      pop\n      jump\t// out\n        /* \"#utility.yul\":14291:14657   */\n    tag_295:\n        /* \"#utility.yul\":14433:14436   */\n      0x00\n        /* \"#utility.yul\":14454:14521   */\n      tag_473\n        /* \"#utility.yul\":14518:14520   */\n      0x17\n        /* \"#utility.yul\":14513:14516   */\n      dup4\n        /* \"#utility.yul\":14454:14521   */\n      tag_274\n      jump\t// in\n    tag_473:\n        /* \"#utility.yul\":14447:14521   */\n      swap2\n      pop\n        /* \"#utility.yul\":14530:14623   */\n      tag_474\n        /* \"#utility.yul\":14619:14622   */\n      dup3\n        /* \"#utility.yul\":14530:14623   */\n      tag_294\n      jump\t// in\n    tag_474:\n        /* \"#utility.yul\":14648:14650   */\n      0x20\n        /* \"#utility.yul\":14643:14646   */\n      dup3\n        /* \"#utility.yul\":14639:14651   */\n      add\n        /* \"#utility.yul\":14632:14651   */\n      swap1\n      pop\n        /* \"#utility.yul\":14291:14657   */\n      swap2\n      swap1\n      pop\n      jump\t// out\n        /* \"#utility.yul\":14663:15082   */\n    tag_126:\n        /* \"#utility.yul\":14829:14833   */\n      0x00\n        /* \"#utility.yul\":14867:14869   */\n      0x20\n        /* \"#utility.yul\":14856:14865   */\n      dup3\n        /* \"#utility.yul\":14852:14870   */\n      add\n        /* \"#utility.yul\":14844:14870   */\n      swap1\n      pop\n        /* \"#utility.yul\":14916:14925   */\n      dup2\n        /* \"#utility.yul\":14910:14914   */\n      dup2\n        /* \"#utility.yul\":14906:14926   */\n      sub\n        /* \"#utility.yul\":14902:14903   */\n      0x00\n        /* \"#utility.yul\":14891:14900   */\n      dup4\n        /* \"#utility.yul\":14887:14904   */\n      add\n        /* \"#utility.yul\":14880:14927   */\n      mstore\n        /* \"#utility.yul\":14944:15075   */\n      tag_476\n        /* \"#utility.yul\":15070:15074   */\n      dup2\n        /* \"#utility.yul\":14944:15075   */\n      tag_295\n      jump\t// in\n    tag_476:\n        /* \"#utility.yul\":14936:15075   */\n      swap1\n      pop\n        /* \"#utility.yul\":14663:15082   */\n      swap2\n      swap1\n      pop\n      jump\t// out\n        /* \"#utility.yul\":15088:15251   */\n    tag_296:\n        /* \"#utility.yul\":15228:15243   */\n      0x496e76616c696420696e64657800000000000000000000000000000000000000\n        /* \"#utility.yul\":15224:15225   */\n      0x00\n        /* \"#utility.yul\":15216:15222   */\n      dup3\n        /* \"#utility.yul\":15212:15226   */\n      add\n        /* \"#utility.yul\":15205:15244   */\n      mstore\n        /* \"#utility.yul\":15088:15251   */\n      pop\n      jump\t// out\n        /* \"#utility.yul\":15257:15623   */\n    tag_297:\n        /* \"#utility.yul\":15399:15402   */\n      0x00\n        /* \"#utility.yul\":15420:15487   */\n      tag_479\n        /* \"#utility.yul\":15484:15486   */\n      0x0d\n        /* \"#utility.yul\":15479:15482   */\n      dup4\n        /* \"#utility.yul\":15420:15487   */\n      tag_274\n      jump\t// in\n    tag_479:\n        /* \"#utility.yul\":15413:15487   */\n      swap2\n      pop\n        /* \"#utility.yul\":15496:15589   */\n      tag_480\n        /* \"#utility.yul\":15585:15588   */\n      dup3\n        /* \"#utility.yul\":15496:15589   */\n      tag_296\n      jump\t// in\n    tag_480:\n        /* \"#utility.yul\":15614:15616   */\n      0x20\n        /* \"#utility.yul\":15609:15612   */\n      dup3\n        /* \"#utility.yul\":15605:15617   */\n      add\n        /* \"#utility.yul\":15598:15617   */\n      swap1\n      pop\n        /* \"#utility.yul\":15257:15623   */\n      swap2\n      swap1\n      pop\n      jump\t// out\n        /* \"#utility.yul\":15629:16048   */\n    tag_139:\n        /* \"#utility.yul\":15795:15799   */\n      0x00\n        /* \"#utility.yul\":15833:15835   */\n      0x20\n        /* \"#utility.yul\":15822:15831   */\n      dup3\n        /* \"#utility.yul\":15818:15836   */\n      add\n        /* \"#utility.yul\":15810:15836   */\n      swap1\n      pop\n        /* \"#utility.yul\":15882:15891   */\n      dup2\n        /* \"#utility.yul\":15876:15880   */\n      dup2\n        /* \"#utility.yul\":15872:15892   */\n      sub\n        /* \"#utility.yul\":15868:15869   */\n      0x00\n        /* \"#utility.yul\":15857:15866   */\n      dup4\n        /* \"#utility.yul\":15853:15870   */\n      add\n        /* \"#utility.yul\":15846:15893   */\n      mstore\n        /* \"#utility.yul\":15910:16041   */\n      tag_482\n        /* \"#utility.yul\":16036:16040   */\n      dup2\n        /* \"#utility.yul\":15910:16041   */\n      tag_297\n      jump\t// in\n    tag_482:\n        /* \"#utility.yul\":15902:16041   */\n      swap1\n      pop\n        /* \"#utility.yul\":15629:16048   */\n      swap2\n      swap1\n      pop\n      jump\t// out\n        /* \"#utility.yul\":16054:16203   */\n    tag_298:\n        /* \"#utility.yul\":16103:16109   */\n      0x00\n        /* \"#utility.yul\":16137:16142   */\n      dup2\n        /* \"#utility.yul\":16131:16143   */\n      sload\n        /* \"#utility.yul\":16121:16143   */\n      swap1\n      pop\n        /* \"#utility.yul\":16163:16196   */\n      tag_484\n        /* \"#utility.yul\":16189:16195   */\n      dup2\n        /* \"#utility.yul\":16163:16196   */\n      tag_101\n      jump\t// in\n    tag_484:\n        /* \"#utility.yul\":16153:16196   */\n      swap1\n      pop\n        /* \"#utility.yul\":16054:16203   */\n      swap2\n      swap1\n      pop\n      jump\t// out\n        /* \"#utility.yul\":16209:16350   */\n    tag_299:\n        /* \"#utility.yul\":16258:16262   */\n      0x00\n        /* \"#utility.yul\":16281:16284   */\n      dup2\n        /* \"#utility.yul\":16273:16284   */\n      swap1\n      pop\n        /* \"#utility.yul\":16304:16307   */\n      dup2\n        /* \"#utility.yul\":16301:16302   */\n      0x00\n        /* \"#utility.yul\":16294:16308   */\n      mstore\n        /* \"#utility.yul\":16338:16342   */\n      0x20\n        /* \"#utility.yul\":16335:16336   */\n      0x00\n        /* \"#utility.yul\":16325:16343   */\n      keccak256\n        /* \"#utility.yul\":16317:16343   */\n      swap1\n      pop\n        /* \"#utility.yul\":16209:16350   */\n      swap2\n      swap1\n      pop\n      jump\t// out\n        /* \"#utility.yul\":16356:16449   */\n    tag_300:\n        /* \"#utility.yul\":16393:16399   */\n      0x00\n        /* \"#utility.yul\":16440:16442   */\n      0x20\n        /* \"#utility.yul\":16435:16437   */\n      0x1f\n        /* \"#utility.yul\":16428:16433   */\n      dup4\n        /* \"#utility.yul\":16424:16438   */\n      add\n        /* \"#utility.yul\":16420:16443   */\n      div\n        /* \"#utility.yul\":16410:16443   */\n      swap1\n      pop\n        /* \"#utility.yul\":16356:16449   */\n      swap2\n      swap1\n      pop\n      jump\t// out\n        /* \"#utility.yul\":16455:16562   */\n    tag_301:\n        /* \"#utility.yul\":16499:16507   */\n      0x00\n        /* \"#utility.yul\":16549:16554   */\n      dup3\n        /* \"#utility.yul\":16543:16547   */\n      dup3\n        /* \"#utility.yul\":16539:16555   */\n      shl\n        /* \"#utility.yul\":16518:16555   */\n      swap1\n      pop\n        /* \"#utility.yul\":16455:16562   */\n      swap3\n      swap2\n      pop\n      pop\n      jump\t// out\n        /* \"#utility.yul\":16568:16961   */\n    tag_302:\n        /* \"#utility.yul\":16637:16643   */\n      0x00\n        /* \"#utility.yul\":16687:16688   */\n      0x08\n        /* \"#utility.yul\":16675:16685   */\n      dup4\n        /* \"#utility.yul\":16671:16689   */\n      mul\n        /* \"#utility.yul\":16710:16807   */\n      tag_489\n        /* \"#utility.yul\":16740:16806   */\n      0xffffffffffffffffffffffffffffffffffffffffffffffffffffffffffffffff\n        /* \"#utility.yul\":16729:16738   */\n      dup3\n        /* \"#utility.yul\":16710:16807   */\n      tag_301\n      jump\t// in\n    tag_489:\n        /* \"#utility.yul\":16828:16867   */\n      tag_490\n        /* \"#utility.yul\":16858:16866   */\n      dup7\n        /* \"#utility.yul\":16847:16856   */\n      dup4\n        /* \"#utility.yul\":16828:16867   */\n      tag_301\n      jump\t// in\n    tag_490:\n        /* \"#utility.yul\":16816:16867   */\n      swap6\n      pop\n        /* \"#utility.yul\":16900:16904   */\n      dup1\n        /* \"#utility.yul\":16896:16905   */\n      not\n        /* \"#utility.yul\":16889:16894   */\n      dup5\n        /* \"#utility.yul\":16885:16906   */\n      and\n        /* \"#utility.yul\":16876:16906   */\n      swap4\n      pop\n        /* \"#utility.yul\":16949:16953   */\n      dup1\n        /* \"#utility.yul\":16939:16947   */\n      dup7\n        /* \"#utility.yul\":16935:16954   */\n      and\n        /* \"#utility.yul\":16928:16933   */\n      dup5\n        /* \"#utility.yul\":16925:16955   */\n      or\n        /* \"#utility.yul\":16915:16955   */\n      swap3\n      pop\n        /* \"#utility.yul\":16644:16961   */\n      pop\n      pop\n        /* \"#utility.yul\":16568:16961   */\n      swap4\n      swap3\n      pop\n      pop\n      pop\n      jump\t// out\n        /* \"#utility.yul\":16967:17027   */\n    tag_303:\n        /* \"#utility.yul\":16995:16998   */\n      0x00\n        /* \"#utility.yul\":17016:17021   */\n      dup2\n        /* \"#utility.yul\":17009:17021   */\n      swap1\n      pop\n        /* \"#utility.yul\":16967:17027   */\n      swap2\n      swap1\n      pop\n      jump\t// out\n        /* \"#utility.yul\":17033:17175   */\n    tag_304:\n        /* \"#utility.yul\":17083:17092   */\n      0x00\n        /* \"#utility.yul\":17116:17169   */\n      tag_493\n        /* \"#utility.yul\":17134:17168   */\n      tag_494\n        /* \"#utility.yul\":17143:17167   */\n      tag_495\n        /* \"#utility.yul\":17161:17166   */\n      dup5\n        /* \"#utility.yul\":17143:17167   */\n      tag_259\n      jump\t// in\n    tag_495:\n        /* \"#utility.yul\":17134:17168   */\n      tag_303\n      jump\t// in\n    tag_494:\n        /* \"#utility.yul\":17116:17169   */\n      tag_259\n      jump\t// in\n    tag_493:\n        /* \"#utility.yul\":17103:17169   */\n      swap1\n      pop\n        /* \"#utility.yul\":17033:17175   */\n      swap2\n      swap1\n      pop\n      jump\t// out\n        /* \"#utility.yul\":17181:17256   */\n    tag_305:\n        /* \"#utility.yul\":17224:17227   */\n      0x00\n        /* \"#utility.yul\":17245:17250   */\n      dup2\n        /* \"#utility.yul\":17238:17250   */\n      swap1\n      pop\n        /* \"#utility.yul\":17181:17256   */\n      swap2\n      swap1\n      pop\n      jump\t// out\n        /* \"#utility.yul\":17262:17531   */\n    tag_306:\n        /* \"#utility.yul\":17372:17411   */\n      tag_498\n        /* \"#utility.yul\":17403:17410   */\n      dup4\n        /* \"#utility.yul\":17372:17411   */\n      tag_304\n      jump\t// in\n    tag_498:\n        /* \"#utility.yul\":17433:17524   */\n      tag_499\n        /* \"#utility.yul\":17482:17523   */\n      tag_500\n        /* \"#utility.yul\":17506:17522   */\n      dup3\n        /* \"#utility.yul\":17482:17523   */\n      tag_305\n      jump\t// in\n    tag_500:\n        /* \"#utility.yul\":17474:17480   */\n      dup5\n        /* \"#utility.yul\":17467:17471   */\n      dup5\n        /* \"#utility.yul\":17461:17472   */\n      sload\n        /* \"#utility.yul\":17433:17524   */\n      tag_302\n      jump\t// in\n    tag_499:\n        /* \"#utility.yul\":17427:17431   */\n      dup3\n        /* \"#utility.yul\":17420:17525   */\n      sstore\n        /* \"#utility.yul\":17338:17531   */\n      pop\n        /* \"#utility.yul\":17262:17531   */\n      pop\n      pop\n      pop\n      jump\t// out\n        /* \"#utility.yul\":17537:17610   */\n    tag_307:\n        /* \"#utility.yul\":17582:17585   */\n      0x00\n        /* \"#utility.yul\":17537:17610   */\n      swap1\n      jump\t// out\n        /* \"#utility.yul\":17616:17805   */\n    tag_308:\n        /* \"#utility.yul\":17693:17725   */\n      tag_503\n      tag_307\n      jump\t// in\n    tag_503:\n        /* \"#utility.yul\":17734:17799   */\n      tag_504\n        /* \"#utility.yul\":17792:17798   */\n      dup2\n        /* \"#utility.yul\":17784:17790   */\n      dup5\n        /* \"#utility.yul\":17778:17782   */\n      dup5\n        /* \"#utility.yul\":17734:17799   */\n      tag_306\n      jump\t// in\n    tag_504:\n        /* \"#utility.yul\":17669:17805   */\n      pop\n        /* \"#utility.yul\":17616:17805   */\n      pop\n      pop\n      jump\t// out\n        /* \"#utility.yul\":17811:17997   */\n    tag_309:\n        /* \"#utility.yul\":17871:17991   */\n    tag_506:\n        /* \"#utility.yul\":17888:17891   */\n      dup2\n        /* \"#utility.yul\":17881:17886   */\n      dup2\n        /* \"#utility.yul\":17878:17892   */\n      lt\n        /* \"#utility.yul\":17871:17991   */\n      iszero\n      tag_508\n      jumpi\n        /* \"#utility.yul\":17942:17981   */\n      tag_509\n        /* \"#utility.yul\":17979:17980   */\n      0x00\n        /* \"#utility.yul\":17972:17977   */\n      dup3\n        /* \"#utility.yul\":17942:17981   */\n      tag_308\n      jump\t// in\n    tag_509:\n        /* \"#utility.yul\":17915:17916   */\n      0x01\n        /* \"#utility.yul\":17908:17913   */\n      dup2\n        /* \"#utility.yul\":17904:17917   */\n      add\n        /* \"#utility.yul\":17895:17917   */\n      swap1\n      pop\n        /* \"#utility.yul\":17871:17991   */\n      jump(tag_506)\n    tag_508:\n        /* \"#utility.yul\":17811:17997   */\n      pop\n      pop\n      jump\t// out\n        /* \"#utility.yul\":18003:18546   */\n    tag_310:\n        /* \"#utility.yul\":18104:18106   */\n      0x1f\n        /* \"#utility.yul\":18099:18102   */\n      dup3\n        /* \"#utility.yul\":18096:18107   */\n      gt\n        /* \"#utility.yul\":18093:18539   */\n      iszero\n      tag_511\n      jumpi\n        /* \"#utility.yul\":18138:18176   */\n      tag_512\n        /* \"#utility.yul\":18170:18175   */\n      dup2\n        /* \"#utility.yul\":18138:18176   */\n      tag_299\n      jump\t// in\n    tag_512:\n        /* \"#utility.yul\":18222:18251   */\n      tag_513\n        /* \"#utility.yul\":18240:18250   */\n      dup5\n        /* \"#utility.yul\":18222:18251   */\n      tag_300\n      jump\t// in\n    tag_513:\n        /* \"#utility.yul\":18212:18220   */\n      dup2\n        /* \"#utility.yul\":18208:18252   */\n      add\n        /* \"#utility.yul\":18405:18407   */\n      0x20\n        /* \"#utility.yul\":18393:18403   */\n      dup6\n        /* \"#utility.yul\":18390:18408   */\n      lt\n        /* \"#utility.yul\":18387:18436   */\n      iszero\n      tag_514\n      jumpi\n        /* \"#utility.yul\":18426:18434   */\n      dup2\n        /* \"#utility.yul\":18411:18434   */\n      swap1\n      pop\n        /* \"#utility.yul\":18387:18436   */\n    tag_514:\n        /* \"#utility.yul\":18449:18529   */\n      tag_515\n        /* \"#utility.yul\":18505:18527   */\n      tag_516\n        /* \"#utility.yul\":18523:18526   */\n      dup6\n        /* \"#utility.yul\":18505:18527   */\n      tag_300\n      jump\t// in\n    tag_516:\n        /* \"#utility.yul\":18495:18503   */\n      dup4\n        /* \"#utility.yul\":18491:18528   */\n      add\n        /* \"#utility.yul\":18478:18489   */\n      dup3\n        /* \"#utility.yul\":18449:18529   */\n      tag_309\n      jump\t// in\n    tag_515:\n        /* \"#utility.yul\":18108:18539   */\n      pop\n      pop\n        /* \"#utility.yul\":18093:18539   */\n    tag_511:\n        /* \"#utility.yul\":18003:18546   */\n      pop\n      pop\n      pop\n      jump\t// out\n        /* \"#utility.yul\":18552:18669   */\n    tag_311:\n        /* \"#utility.yul\":18606:18614   */\n      0x00\n        /* \"#utility.yul\":18656:18661   */\n      dup3\n        /* \"#utility.yul\":18650:18654   */\n      dup3\n        /* \"#utility.yul\":18646:18662   */\n      shr\n        /* \"#utility.yul\":18625:18662   */\n      swap1\n      pop\n        /* \"#utility.yul\":18552:18669   */\n      swap3\n      swap2\n      pop\n      pop\n      jump\t// out\n        /* \"#utility.yul\":18675:18844   */\n    tag_312:\n        /* \"#utility.yul\":18719:18725   */\n      0x00\n        /* \"#utility.yul\":18752:18803   */\n      tag_519\n        /* \"#utility.yul\":18800:18801   */\n      0x00\n        /* \"#utility.yul\":18796:18802   */\n      not\n        /* \"#utility.yul\":18788:18793   */\n      dup5\n        /* \"#utility.yul\":18785:18786   */\n      0x08\n        /* \"#utility.yul\":18781:18794   */\n      mul\n        /* \"#utility.yul\":18752:18803   */\n      tag_311\n      jump\t// in\n    tag_519:\n        /* \"#utility.yul\":18748:18804   */\n      not\n        /* \"#utility.yul\":18833:18837   */\n      dup1\n        /* \"#utility.yul\":18827:18831   */\n      dup4\n        /* \"#utility.yul\":18823:18838   */\n      and\n        /* \"#utility.yul\":18813:18838   */\n      swap2\n      pop\n        /* \"#utility.yul\":18726:18844   */\n      pop\n        /* \"#utility.yul\":18675:18844   */\n      swap3\n      swap2\n      pop\n      pop\n      jump\t// out\n        /* \"#utility.yul\":18849:19144   */\n    tag_313:\n        /* \"#utility.yul\":18925:18929   */\n      0x00\n        /* \"#utility.yul\":19071:19100   */\n      tag_521\n        /* \"#utility.yul\":19096:19099   */\n      dup4\n        /* \"#utility.yul\":19090:19094   */\n      dup4\n        /* \"#utility.yul\":19071:19100   */\n      tag_312\n      jump\t// in\n    tag_521:\n        /* \"#utility.yul\":19063:19100   */\n      swap2\n      pop\n        /* \"#utility.yul\":19133:19136   */\n      dup3\n        /* \"#utility.yul\":19130:19131   */\n      0x02\n        /* \"#utility.yul\":19126:19137   */\n      mul\n        /* \"#utility.yul\":19120:19124   */\n      dup3\n        /* \"#utility.yul\":19117:19138   */\n      or\n        /* \"#utility.yul\":19109:19138   */\n      swap1\n      pop\n        /* \"#utility.yul\":18849:19144   */\n      swap3\n      swap2\n      pop\n      pop\n      jump\t// out\n        /* \"#utility.yul\":19149:20600   */\n    tag_145:\n        /* \"#utility.yul\":19260:19263   */\n      dup2\n        /* \"#utility.yul\":19254:19258   */\n      dup2\n        /* \"#utility.yul\":19251:19264   */\n      sub\n        /* \"#utility.yul\":19248:19274   */\n      tag_523\n      jumpi\n        /* \"#utility.yul\":19267:19272   */\n      pop\n      pop\n      jump(tag_522)\n        /* \"#utility.yul\":19248:19274   */\n    tag_523:\n        /* \"#utility.yul\":19298:19332   */\n      tag_524\n        /* \"#utility.yul\":19328:19331   */\n      dup3\n        /* \"#utility.yul\":19298:19332   */\n      tag_298\n      jump\t// in\n    tag_524:\n        /* \"#utility.yul\":19397:19415   */\n      0xffffffffffffffff\n        /* \"#utility.yul\":19389:19395   */\n      dup2\n        /* \"#utility.yul\":19386:19416   */\n      gt\n        /* \"#utility.yul\":19383:19439   */\n      iszero\n      tag_525\n      jumpi\n        /* \"#utility.yul\":19419:19437   */\n      tag_526\n      tag_280\n      jump\t// in\n    tag_526:\n        /* \"#utility.yul\":19383:19439   */\n    tag_525:\n        /* \"#utility.yul\":19463:19501   */\n      tag_527\n        /* \"#utility.yul\":19495:19499   */\n      dup3\n        /* \"#utility.yul\":19489:19500   */\n      sload\n        /* \"#utility.yul\":19463:19501   */\n      tag_101\n      jump\t// in\n    tag_527:\n        /* \"#utility.yul\":19548:19615   */\n      tag_528\n        /* \"#utility.yul\":19608:19614   */\n      dup3\n        /* \"#utility.yul\":19600:19606   */\n      dup3\n        /* \"#utility.yul\":19594:19598   */\n      dup6\n        /* \"#utility.yul\":19548:19615   */\n      tag_310\n      jump\t// in\n    tag_528:\n        /* \"#utility.yul\":19642:19643   */\n      0x00\n        /* \"#utility.yul\":19671:19673   */\n      0x1f\n        /* \"#utility.yul\":19663:19669   */\n      dup4\n        /* \"#utility.yul\":19660:19674   */\n      gt\n        /* \"#utility.yul\":19688:19689   */\n      0x01\n        /* \"#utility.yul\":19683:20355   */\n      dup2\n      eq\n      tag_530\n      jumpi\n        /* \"#utility.yul\":20399:20400   */\n      0x00\n        /* \"#utility.yul\":20416:20422   */\n      dup5\n        /* \"#utility.yul\":20413:20490   */\n      iszero\n      tag_531\n      jumpi\n        /* \"#utility.yul\":20465:20474   */\n      dup3\n        /* \"#utility.yul\":20460:20463   */\n      dup8\n        /* \"#utility.yul\":20456:20475   */\n      add\n        /* \"#utility.yul\":20450:20476   */\n      sload\n        /* \"#utility.yul\":20441:20476   */\n      swap1\n      pop\n        /* \"#utility.yul\":20413:20490   */\n    tag_531:\n        /* \"#utility.yul\":20516:20583   */\n      tag_532\n        /* \"#utility.yul\":20576:20582   */\n      dup6\n        /* \"#utility.yul\":20569:20574   */\n      dup3\n        /* \"#utility.yul\":20516:20583   */\n      tag_313\n      jump\t// in\n    tag_532:\n        /* \"#utility.yul\":20510:20514   */\n      dup7\n        /* \"#utility.yul\":20503:20584   */\n      sstore\n        /* \"#utility.yul\":20372:20594   */\n      pop\n        /* \"#utility.yul\":19653:20594   */\n      jump(tag_529)\n        /* \"#utility.yul\":19683:20355   */\n    tag_530:\n        /* \"#utility.yul\":19735:19739   */\n      0x1f\n        /* \"#utility.yul\":19731:19740   */\n      not\n        /* \"#utility.yul\":19723:19729   */\n      dup5\n        /* \"#utility.yul\":19719:19741   */\n      and\n        /* \"#utility.yul\":19761:19797   */\n      tag_533\n        /* \"#utility.yul\":19793:19796   */\n      dup8\n        /* \"#utility.yul\":19761:19797   */\n      tag_299\n      jump\t// in\n    tag_533:\n        /* \"#utility.yul\":19754:19797   */\n      swap7\n      pop\n        /* \"#utility.yul\":19824:19861   */\n      tag_534\n        /* \"#utility.yul\":19856:19860   */\n      dup7\n        /* \"#utility.yul\":19824:19861   */\n      tag_299\n      jump\t// in\n    tag_534:\n        /* \"#utility.yul\":19883:19884   */\n      0x00\n        /* \"#utility.yul\":19897:20104   */\n    tag_535:\n        /* \"#utility.yul\":19911:19918   */\n      dup3\n        /* \"#utility.yul\":19908:19909   */\n      dup2\n        /* \"#utility.yul\":19905:19919   */\n      lt\n        /* \"#utility.yul\":19897:20104   */\n      iszero\n      tag_537\n      jumpi\n        /* \"#utility.yul\":19990:19999   */\n      dup5\n        /* \"#utility.yul\":19985:19988   */\n      dup10\n        /* \"#utility.yul\":19981:20000   */\n      add\n        /* \"#utility.yul\":19975:20001   */\n      sload\n        /* \"#utility.yul\":19967:19973   */\n      dup3\n        /* \"#utility.yul\":19960:20002   */\n      sstore\n        /* \"#utility.yul\":20041:20042   */\n      0x01\n        /* \"#utility.yul\":20033:20039   */\n      dup3\n        /* \"#utility.yul\":20029:20043   */\n      add\n        /* \"#utility.yul\":20019:20043   */\n      swap2\n      pop\n        /* \"#utility.yul\":20088:20089   */\n      0x01\n        /* \"#utility.yul\":20077:20086   */\n      dup6\n        /* \"#utility.yul\":20073:20090   */\n      add\n        /* \"#utility.yul\":20060:20090   */\n      swap5\n      pop\n        /* \"#utility.yul\":19934:19938   */\n      0x20\n        /* \"#utility.yul\":19931:19932   */\n      dup2\n        /* \"#utility.yul\":19927:19939   */\n      add\n        /* \"#utility.yul\":19922:19939   */\n      swap1\n      pop\n        /* \"#utility.yul\":19897:20104   */\n      jump(tag_535)\n    tag_537:\n        /* \"#utility.yul\":20132:20138   */\n      dup7\n        /* \"#utility.yul\":20123:20130   */\n      dup4\n        /* \"#utility.yul\":20120:20139   */\n      lt\n        /* \"#utility.yul\":20117:20296   */\n      iszero\n      tag_538\n      jumpi\n        /* \"#utility.yul\":20190:20199   */\n      dup5\n        /* \"#utility.yul\":20185:20188   */\n      dup10\n        /* \"#utility.yul\":20181:20200   */\n      add\n        /* \"#utility.yul\":20175:20201   */\n      sload\n        /* \"#utility.yul\":20233:20281   */\n      tag_539\n        /* \"#utility.yul\":20275:20279   */\n      0x1f\n        /* \"#utility.yul\":20267:20273   */\n      dup10\n        /* \"#utility.yul\":20263:20280   */\n      and\n        /* \"#utility.yul\":20252:20261   */\n      dup3\n        /* \"#utility.yul\":20233:20281   */\n      tag_312\n      jump\t// in\n    tag_539:\n        /* \"#utility.yul\":20225:20231   */\n      dup4\n        /* \"#utility.yul\":20218:20282   */\n      sstore\n        /* \"#utility.yul\":20140:20296   */\n      pop\n        /* \"#utility.yul\":20117:20296   */\n    tag_538:\n        /* \"#utility.yul\":20342:20343   */\n      0x01\n        /* \"#utility.yul\":20338:20339   */\n      0x02\n        /* \"#utility.yul\":20330:20336   */\n      dup9\n        /* \"#utility.yul\":20326:20340   */\n      mul\n        /* \"#utility.yul\":20322:20344   */\n      add\n        /* \"#utility.yul\":20316:20320   */\n      dup9\n        /* \"#utility.yul\":20309:20345   */\n      sstore\n        /* \"#utility.yul\":19690:20355   */\n      pop\n      pop\n      pop\n        /* \"#utility.yul\":19653:20594   */\n    tag_529:\n      pop\n        /* \"#utility.yul\":19238:20600   */\n      pop\n      pop\n      pop\n        /* \"#utility.yul\":19149:20600   */\n      pop\n      pop\n    tag_522:\n      jump\t// out\n        /* \"#utility.yul\":20606:20779   */\n    tag_314:\n        /* \"#utility.yul\":20746:20771   */\n      0x4f6e6c79206f776e65722063616e207769746864726177000000000000000000\n        /* \"#utility.yul\":20742:20743   */\n      0x00\n        /* \"#utility.yul\":20734:20740   */\n      dup3\n        /* \"#utility.yul\":20730:20744   */\n      add\n        /* \"#utility.yul\":20723:20772   */\n      mstore\n        /* \"#utility.yul\":20606:20779   */\n      pop\n      jump\t// out\n        /* \"#utility.yul\":20785:21151   */\n    tag_315:\n        /* \"#utility.yul\":20927:20930   */\n      0x00\n        /* \"#utility.yul\":20948:21015   */\n      tag_542\n        /* \"#utility.yul\":21012:21014   */\n      0x17\n        /* \"#utility.yul\":21007:21010   */\n      dup4\n        /* \"#utility.yul\":20948:21015   */\n      tag_274\n      jump\t// in\n    tag_542:\n        /* \"#utility.yul\":20941:21015   */\n      swap2\n      pop\n        /* \"#utility.yul\":21024:21117   */\n      tag_543\n        /* \"#utility.yul\":21113:21116   */\n      dup3\n        /* \"#utility.yul\":21024:21117   */\n      tag_314\n      jump\t// in\n    tag_543:\n        /* \"#utility.yul\":21142:21144   */\n      0x20\n        /* \"#utility.yul\":21137:21140   */\n      dup3\n        /* \"#utility.yul\":21133:21145   */\n      add\n        /* \"#utility.yul\":21126:21145   */\n      swap1\n      pop\n        /* \"#utility.yul\":20785:21151   */\n      swap2\n      swap1\n      pop\n      jump\t// out\n        /* \"#utility.yul\":21157:21576   */\n    tag_163:\n        /* \"#utility.yul\":21323:21327   */\n      0x00\n        /* \"#utility.yul\":21361:21363   */\n      0x20\n        /* \"#utility.yul\":21350:21359   */\n      dup3\n        /* \"#utility.yul\":21346:21364   */\n      add\n        /* \"#utility.yul\":21338:21364   */\n      swap1\n      pop\n        /* \"#utility.yul\":21410:21419   */\n      dup2\n        /* \"#utility.yul\":21404:21408   */\n      dup2\n        /* \"#utility.yul\":21400:21420   */\n      sub\n        /* \"#utility.yul\":21396:21397   */\n      0x00\n        /* \"#utility.yul\":21385:21394   */\n      dup4\n        /* \"#utility.yul\":21381:21398   */\n      add\n        /* \"#utility.yul\":21374:21421   */\n      mstore\n        /* \"#utility.yul\":21438:21569   */\n      tag_545\n        /* \"#utility.yul\":21564:21568   */\n      dup2\n        /* \"#utility.yul\":21438:21569   */\n      tag_315\n      jump\t// in\n    tag_545:\n        /* \"#utility.yul\":21430:21569   */\n      swap1\n      pop\n        /* \"#utility.yul\":21157:21576   */\n      swap2\n      swap1\n      pop\n      jump\t// out\n        /* \"#utility.yul\":21582:21747   */\n    tag_316:\n        /* \"#utility.yul\":21722:21739   */\n      0x5472616e73666572206661696c65640000000000000000000000000000000000\n        /* \"#utility.yul\":21718:21719   */\n      0x00\n        /* \"#utility.yul\":21710:21716   */\n      dup3\n        /* \"#utility.yul\":21706:21720   */\n      add\n        /* \"#utility.yul\":21699:21740   */\n      mstore\n        /* \"#utility.yul\":21582:21747   */\n      pop\n      jump\t// out\n        /* \"#utility.yul\":21753:22119   */\n    tag_317:\n        /* \"#utility.yul\":21895:21898   */\n      0x00\n        /* \"#utility.yul\":21916:21983   */\n      tag_548\n        /* \"#utility.yul\":21980:21982   */\n      0x0f\n        /* \"#utility.yul\":21975:21978   */\n      dup4\n        /* \"#utility.yul\":21916:21983   */\n      tag_274\n      jump\t// in\n    tag_548:\n        /* \"#utility.yul\":21909:21983   */\n      swap2\n      pop\n        /* \"#utility.yul\":21992:22085   */\n      tag_549\n        /* \"#utility.yul\":22081:22084   */\n      dup3\n        /* \"#utility.yul\":21992:22085   */\n      tag_316\n      jump\t// in\n    tag_549:\n        /* \"#utility.yul\":22110:22112   */\n      0x20\n        /* \"#utility.yul\":22105:22108   */\n      dup3\n        /* \"#utility.yul\":22101:22113   */\n      add\n        /* \"#utility.yul\":22094:22113   */\n      swap1\n      pop\n        /* \"#utility.yul\":21753:22119   */\n      swap2\n      swap1\n      pop\n      jump\t// out\n        /* \"#utility.yul\":22125:22544   */\n    tag_170:\n        /* \"#utility.yul\":22291:22295   */\n      0x00\n        /* \"#utility.yul\":22329:22331   */\n      0x20\n        /* \"#utility.yul\":22318:22327   */\n      dup3\n        /* \"#utility.yul\":22314:22332   */\n      add\n        /* \"#utility.yul\":22306:22332   */\n      swap1\n      pop\n        /* \"#utility.yul\":22378:22387   */\n      dup2\n        /* \"#utility.yul\":22372:22376   */\n      dup2\n        /* \"#utility.yul\":22368:22388   */\n      sub\n        /* \"#utility.yul\":22364:22365   */\n      0x00\n        /* \"#utility.yul\":22353:22362   */\n      dup4\n        /* \"#utility.yul\":22349:22366   */\n      add\n        /* \"#utility.yul\":22342:22389   */\n      mstore\n        /* \"#utility.yul\":22406:22537   */\n      tag_551\n        /* \"#utility.yul\":22532:22536   */\n      dup2\n        /* \"#utility.yul\":22406:22537   */\n      tag_317\n      jump\t// in\n    tag_551:\n        /* \"#utility.yul\":22398:22537   */\n      swap1\n      pop\n        /* \"#utility.yul\":22125:22544   */\n      swap2\n      swap1\n      pop\n      jump\t// out\n        /* \"#utility.yul\":22550:22718   */\n    tag_318:\n        /* \"#utility.yul\":22690:22710   */\n      0x496e636f7272656374204554482073656e740000000000000000000000000000\n        /* \"#utility.yul\":22686:22687   */\n      0x00\n        /* \"#utility.yul\":22678:22684   */\n      dup3\n        /* \"#utility.yul\":22674:22688   */\n      add\n        /* \"#utility.yul\":22667:22711   */\n      mstore\n        /* \"#utility.yul\":22550:22718   */\n      pop\n      jump\t// out\n        /* \"#utility.yul\":22724:23090   */\n    tag_319:\n        /* \"#utility.yul\":22866:22869   */\n      0x00\n        /* \"#utility.yul\":22887:22954   */\n      tag_554\n        /* \"#utility.yul\":22951:22953   */\n      0x12\n        /* \"#utility.yul\":22946:22949   */\n      dup4\n        /* \"#utility.yul\":22887:22954   */\n      tag_274\n      jump\t// in\n    tag_554:\n        /* \"#utility.yul\":22880:22954   */\n      swap2\n      pop\n        /* \"#utility.yul\":22963:23056   */\n      tag_555\n        /* \"#utility.yul\":23052:23055   */\n      dup3\n        /* \"#utility.yul\":22963:23056   */\n      tag_318\n      jump\t// in\n    tag_555:\n        /* \"#utility.yul\":23081:23083   */\n      0x20\n        /* \"#utility.yul\":23076:23079   */\n      dup3\n        /* \"#utility.yul\":23072:23084   */\n      add\n        /* \"#utility.yul\":23065:23084   */\n      swap1\n      pop\n        /* \"#utility.yul\":22724:23090   */\n      swap2\n      swap1\n      pop\n      jump\t// out\n        /* \"#utility.yul\":23096:23515   */\n    tag_174:\n        /* \"#utility.yul\":23262:23266   */\n      0x00\n        /* \"#utility.yul\":23300:23302   */\n      0x20\n        /* \"#utility.yul\":23289:23298   */\n      dup3\n        /* \"#utility.yul\":23285:23303   */\n      add\n        /* \"#utility.yul\":23277:23303   */\n      swap1\n      pop\n        /* \"#utility.yul\":23349:23358   */\n      dup2\n        /* \"#utility.yul\":23343:23347   */\n      dup2\n        /* \"#utility.yul\":23339:23359   */\n      sub\n        /* \"#utility.yul\":23335:23336   */\n      0x00\n        /* \"#utility.yul\":23324:23333   */\n      dup4\n        /* \"#utility.yul\":23320:23337   */\n      add\n        /* \"#utility.yul\":23313:23360   */\n      mstore\n        /* \"#utility.yul\":23377:23508   */\n      tag_557\n        /* \"#utility.yul\":23503:23507   */\n      dup2\n        /* \"#utility.yul\":23377:23508   */\n      tag_319\n      jump\t// in\n    tag_557:\n        /* \"#utility.yul\":23369:23508   */\n      swap1\n      pop\n        /* \"#utility.yul\":23096:23515   */\n      swap2\n      swap1\n      pop\n      jump\t// out\n        /* \"#utility.yul\":23521:23687   */\n    tag_320:\n        /* \"#utility.yul\":23661:23679   */\n      0x4e6f20626f78657320746f206f70656e00000000000000000000000000000000\n        /* \"#utility.yul\":23657:23658   */\n      0x00\n        /* \"#utility.yul\":23649:23655   */\n      dup3\n        /* \"#utility.yul\":23645:23659   */\n      add\n        /* \"#utility.yul\":23638:23680   */\n      mstore\n        /* \"#utility.yul\":23521:23687   */\n      pop\n      jump\t// out\n        /* \"#utility.yul\":23693:24059   */\n    tag_321:\n        /* \"#utility.yul\":23835:23838   */\n      0x00\n        /* \"#utility.yul\":23856:23923   */\n      tag_560\n        /* \"#utility.yul\":23920:23922   */\n      0x10\n        /* \"#utility.yul\":23915:23918   */\n      dup4\n        /* \"#utility.yul\":23856:23923   */\n      tag_274\n      jump\t// in\n    tag_560:\n        /* \"#utility.yul\":23849:23923   */\n      swap2\n      pop\n        /* \"#utility.yul\":23932:24025   */\n      tag_561\n        /* \"#utility.yul\":24021:24024   */\n      dup3\n        /* \"#utility.yul\":23932:24025   */\n      tag_320\n      jump\t// in\n    tag_561:\n        /* \"#utility.yul\":24050:24052   */\n      0x20\n        /* \"#utility.yul\":24045:24048   */\n      dup3\n        /* \"#utility.yul\":24041:24053   */\n      add\n        /* \"#utility.yul\":24034:24053   */\n      swap1\n      pop\n        /* \"#utility.yul\":23693:24059   */\n      swap2\n      swap1\n      pop\n      jump\t// out\n        /* \"#utility.yul\":24065:24484   */\n    tag_187:\n        /* \"#utility.yul\":24231:24235   */\n      0x00\n        /* \"#utility.yul\":24269:24271   */\n      0x20\n        /* \"#utility.yul\":24258:24267   */\n      dup3\n        /* \"#utility.yul\":24254:24272   */\n      add\n        /* \"#utility.yul\":24246:24272   */\n      swap1\n      pop\n        /* \"#utility.yul\":24318:24327   */\n      dup2\n        /* \"#utility.yul\":24312:24316   */\n      dup2\n        /* \"#utility.yul\":24308:24328   */\n      sub\n        /* \"#utility.yul\":24304:24305   */\n      0x00\n        /* \"#utility.yul\":24293:24302   */\n      dup4\n        /* \"#utility.yul\":24289:24306   */\n      add\n        /* \"#utility.yul\":24282:24329   */\n      mstore\n        /* \"#utility.yul\":24346:24477   */\n      tag_563\n        /* \"#utility.yul\":24472:24476   */\n      dup2\n        /* \"#utility.yul\":24346:24477   */\n      tag_321\n      jump\t// in\n    tag_563:\n        /* \"#utility.yul\":24338:24477   */\n      swap1\n      pop\n        /* \"#utility.yul\":24065:24484   */\n      swap2\n      swap1\n      pop\n      jump\t// out\n        /* \"#utility.yul\":24490:24569   */\n    tag_322:\n        /* \"#utility.yul\":24529:24536   */\n      0x00\n        /* \"#utility.yul\":24558:24563   */\n      dup2\n        /* \"#utility.yul\":24547:24563   */\n      swap1\n      pop\n        /* \"#utility.yul\":24490:24569   */\n      swap2\n      swap1\n      pop\n      jump\t// out\n        /* \"#utility.yul\":24575:24732   */\n    tag_323:\n        /* \"#utility.yul\":24680:24725   */\n      tag_566\n        /* \"#utility.yul\":24700:24724   */\n      tag_567\n        /* \"#utility.yul\":24718:24723   */\n      dup3\n        /* \"#utility.yul\":24700:24724   */\n      tag_259\n      jump\t// in\n    tag_567:\n        /* \"#utility.yul\":24680:24725   */\n      tag_322\n      jump\t// in\n    tag_566:\n        /* \"#utility.yul\":24675:24678   */\n      dup3\n        /* \"#utility.yul\":24668:24726   */\n      mstore\n        /* \"#utility.yul\":24575:24732   */\n      pop\n      pop\n      jump\t// out\n        /* \"#utility.yul\":24738:24832   */\n    tag_324:\n        /* \"#utility.yul\":24771:24779   */\n      0x00\n        /* \"#utility.yul\":24819:24824   */\n      dup2\n        /* \"#utility.yul\":24815:24817   */\n      0x60\n        /* \"#utility.yul\":24811:24825   */\n      shl\n        /* \"#utility.yul\":24790:24825   */\n      swap1\n      pop\n        /* \"#utility.yul\":24738:24832   */\n      swap2\n      swap1\n      pop\n      jump\t// out\n        /* \"#utility.yul\":24838:24932   */\n    tag_325:\n        /* \"#utility.yul\":24877:24884   */\n      0x00\n        /* \"#utility.yul\":24906:24926   */\n      tag_570\n        /* \"#utility.yul\":24920:24925   */\n      dup3\n        /* \"#utility.yul\":24906:24926   */\n      tag_324\n      jump\t// in\n    tag_570:\n        /* \"#utility.yul\":24895:24926   */\n      swap1\n      pop\n        /* \"#utility.yul\":24838:24932   */\n      swap2\n      swap1\n      pop\n      jump\t// out\n        /* \"#utility.yul\":24938:25038   */\n    tag_326:\n        /* \"#utility.yul\":24977:24984   */\n      0x00\n        /* \"#utility.yul\":25006:25032   */\n      tag_572\n        /* \"#utility.yul\":25026:25031   */\n      dup3\n        /* \"#utility.yul\":25006:25032   */\n      tag_325\n      jump\t// in\n    tag_572:\n        /* \"#utility.yul\":24995:25032   */\n      swap1\n      pop\n        /* \"#utility.yul\":24938:25038   */\n      swap2\n      swap1\n      pop\n      jump\t// out\n        /* \"#utility.yul\":25044:25201   */\n    tag_327:\n        /* \"#utility.yul\":25149:25194   */\n      tag_574\n        /* \"#utility.yul\":25169:25193   */\n      tag_575\n        /* \"#utility.yul\":25187:25192   */\n      dup3\n        /* \"#utility.yul\":25169:25193   */\n      tag_269\n      jump\t// in\n    tag_575:\n        /* \"#utility.yul\":25149:25194   */\n      tag_326\n      jump\t// in\n    tag_574:\n        /* \"#utility.yul\":25144:25147   */\n      dup3\n        /* \"#utility.yul\":25137:25195   */\n      mstore\n        /* \"#utility.yul\":25044:25201   */\n      pop\n      pop\n      jump\t// out\n        /* \"#utility.yul\":25207:25604   */\n    tag_189:\n        /* \"#utility.yul\":25347:25350   */\n      0x00\n        /* \"#utility.yul\":25362:25437   */\n      tag_577\n        /* \"#utility.yul\":25433:25436   */\n      dup3\n        /* \"#utility.yul\":25424:25430   */\n      dup6\n        /* \"#utility.yul\":25362:25437   */\n      tag_323\n      jump\t// in\n    tag_577:\n        /* \"#utility.yul\":25462:25464   */\n      0x20\n        /* \"#utility.yul\":25457:25460   */\n      dup3\n        /* \"#utility.yul\":25453:25465   */\n      add\n        /* \"#utility.yul\":25446:25465   */\n      swap2\n      pop\n        /* \"#utility.yul\":25475:25550   */\n      tag_578\n        /* \"#utility.yul\":25546:25549   */\n      dup3\n        /* \"#utility.yul\":25537:25543   */\n      dup5\n        /* \"#utility.yul\":25475:25550   */\n      tag_327\n      jump\t// in\n    tag_578:\n        /* \"#utility.yul\":25575:25577   */\n      0x14\n        /* \"#utility.yul\":25570:25573   */\n      dup3\n        /* \"#utility.yul\":25566:25578   */\n      add\n        /* \"#utility.yul\":25559:25578   */\n      swap2\n      pop\n        /* \"#utility.yul\":25595:25598   */\n      dup2\n        /* \"#utility.yul\":25588:25598   */\n      swap1\n      pop\n        /* \"#utility.yul\":25207:25604   */\n      swap4\n      swap3\n      pop\n      pop\n      pop\n      jump\t// out\n        /* \"#utility.yul\":25610:25790   */\n    tag_328:\n        /* \"#utility.yul\":25658:25735   */\n      0x4e487b7100000000000000000000000000000000000000000000000000000000\n        /* \"#utility.yul\":25655:25656   */\n      0x00\n        /* \"#utility.yul\":25648:25736   */\n      mstore\n        /* \"#utility.yul\":25755:25759   */\n      0x12\n        /* \"#utility.yul\":25752:25753   */\n      0x04\n        /* \"#utility.yul\":25745:25760   */\n      mstore\n        /* \"#utility.yul\":25779:25783   */\n      0x24\n        /* \"#utility.yul\":25776:25777   */\n      0x00\n        /* \"#utility.yul\":25769:25784   */\n      revert\n        /* \"#utility.yul\":25796:25972   */\n    tag_191:\n        /* \"#utility.yul\":25828:25829   */\n      0x00\n        /* \"#utility.yul\":25845:25865   */\n      tag_581\n        /* \"#utility.yul\":25863:25864   */\n      dup3\n        /* \"#utility.yul\":25845:25865   */\n      tag_259\n      jump\t// in\n    tag_581:\n        /* \"#utility.yul\":25840:25865   */\n      swap2\n      pop\n        /* \"#utility.yul\":25879:25899   */\n      tag_582\n        /* \"#utility.yul\":25897:25898   */\n      dup4\n        /* \"#utility.yul\":25879:25899   */\n      tag_259\n      jump\t// in\n    tag_582:\n        /* \"#utility.yul\":25874:25899   */\n      swap3\n      pop\n        /* \"#utility.yul\":25918:25919   */\n      dup3\n        /* \"#utility.yul\":25908:25943   */\n      tag_583\n      jumpi\n        /* \"#utility.yul\":25923:25941   */\n      tag_584\n      tag_328\n      jump\t// in\n    tag_584:\n        /* \"#utility.yul\":25908:25943   */\n    tag_583:\n        /* \"#utility.yul\":25964:25965   */\n      dup3\n        /* \"#utility.yul\":25961:25962   */\n      dup3\n        /* \"#utility.yul\":25957:25966   */\n      mod\n        /* \"#utility.yul\":25952:25966   */\n      swap1\n      pop\n        /* \"#utility.yul\":25796:25972   */\n      swap3\n      swap2\n      pop\n      pop\n      jump\t// out\n        /* \"#utility.yul\":25978:27373   */\n    tag_195:\n        /* \"#utility.yul\":26095:26132   */\n      tag_586\n        /* \"#utility.yul\":26128:26131   */\n      dup3\n        /* \"#utility.yul\":26095:26132   */\n      tag_254\n      jump\t// in\n    tag_586:\n        /* \"#utility.yul\":26197:26215   */\n      0xffffffffffffffff\n        /* \"#utility.yul\":26189:26195   */\n      dup2\n        /* \"#utility.yul\":26186:26216   */\n      gt\n        /* \"#utility.yul\":26183:26239   */\n      iszero\n      tag_587\n      jumpi\n        /* \"#utility.yul\":26219:26237   */\n      tag_588\n      tag_280\n      jump\t// in\n    tag_588:\n        /* \"#utility.yul\":26183:26239   */\n    tag_587:\n        /* \"#utility.yul\":26263:26301   */\n      tag_589\n        /* \"#utility.yul\":26295:26299   */\n      dup3\n        /* \"#utility.yul\":26289:26300   */\n      sload\n        /* \"#utility.yul\":26263:26301   */\n      tag_101\n      jump\t// in\n    tag_589:\n        /* \"#utility.yul\":26348:26415   */\n      tag_590\n        /* \"#utility.yul\":26408:26414   */\n      dup3\n        /* \"#utility.yul\":26400:26406   */\n      dup3\n        /* \"#utility.yul\":26394:26398   */\n      dup6\n        /* \"#utility.yul\":26348:26415   */\n      tag_310\n      jump\t// in\n    tag_590:\n        /* \"#utility.yul\":26442:26443   */\n      0x00\n        /* \"#utility.yul\":26466:26470   */\n      0x20\n        /* \"#utility.yul\":26453:26470   */\n      swap1\n      pop\n        /* \"#utility.yul\":26498:26500   */\n      0x1f\n        /* \"#utility.yul\":26490:26496   */\n      dup4\n        /* \"#utility.yul\":26487:26501   */\n      gt\n        /* \"#utility.yul\":26515:26516   */\n      0x01\n        /* \"#utility.yul\":26510:27128   */\n      dup2\n      eq\n      tag_592\n      jumpi\n        /* \"#utility.yul\":27172:27173   */\n      0x00\n        /* \"#utility.yul\":27189:27195   */\n      dup5\n        /* \"#utility.yul\":27186:27263   */\n      iszero\n      tag_593\n      jumpi\n        /* \"#utility.yul\":27238:27247   */\n      dup3\n        /* \"#utility.yul\":27233:27236   */\n      dup8\n        /* \"#utility.yul\":27229:27248   */\n      add\n        /* \"#utility.yul\":27223:27249   */\n      mload\n        /* \"#utility.yul\":27214:27249   */\n      swap1\n      pop\n        /* \"#utility.yul\":27186:27263   */\n    tag_593:\n        /* \"#utility.yul\":27289:27356   */\n      tag_594\n        /* \"#utility.yul\":27349:27355   */\n      dup6\n        /* \"#utility.yul\":27342:27347   */\n      dup3\n        /* \"#utility.yul\":27289:27356   */\n      tag_313\n      jump\t// in\n    tag_594:\n        /* \"#utility.yul\":27283:27287   */\n      dup7\n        /* \"#utility.yul\":27276:27357   */\n      sstore\n        /* \"#utility.yul\":27145:27367   */\n      pop\n        /* \"#utility.yul\":26480:27367   */\n      jump(tag_591)\n        /* \"#utility.yul\":26510:27128   */\n    tag_592:\n        /* \"#utility.yul\":26562:26566   */\n      0x1f\n        /* \"#utility.yul\":26558:26567   */\n      not\n        /* \"#utility.yul\":26550:26556   */\n      dup5\n        /* \"#utility.yul\":26546:26568   */\n      and\n        /* \"#utility.yul\":26596:26633   */\n      tag_595\n        /* \"#utility.yul\":26628:26632   */\n      dup7\n        /* \"#utility.yul\":26596:26633   */\n      tag_299\n      jump\t// in\n    tag_595:\n        /* \"#utility.yul\":26655:26656   */\n      0x00\n        /* \"#utility.yul\":26669:26877   */\n    tag_596:\n        /* \"#utility.yul\":26683:26690   */\n      dup3\n        /* \"#utility.yul\":26680:26681   */\n      dup2\n        /* \"#utility.yul\":26677:26691   */\n      lt\n        /* \"#utility.yul\":26669:26877   */\n      iszero\n      tag_598\n      jumpi\n        /* \"#utility.yul\":26762:26771   */\n      dup5\n        /* \"#utility.yul\":26757:26760   */\n      dup10\n        /* \"#utility.yul\":26753:26772   */\n      add\n        /* \"#utility.yul\":26747:26773   */\n      mload\n        /* \"#utility.yul\":26739:26745   */\n      dup3\n        /* \"#utility.yul\":26732:26774   */\n      sstore\n        /* \"#utility.yul\":26813:26814   */\n      0x01\n        /* \"#utility.yul\":26805:26811   */\n      dup3\n        /* \"#utility.yul\":26801:26815   */\n      add\n        /* \"#utility.yul\":26791:26815   */\n      swap2\n      pop\n        /* \"#utility.yul\":26860:26862   */\n      0x20\n        /* \"#utility.yul\":26849:26858   */\n      dup6\n        /* \"#utility.yul\":26845:26863   */\n      add\n        /* \"#utility.yul\":26832:26863   */\n      swap5\n      pop\n        /* \"#utility.yul\":26706:26710   */\n      0x20\n        /* \"#utility.yul\":26703:26704   */\n      dup2\n        /* \"#utility.yul\":26699:26711   */\n      add\n        /* \"#utility.yul\":26694:26711   */\n      swap1\n      pop\n        /* \"#utility.yul\":26669:26877   */\n      jump(tag_596)\n    tag_598:\n        /* \"#utility.yul\":26905:26911   */\n      dup7\n        /* \"#utility.yul\":26896:26903   */\n      dup4\n        /* \"#utility.yul\":26893:26912   */\n      lt\n        /* \"#utility.yul\":26890:27069   */\n      iszero\n      tag_599\n      jumpi\n        /* \"#utility.yul\":26963:26972   */\n      dup5\n        /* \"#utility.yul\":26958:26961   */\n      dup10\n        /* \"#utility.yul\":26954:26973   */\n      add\n        /* \"#utility.yul\":26948:26974   */\n      mload\n        /* \"#utility.yul\":27006:27054   */\n      tag_600\n        /* \"#utility.yul\":27048:27052   */\n      0x1f\n        /* \"#utility.yul\":27040:27046   */\n      dup10\n        /* \"#utility.yul\":27036:27053   */\n      and\n        /* \"#utility.yul\":27025:27034   */\n      dup3\n        /* \"#utility.yul\":27006:27054   */\n      tag_312\n      jump\t// in\n    tag_600:\n        /* \"#utility.yul\":26998:27004   */\n      dup4\n        /* \"#utility.yul\":26991:27055   */\n      sstore\n        /* \"#utility.yul\":26913:27069   */\n      pop\n        /* \"#utility.yul\":26890:27069   */\n    tag_599:\n        /* \"#utility.yul\":27115:27116   */\n      0x01\n        /* \"#utility.yul\":27111:27112   */\n      0x02\n        /* \"#utility.yul\":27103:27109   */\n      dup9\n        /* \"#utility.yul\":27099:27113   */\n      mul\n        /* \"#utility.yul\":27095:27117   */\n      add\n        /* \"#utility.yul\":27089:27093   */\n      dup9\n        /* \"#utility.yul\":27082:27118   */\n      sstore\n        /* \"#utility.yul\":26517:27128   */\n      pop\n      pop\n      pop\n        /* \"#utility.yul\":26480:27367   */\n    tag_591:\n      pop\n        /* \"#utility.yul\":26070:27373   */\n      pop\n      pop\n      pop\n        /* \"#utility.yul\":25978:27373   */\n      pop\n      pop\n      jump\t// out\n        /* \"#utility.yul\":27379:27573   */\n    tag_208:\n        /* \"#utility.yul\":27419:27423   */\n      0x00\n        /* \"#utility.yul\":27439:27459   */\n      tag_602\n        /* \"#utility.yul\":27457:27458   */\n      dup3\n        /* \"#utility.yul\":27439:27459   */\n      tag_259\n      jump\t// in\n    tag_602:\n        /* \"#utility.yul\":27434:27459   */\n      swap2\n      pop\n        /* \"#utility.yul\":27473:27493   */\n      tag_603\n        /* \"#utility.yul\":27491:27492   */\n      dup4\n        /* \"#utility.yul\":27473:27493   */\n      tag_259\n      jump\t// in\n    tag_603:\n        /* \"#utility.yul\":27468:27493   */\n      swap3\n      pop\n        /* \"#utility.yul\":27517:27518   */\n      dup3\n        /* \"#utility.yul\":27514:27515   */\n      dup3\n        /* \"#utility.yul\":27510:27519   */\n      sub\n        /* \"#utility.yul\":27502:27519   */\n      swap1\n      pop\n        /* \"#utility.yul\":27541:27542   */\n      dup2\n        /* \"#utility.yul\":27535:27539   */\n      dup2\n        /* \"#utility.yul\":27532:27543   */\n      gt\n        /* \"#utility.yul\":27529:27566   */\n      iszero\n      tag_604\n      jumpi\n        /* \"#utility.yul\":27546:27564   */\n      tag_605\n      tag_288\n      jump\t// in\n    tag_605:\n        /* \"#utility.yul\":27529:27566   */\n    tag_604:\n        /* \"#utility.yul\":27379:27573   */\n      swap3\n      swap2\n      pop\n      pop\n      jump\t// out\n        /* \"#utility.yul\":27579:27755   */\n    tag_329:\n        /* \"#utility.yul\":27719:27747   */\n      0x4f6e6c79206f776e65722063616e206164642072657761726473000000000000\n        /* \"#utility.yul\":27715:27716   */\n      0x00\n        /* \"#utility.yul\":27707:27713   */\n      dup3\n        /* \"#utility.yul\":27703:27717   */\n      add\n        /* \"#utility.yul\":27696:27748   */\n      mstore\n        /* \"#utility.yul\":27579:27755   */\n      pop\n      jump\t// out\n        /* \"#utility.yul\":27761:28127   */\n    tag_330:\n        /* \"#utility.yul\":27903:27906   */\n      0x00\n        /* \"#utility.yul\":27924:27991   */\n      tag_608\n        /* \"#utility.yul\":27988:27990   */\n      0x1a\n        /* \"#utility.yul\":27983:27986   */\n      dup4\n        /* \"#utility.yul\":27924:27991   */\n      tag_274\n      jump\t// in\n    tag_608:\n        /* \"#utility.yul\":27917:27991   */\n      swap2\n      pop\n        /* \"#utility.yul\":28000:28093   */\n      tag_609\n        /* \"#utility.yul\":28089:28092   */\n      dup3\n        /* \"#utility.yul\":28000:28093   */\n      tag_329\n      jump\t// in\n    tag_609:\n        /* \"#utility.yul\":28118:28120   */\n      0x20\n        /* \"#utility.yul\":28113:28116   */\n      dup3\n        /* \"#utility.yul\":28109:28121   */\n      add\n        /* \"#utility.yul\":28102:28121   */\n      swap1\n      pop\n        /* \"#utility.yul\":27761:28127   */\n      swap2\n      swap1\n      pop\n      jump\t// out\n        /* \"#utility.yul\":28133:28552   */\n    tag_212:\n        /* \"#utility.yul\":28299:28303   */\n      0x00\n        /* \"#utility.yul\":28337:28339   */\n      0x20\n        /* \"#utility.yul\":28326:28335   */\n      dup3\n        /* \"#utility.yul\":28322:28340   */\n      add\n        /* \"#utility.yul\":28314:28340   */\n      swap1\n      pop\n        /* \"#utility.yul\":28386:28395   */\n      dup2\n        /* \"#utility.yul\":28380:28384   */\n      dup2\n        /* \"#utility.yul\":28376:28396   */\n      sub\n        /* \"#utility.yul\":28372:28373   */\n      0x00\n        /* \"#utility.yul\":28361:28370   */\n      dup4\n        /* \"#utility.yul\":28357:28374   */\n      add\n        /* \"#utility.yul\":28350:28397   */\n      mstore\n        /* \"#utility.yul\":28414:28545   */\n      tag_611\n        /* \"#utility.yul\":28540:28544   */\n      dup2\n        /* \"#utility.yul\":28414:28545   */\n      tag_330\n      jump\t// in\n    tag_611:\n        /* \"#utility.yul\":28406:28545   */\n      swap1\n      pop\n        /* \"#utility.yul\":28133:28552   */\n      swap2\n      swap1\n      pop\n      jump\t// out\n        /* \"#utility.yul\":28558:28726   */\n    tag_331:\n        /* \"#utility.yul\":28698:28718   */\n      0x4e6f2072657761726420746f20636c61696d0000000000000000000000000000\n        /* \"#utility.yul\":28694:28695   */\n      0x00\n        /* \"#utility.yul\":28686:28692   */\n      dup3\n        /* \"#utility.yul\":28682:28696   */\n      add\n        /* \"#utility.yul\":28675:28719   */\n      mstore\n        /* \"#utility.yul\":28558:28726   */\n      pop\n      jump\t// out\n        /* \"#utility.yul\":28732:29098   */\n    tag_332:\n        /* \"#utility.yul\":28874:28877   */\n      0x00\n        /* \"#utility.yul\":28895:28962   */\n      tag_614\n        /* \"#utility.yul\":28959:28961   */\n      0x12\n        /* \"#utility.yul\":28954:28957   */\n      dup4\n        /* \"#utility.yul\":28895:28962   */\n      tag_274\n      jump\t// in\n    tag_614:\n        /* \"#utility.yul\":28888:28962   */\n      swap2\n      pop\n        /* \"#utility.yul\":28971:29064   */\n      tag_615\n        /* \"#utility.yul\":29060:29063   */\n      dup3\n        /* \"#utility.yul\":28971:29064   */\n      tag_331\n      jump\t// in\n    tag_615:\n        /* \"#utility.yul\":29089:29091   */\n      0x20\n        /* \"#utility.yul\":29084:29087   */\n      dup3\n        /* \"#utility.yul\":29080:29092   */\n      add\n        /* \"#utility.yul\":29073:29092   */\n      swap1\n      pop\n        /* \"#utility.yul\":28732:29098   */\n      swap2\n      swap1\n      pop\n      jump\t// out\n        /* \"#utility.yul\":29104:29523   */\n    tag_223:\n        /* \"#utility.yul\":29270:29274   */\n      0x00\n        /* \"#utility.yul\":29308:29310   */\n      0x20\n        /* \"#utility.yul\":29297:29306   */\n      dup3\n        /* \"#utility.yul\":29293:29311   */\n      add\n        /* \"#utility.yul\":29285:29311   */\n      swap1\n      pop\n        /* \"#utility.yul\":29357:29366   */\n      dup2\n        /* \"#utility.yul\":29351:29355   */\n      dup2\n        /* \"#utility.yul\":29347:29367   */\n      sub\n        /* \"#utility.yul\":29343:29344   */\n      0x00\n        /* \"#utility.yul\":29332:29341   */\n      dup4\n        /* \"#utility.yul\":29328:29345   */\n      add\n        /* \"#utility.yul\":29321:29368   */\n      mstore\n        /* \"#utility.yul\":29385:29516   */\n      tag_617\n        /* \"#utility.yul\":29511:29515   */\n      dup2\n        /* \"#utility.yul\":29385:29516   */\n      tag_332\n      jump\t// in\n    tag_617:\n        /* \"#utility.yul\":29377:29516   */\n      swap1\n      pop\n        /* \"#utility.yul\":29104:29523   */\n      swap2\n      swap1\n      pop\n      jump\t// out\n        /* \"#utility.yul\":29529:29703   */\n    tag_333:\n        /* \"#utility.yul\":29669:29695   */\n      0x4f6e6c79206f776e65722063616e207365742070726963650000000000000000\n        /* \"#utility.yul\":29665:29666   */\n      0x00\n        /* \"#utility.yul\":29657:29663   */\n      dup3\n        /* \"#utility.yul\":29653:29667   */\n      add\n        /* \"#utility.yul\":29646:29696   */\n      mstore\n        /* \"#utility.yul\":29529:29703   */\n      pop\n      jump\t// out\n        /* \"#utility.yul\":29709:30075   */\n    tag_334:\n        /* \"#utility.yul\":29851:29854   */\n      0x00\n        /* \"#utility.yul\":29872:29939   */\n      tag_620\n        /* \"#utility.yul\":29936:29938   */\n      0x18\n        /* \"#utility.yul\":29931:29934   */\n      dup4\n        /* \"#utility.yul\":29872:29939   */\n      tag_274\n      jump\t// in\n    tag_620:\n        /* \"#utility.yul\":29865:29939   */\n      swap2\n      pop\n        /* \"#utility.yul\":29948:30041   */\n      tag_621\n        /* \"#utility.yul\":30037:30040   */\n      dup3\n        /* \"#utility.yul\":29948:30041   */\n      tag_333\n      jump\t// in\n    tag_621:\n        /* \"#utility.yul\":30066:30068   */\n      0x20\n        /* \"#utility.yul\":30061:30064   */\n      dup3\n        /* \"#utility.yul\":30057:30069   */\n      add\n        /* \"#utility.yul\":30050:30069   */\n      swap1\n      pop\n        /* \"#utility.yul\":29709:30075   */\n      swap2\n      swap1\n      pop\n      jump\t// out\n        /* \"#utility.yul\":30081:30500   */\n    tag_237:\n        /* \"#utility.yul\":30247:30251   */\n      0x00\n        /* \"#utility.yul\":30285:30287   */\n      0x20\n        /* \"#utility.yul\":30274:30283   */\n      dup3\n        /* \"#utility.yul\":30270:30288   */\n      add\n        /* \"#utility.yul\":30262:30288   */\n      swap1\n      pop\n        /* \"#utility.yul\":30334:30343   */\n      dup2\n        /* \"#utility.yul\":30328:30332   */\n      dup2\n        /* \"#utility.yul\":30324:30344   */\n      sub\n        /* \"#utility.yul\":30320:30321   */\n      0x00\n        /* \"#utility.yul\":30309:30318   */\n      dup4\n        /* \"#utility.yul\":30305:30322   */\n      add\n        /* \"#utility.yul\":30298:30345   */\n      mstore\n        /* \"#utility.yul\":30362:30493   */\n      tag_623\n        /* \"#utility.yul\":30488:30492   */\n      dup2\n        /* \"#utility.yul\":30362:30493   */\n      tag_334\n      jump\t// in\n    tag_623:\n        /* \"#utility.yul\":30354:30493   */\n      swap1\n      pop\n        /* \"#utility.yul\":30081:30500   */\n      swap2\n      swap1\n      pop\n      jump\t// out\n\n    auxdata: 0xa2646970667358221220a5cca13ed5e8ee00fcbf257e6b1216aef15bcf84b99a745220fb0b70ff5052d364736f6c634300081a0033\n}\n",
				"bytecode": {
					"linkReferences": {},
					"object": "6080604052335f806101000a81548173ffffffffffffffffffffffffffffffffffffffff021916908373ffffffffffffffffffffffffffffffffffffffff16021790555067016345785d8a000060018190555067016345785d8a000034101561009d576040517f08c379a00000000000000000000000000000000000000000000000000000000081526004016100949061035c565b60405180910390fd5b600460405180604001604052806040518060400160405280600981526020017f476f6c6420436f696e000000000000000000000000000000000000000000000081525081526020016706f05b59d3b20000815250908060018154018082558091505060019003905f5260205f2090600202015f909190919091505f820151815f01908161012a91906105b4565b50602082015181600101555050600460405180604001604052806040518060400160405280600b81526020017f53696c76657220436f696e00000000000000000000000000000000000000000081525081526020016703782dace9d90000815250908060018154018082558091505060019003905f5260205f2090600202015f909190919091505f820151815f0190816101c491906105b4565b50602082015181600101555050600460405180604001604052806040518060400160405280600b81526020017f42726f6e7a6520436f696e000000000000000000000000000000000000000000815250815260200167016345785d8a0000815250908060018154018082558091505060019003905f5260205f2090600202015f909190919091505f820151815f01908161025e91906105b4565b50602082015181600101555050600460405180604001604052806040518060400160405280600481526020017f436f616c0000000000000000000000000000000000000000000000000000000081525081526020015f815250908060018154018082558091505060019003905f5260205f2090600202015f909190919091505f820151815f0190816102f091906105b4565b50602082015181600101555050610683565b5f82825260208201905092915050565b7f496e636f7272656374204554482073656e7400000000000000000000000000005f82015250565b5f610346601283610302565b915061035182610312565b602082019050919050565b5f6020820190508181035f8301526103738161033a565b9050919050565b5f81519050919050565b7f4e487b71000000000000000000000000000000000000000000000000000000005f52604160045260245ffd5b7f4e487b71000000000000000000000000000000000000000000000000000000005f52602260045260245ffd5b5f60028204905060018216806103f557607f821691505b602082108103610408576104076103b1565b5b50919050565b5f819050815f5260205f209050919050565b5f6020601f8301049050919050565b5f82821b905092915050565b5f6008830261046a7fffffffffffffffffffffffffffffffffffffffffffffffffffffffffffffffff8261042f565b610474868361042f565b95508019841693508086168417925050509392505050565b5f819050919050565b5f819050919050565b5f6104b86104b36104ae8461048c565b610495565b61048c565b9050919050565b5f819050919050565b6104d18361049e565b6104e56104dd826104bf565b84845461043b565b825550505050565b5f90565b6104f96104ed565b6105048184846104c8565b505050565b5b818110156105275761051c5f826104f1565b60018101905061050a565b5050565b601f82111561056c5761053d8161040e565b61054684610420565b81016020851015610555578190505b61056961056185610420565b830182610509565b50505b505050565b5f82821c905092915050565b5f61058c5f1984600802610571565b1980831691505092915050565b5f6105a4838361057d565b9150826002028217905092915050565b6105bd8261037a565b67ffffffffffffffff8111156105d6576105d5610384565b5b6105e082546103de565b6105eb82828561052b565b5f60209050601f83116001811461061c575f841561060a578287015190505b6106148582610599565b86555061067b565b601f19841661062a8661040e565b5f5b828110156106515784890151825560018201915060208501945060208101905061062c565b8683101561066e578489015161066a601f89168261057d565b8355505b6001600288020188555050505b505050505050565b612589806106905f395ff3fe6080604052600436106100fd575f3560e01c80637061eb1311610094578063a6f9dae111610063578063a6f9dae1146102e7578063c2e952c71461030f578063cdd35d4c14610325578063f26d9f2f1461034d578063f7dbea3e14610375576100fd565b80637061eb131461022c5780637706c4ba146102565780638da5cb5b14610293578063a6482858146102bd576100fd565b80631b8b13a7116100d05780631b8b13a7146101a657806324600fc3146101d0578063479507bb146101e6578063521de05c146101f0576100fd565b80630572b0cc146101015780630b83a7271461012b57806311cf62f81461014157806315490ebb1461017e575b5f80fd5b34801561010c575f80fd5b5061011561039d565b60405161012291906117fd565b60405180910390f35b348015610136575f80fd5b5061013f6104cd565b005b34801561014c575f80fd5b50610167600480360381019061016291906118b2565b6106c8565b604051610175929190611947565b60405180910390f35b348015610189575f80fd5b506101a4600480360381019061019f91906118b2565b610788565b005b3480156101b1575f80fd5b506101ba61095e565b6040516101c791906117fd565b60405180910390f35b3480156101db575f80fd5b506101e4610a53565b005b6101ee610bab565b005b3480156101fb575f80fd5b5061021660048036038101906102119190611975565b610c45565b60405161022391906119a0565b60405180910390f35b348015610237575f80fd5b50610240610c5a565b60405161024d91906119a0565b60405180910390f35b348015610261575f80fd5b5061027c600480360381019061027791906119b9565b610c66565b60405161028a929190611947565b60405180910390f35b34801561029e575f80fd5b506102a7610d1b565b6040516102b491906119f3565b60405180910390f35b3480156102c8575f80fd5b506102d1610d3e565b6040516102de91906119a0565b60405180910390f35b3480156102f2575f80fd5b5061030d60048036038101906103089190611975565b610d44565b005b34801561031a575f80fd5b50610323610d86565b005b348015610330575f80fd5b5061034b60048036038101906103469190611b38565b61120f565b005b348015610358575f80fd5b50610373600480360381019061036e91906119b9565b6112fd565b005b348015610380575f80fd5b5061039b600480360381019061039691906119b9565b611544565b005b606060035f3373ffffffffffffffffffffffffffffffffffffffff1673ffffffffffffffffffffffffffffffffffffffff1681526020019081526020015f20805480602002602001604051908101604052809291908181526020015f905b828210156104c4578382905f5260205f2090600202016040518060400160405290815f8201805461042b90611bbf565b80601f016020809104026020016040519081016040528092919081815260200182805461045790611bbf565b80156104a25780601f10610479576101008083540402835291602001916104a2565b820191905f5260205f20905b81548152906001019060200180831161048557829003601f168201915b50505050508152602001600182015481525050815260200190600101906103fb565b50505050905090565b5f805b60035f3373ffffffffffffffffffffffffffffffffffffffff1673ffffffffffffffffffffffffffffffffffffffff1681526020019081526020015f20805490508110156105915760035f3373ffffffffffffffffffffffffffffffffffffffff1673ffffffffffffffffffffffffffffffffffffffff1681526020019081526020015f20818154811061056757610566611bef565b5b905f5260205f20906002020160010154826105829190611c49565b915080806001019150506104d0565b505f81116105d4576040517f08c379a00000000000000000000000000000000000000000000000000000000081526004016105cb90611cc6565b60405180910390fd5b5f3373ffffffffffffffffffffffffffffffffffffffff16826040516105f990611d11565b5f6040518083038185875af1925050503d805f8114610633576040519150601f19603f3d011682016040523d82523d5f602084013e610638565b606091505b505090508061067c576040517f08c379a000000000000000000000000000000000000000000000000000000000815260040161067390611d6f565b60405180910390fd5b60035f3373ffffffffffffffffffffffffffffffffffffffff1673ffffffffffffffffffffffffffffffffffffffff1681526020019081526020015f205f6106c491906115db565b5050565b6003602052815f5260405f2081815481106106e1575f80fd5b905f5260205f2090600202015f9150915050805f01805461070190611bbf565b80601f016020809104026020016040519081016040528092919081815260200182805461072d90611bbf565b80156107785780601f1061074f57610100808354040283529160200191610778565b820191905f5260205f20905b81548152906001019060200180831161075b57829003601f168201915b5050505050908060010154905082565b60035f3373ffffffffffffffffffffffffffffffffffffffff1673ffffffffffffffffffffffffffffffffffffffff1681526020019081526020015f2080549050811061080a576040517f08c379a000000000000000000000000000000000000000000000000000000000815260040161080190611dd7565b60405180910390fd5b60035f8373ffffffffffffffffffffffffffffffffffffffff1673ffffffffffffffffffffffffffffffffffffffff1681526020019081526020015f2060035f3373ffffffffffffffffffffffffffffffffffffffff1673ffffffffffffffffffffffffffffffffffffffff1681526020019081526020015f20828154811061089657610895611bef565b5b905f5260205f209060020201908060018154018082558091505060019003905f5260205f2090600202015f909190919091505f8201815f0190816108da9190611fa7565b5060018201548160010155505060035f3373ffffffffffffffffffffffffffffffffffffffff1673ffffffffffffffffffffffffffffffffffffffff1681526020019081526020015f20818154811061093657610935611bef565b5b905f5260205f2090600202015f8082015f61095191906115fc565b600182015f905550505050565b60606004805480602002602001604051908101604052809291908181526020015f905b82821015610a4a578382905f5260205f2090600202016040518060400160405290815f820180546109b190611bbf565b80601f01602080910402602001604051908101604052809291908181526020018280546109dd90611bbf565b8015610a285780601f106109ff57610100808354040283529160200191610a28565b820191905f5260205f20905b815481529060010190602001808311610a0b57829003601f168201915b5050505050815260200160018201548152505081526020019060010190610981565b50505050905090565b5f8054906101000a900473ffffffffffffffffffffffffffffffffffffffff1673ffffffffffffffffffffffffffffffffffffffff163373ffffffffffffffffffffffffffffffffffffffff1614610ae0576040517f08c379a0000000000000000000000000000000000000000000000000000000008152600401610ad7906120d6565b60405180910390fd5b5f805f9054906101000a900473ffffffffffffffffffffffffffffffffffffffff1673ffffffffffffffffffffffffffffffffffffffff1647604051610b2590611d11565b5f6040518083038185875af1925050503d805f8114610b5f576040519150601f19603f3d011682016040523d82523d5f602084013e610b64565b606091505b5050905080610ba8576040517f08c379a0000000000000000000000000000000000000000000000000000000008152600401610b9f9061213e565b60405180910390fd5b50565b6001543414610bef576040517f08c379a0000000000000000000000000000000000000000000000000000000008152600401610be6906121a6565b60405180910390fd5b600160025f3373ffffffffffffffffffffffffffffffffffffffff1673ffffffffffffffffffffffffffffffffffffffff1681526020019081526020015f205f828254610c3c9190611c49565b92505081905550565b6002602052805f5260405f205f915090505481565b67016345785d8a000081565b60048181548110610c75575f80fd5b905f5260205f2090600202015f91509050805f018054610c9490611bbf565b80601f0160208091040260200160405190810160405280929190818152602001828054610cc090611bbf565b8015610d0b5780601f10610ce257610100808354040283529160200191610d0b565b820191905f5260205f20905b815481529060010190602001808311610cee57829003601f168201915b5050505050908060010154905082565b5f8054906101000a900473ffffffffffffffffffffffffffffffffffffffff1681565b60015481565b805f806101000a81548173ffffffffffffffffffffffffffffffffffffffff021916908373ffffffffffffffffffffffffffffffffffffffff16021790555050565b5f60025f3373ffffffffffffffffffffffffffffffffffffffff1673ffffffffffffffffffffffffffffffffffffffff1681526020019081526020015f205411610e05576040517f08c379a0000000000000000000000000000000000000000000000000000000008152600401610dfc9061220e565b60405180910390fd5b5f60644233604051602001610e1b929190612291565b604051602081830303815290604052805190602001205f1c610e3d91906122e9565b9050604b811015610f1a5760035f3373ffffffffffffffffffffffffffffffffffffffff1673ffffffffffffffffffffffffffffffffffffffff1681526020019081526020015f2060405180604001604052806040518060400160405280600481526020017f436f616c0000000000000000000000000000000000000000000000000000000081525081526020015f815250908060018154018082558091505060019003905f5260205f2090600202015f909190919091505f820151815f019081610f089190612319565b506020820151816001015550506111b8565b605f811015610ffd5760035f3373ffffffffffffffffffffffffffffffffffffffff1673ffffffffffffffffffffffffffffffffffffffff1681526020019081526020015f2060405180604001604052806040518060400160405280600b81526020017f42726f6e7a6520436f696e000000000000000000000000000000000000000000815250815260200167016345785d8a0000815250908060018154018082558091505060019003905f5260205f2090600202015f909190919091505f820151815f019081610feb9190612319565b506020820151816001015550506111b7565b60638110156110e05760035f3373ffffffffffffffffffffffffffffffffffffffff1673ffffffffffffffffffffffffffffffffffffffff1681526020019081526020015f2060405180604001604052806040518060400160405280600b81526020017f53696c76657220436f696e00000000000000000000000000000000000000000081525081526020016706f05b59d3b20000815250908060018154018082558091505060019003905f5260205f2090600202015f909190919091505f820151815f0190816110ce9190612319565b506020820151816001015550506111b6565b60035f3373ffffffffffffffffffffffffffffffffffffffff1673ffffffffffffffffffffffffffffffffffffffff1681526020019081526020015f2060405180604001604052806040518060400160405280600981526020017f476f6c6420436f696e00000000000000000000000000000000000000000000008152508152602001670de0b6b3a7640000815250908060018154018082558091505060019003905f5260205f2090600202015f909190919091505f820151815f0190816111a89190612319565b506020820151816001015550505b5b5b600160025f3373ffffffffffffffffffffffffffffffffffffffff1673ffffffffffffffffffffffffffffffffffffffff1681526020019081526020015f205f82825461120591906123e8565b9250508190555050565b5f8054906101000a900473ffffffffffffffffffffffffffffffffffffffff1673ffffffffffffffffffffffffffffffffffffffff163373ffffffffffffffffffffffffffffffffffffffff161461129c576040517f08c379a000000000000000000000000000000000000000000000000000000000815260040161129390612465565b60405180910390fd5b6004604051806040016040528084815260200183815250908060018154018082558091505060019003905f5260205f2090600202015f909190919091505f820151815f0190816112ec9190612319565b506020820151816001015550505050565b60035f3373ffffffffffffffffffffffffffffffffffffffff1673ffffffffffffffffffffffffffffffffffffffff1681526020019081526020015f2080549050811115611380576040517f08c379a000000000000000000000000000000000000000000000000000000000815260040161137790611dd7565b60405180910390fd5b5f60035f3373ffffffffffffffffffffffffffffffffffffffff1673ffffffffffffffffffffffffffffffffffffffff1681526020019081526020015f2082815481106113d0576113cf611bef565b5b905f5260205f2090600202016001015490505f8111611424576040517f08c379a000000000000000000000000000000000000000000000000000000000815260040161141b906124cd565b60405180910390fd5b5f3373ffffffffffffffffffffffffffffffffffffffff168260405161144990611d11565b5f6040518083038185875af1925050503d805f8114611483576040519150601f19603f3d011682016040523d82523d5f602084013e611488565b606091505b50509050806114cc576040517f08c379a00000000000000000000000000000000000000000000000000000000081526004016114c39061213e565b60405180910390fd5b60035f3373ffffffffffffffffffffffffffffffffffffffff1673ffffffffffffffffffffffffffffffffffffffff1681526020019081526020015f20838154811061151b5761151a611bef565b5b905f5260205f2090600202015f8082015f61153691906115fc565b600182015f90555050505050565b5f8054906101000a900473ffffffffffffffffffffffffffffffffffffffff1673ffffffffffffffffffffffffffffffffffffffff163373ffffffffffffffffffffffffffffffffffffffff16146115d1576040517f08c379a00000000000000000000000000000000000000000000000000000000081526004016115c890612535565b60405180910390fd5b8060018190555050565b5080545f8255600202905f5260205f20908101906115f99190611639565b50565b50805461160890611bbf565b5f825580601f106116195750611636565b601f0160209004905f5260205f20908101906116359190611665565b5b50565b5b80821115611661575f8082015f61165191906115fc565b600182015f90555060020161163a565b5090565b5b8082111561167c575f815f905550600101611666565b5090565b5f81519050919050565b5f82825260208201905092915050565b5f819050602082019050919050565b5f81519050919050565b5f82825260208201905092915050565b8281835e5f83830152505050565b5f601f19601f8301169050919050565b5f6116eb826116a9565b6116f581856116b3565b93506117058185602086016116c3565b61170e816116d1565b840191505092915050565b5f819050919050565b61172b81611719565b82525050565b5f604083015f8301518482035f86015261174b82826116e1565b91505060208301516117606020860182611722565b508091505092915050565b5f6117768383611731565b905092915050565b5f602082019050919050565b5f61179482611680565b61179e818561168a565b9350836020820285016117b08561169a565b805f5b858110156117eb57848403895281516117cc858261176b565b94506117d78361177e565b925060208a019950506001810190506117b3565b50829750879550505050505092915050565b5f6020820190508181035f830152611815818461178a565b905092915050565b5f604051905090565b5f80fd5b5f80fd5b5f73ffffffffffffffffffffffffffffffffffffffff82169050919050565b5f6118578261182e565b9050919050565b6118678161184d565b8114611871575f80fd5b50565b5f813590506118828161185e565b92915050565b61189181611719565b811461189b575f80fd5b50565b5f813590506118ac81611888565b92915050565b5f80604083850312156118c8576118c7611826565b5b5f6118d585828601611874565b92505060206118e68582860161189e565b9150509250929050565b5f82825260208201905092915050565b5f61190a826116a9565b61191481856118f0565b93506119248185602086016116c3565b61192d816116d1565b840191505092915050565b61194181611719565b82525050565b5f6040820190508181035f83015261195f8185611900565b905061196e6020830184611938565b9392505050565b5f6020828403121561198a57611989611826565b5b5f61199784828501611874565b91505092915050565b5f6020820190506119b35f830184611938565b92915050565b5f602082840312156119ce576119cd611826565b5b5f6119db8482850161189e565b91505092915050565b6119ed8161184d565b82525050565b5f602082019050611a065f8301846119e4565b92915050565b5f80fd5b5f80fd5b7f4e487b71000000000000000000000000000000000000000000000000000000005f52604160045260245ffd5b611a4a826116d1565b810181811067ffffffffffffffff82111715611a6957611a68611a14565b5b80604052505050565b5f611a7b61181d565b9050611a878282611a41565b919050565b5f67ffffffffffffffff821115611aa657611aa5611a14565b5b611aaf826116d1565b9050602081019050919050565b828183375f83830152505050565b5f611adc611ad784611a8c565b611a72565b905082815260208101848484011115611af857611af7611a10565b5b611b03848285611abc565b509392505050565b5f82601f830112611b1f57611b1e611a0c565b5b8135611b2f848260208601611aca565b91505092915050565b5f8060408385031215611b4e57611b4d611826565b5b5f83013567ffffffffffffffff811115611b6b57611b6a61182a565b5b611b7785828601611b0b565b9250506020611b888582860161189e565b9150509250929050565b7f4e487b71000000000000000000000000000000000000000000000000000000005f52602260045260245ffd5b5f6002820490506001821680611bd657607f821691505b602082108103611be957611be8611b92565b5b50919050565b7f4e487b71000000000000000000000000000000000000000000000000000000005f52603260045260245ffd5b7f4e487b71000000000000000000000000000000000000000000000000000000005f52601160045260245ffd5b5f611c5382611719565b9150611c5e83611719565b9250828201905080821115611c7657611c75611c1c565b5b92915050565b7f4e6f207265776172647320746f20636c61696d000000000000000000000000005f82015250565b5f611cb06013836118f0565b9150611cbb82611c7c565b602082019050919050565b5f6020820190508181035f830152611cdd81611ca4565b9050919050565b5f81905092915050565b50565b5f611cfc5f83611ce4565b9150611d0782611cee565b5f82019050919050565b5f611d1b82611cf1565b9150819050919050565b7f5472616e73666572206661696c65642d3e20436865636b0000000000000000005f82015250565b5f611d596017836118f0565b9150611d6482611d25565b602082019050919050565b5f6020820190508181035f830152611d8681611d4d565b9050919050565b7f496e76616c696420696e646578000000000000000000000000000000000000005f82015250565b5f611dc1600d836118f0565b9150611dcc82611d8d565b602082019050919050565b5f6020820190508181035f830152611dee81611db5565b9050919050565b5f81549050611e0381611bbf565b9050919050565b5f819050815f5260205f209050919050565b5f6020601f8301049050919050565b5f82821b905092915050565b5f60088302611e667fffffffffffffffffffffffffffffffffffffffffffffffffffffffffffffffff82611e2b565b611e708683611e2b565b95508019841693508086168417925050509392505050565b5f819050919050565b5f611eab611ea6611ea184611719565b611e88565b611719565b9050919050565b5f819050919050565b611ec483611e91565b611ed8611ed082611eb2565b848454611e37565b825550505050565b5f90565b611eec611ee0565b611ef7818484611ebb565b505050565b5b81811015611f1a57611f0f5f82611ee4565b600181019050611efd565b5050565b601f821115611f5f57611f3081611e0a565b611f3984611e1c565b81016020851015611f48578190505b611f5c611f5485611e1c565b830182611efc565b50505b505050565b5f82821c905092915050565b5f611f7f5f1984600802611f64565b1980831691505092915050565b5f611f978383611f70565b9150826002028217905092915050565b818103611fb557505061208a565b611fbe82611df5565b67ffffffffffffffff811115611fd757611fd6611a14565b5b611fe18254611bbf565b611fec828285611f1e565b5f601f831160018114612019575f8415612007578287015490505b6120118582611f8c565b865550612083565b601f19841661202787611e0a565b965061203286611e0a565b5f5b8281101561205957848901548255600182019150600185019450602081019050612034565b868310156120765784890154612072601f891682611f70565b8355505b6001600288020188555050505b5050505050505b565b7f4f6e6c79206f776e65722063616e2077697468647261770000000000000000005f82015250565b5f6120c06017836118f0565b91506120cb8261208c565b602082019050919050565b5f6020820190508181035f8301526120ed816120b4565b9050919050565b7f5472616e73666572206661696c656400000000000000000000000000000000005f82015250565b5f612128600f836118f0565b9150612133826120f4565b602082019050919050565b5f6020820190508181035f8301526121558161211c565b9050919050565b7f496e636f7272656374204554482073656e7400000000000000000000000000005f82015250565b5f6121906012836118f0565b915061219b8261215c565b602082019050919050565b5f6020820190508181035f8301526121bd81612184565b9050919050565b7f4e6f20626f78657320746f206f70656e000000000000000000000000000000005f82015250565b5f6121f86010836118f0565b9150612203826121c4565b602082019050919050565b5f6020820190508181035f830152612225816121ec565b9050919050565b5f819050919050565b61224661224182611719565b61222c565b82525050565b5f8160601b9050919050565b5f6122628261224c565b9050919050565b5f61227382612258565b9050919050565b61228b6122868261184d565b612269565b82525050565b5f61229c8285612235565b6020820191506122ac828461227a565b6014820191508190509392505050565b7f4e487b71000000000000000000000000000000000000000000000000000000005f52601260045260245ffd5b5f6122f382611719565b91506122fe83611719565b92508261230e5761230d6122bc565b5b828206905092915050565b612322826116a9565b67ffffffffffffffff81111561233b5761233a611a14565b5b6123458254611bbf565b612350828285611f1e565b5f60209050601f831160018114612381575f841561236f578287015190505b6123798582611f8c565b8655506123e0565b601f19841661238f86611e0a565b5f5b828110156123b657848901518255600182019150602085019450602081019050612391565b868310156123d357848901516123cf601f891682611f70565b8355505b6001600288020188555050505b505050505050565b5f6123f282611719565b91506123fd83611719565b925082820390508181111561241557612414611c1c565b5b92915050565b7f4f6e6c79206f776e65722063616e2061646420726577617264730000000000005f82015250565b5f61244f601a836118f0565b915061245a8261241b565b602082019050919050565b5f6020820190508181035f83015261247c81612443565b9050919050565b7f4e6f2072657761726420746f20636c61696d00000000000000000000000000005f82015250565b5f6124b76012836118f0565b91506124c282612483565b602082019050919050565b5f6020820190508181035f8301526124e4816124ab565b9050919050565b7f4f6e6c79206f776e65722063616e2073657420707269636500000000000000005f82015250565b5f61251f6018836118f0565b915061252a826124eb565b602082019050919050565b5f6020820190508181035f83015261254c81612513565b905091905056fea2646970667358221220a5cca13ed5e8ee00fcbf257e6b1216aef15bcf84b99a745220fb0b70ff5052d364736f6c634300081a0033",
					"opcodes": "PUSH1 0x80 PUSH1 0x40 MSTORE CALLER PUSH0 DUP1 PUSH2 0x100 EXP DUP2 SLOAD DUP2 PUSH20 0xFFFFFFFFFFFFFFFFFFFFFFFFFFFFFFFFFFFFFFFF MUL NOT AND SWAP1 DUP4 PUSH20 0xFFFFFFFFFFFFFFFFFFFFFFFFFFFFFFFFFFFFFFFF AND MUL OR SWAP1 SSTORE POP PUSH8 0x16345785D8A0000 PUSH1 0x1 DUP2 SWAP1 SSTORE POP PUSH8 0x16345785D8A0000 CALLVALUE LT ISZERO PUSH2 0x9D JUMPI PUSH1 0x40 MLOAD PUSH32 0x8C379A000000000000000000000000000000000000000000000000000000000 DUP2 MSTORE PUSH1 0x4 ADD PUSH2 0x94 SWAP1 PUSH2 0x35C JUMP JUMPDEST PUSH1 0x40 MLOAD DUP1 SWAP2 SUB SWAP1 REVERT JUMPDEST PUSH1 0x4 PUSH1 0x40 MLOAD DUP1 PUSH1 0x40 ADD PUSH1 0x40 MSTORE DUP1 PUSH1 0x40 MLOAD DUP1 PUSH1 0x40 ADD PUSH1 0x40 MSTORE DUP1 PUSH1 0x9 DUP2 MSTORE PUSH1 0x20 ADD PUSH32 0x476F6C6420436F696E0000000000000000000000000000000000000000000000 DUP2 MSTORE POP DUP2 MSTORE PUSH1 0x20 ADD PUSH8 0x6F05B59D3B20000 DUP2 MSTORE POP SWAP1 DUP1 PUSH1 0x1 DUP2 SLOAD ADD DUP1 DUP3 SSTORE DUP1 SWAP2 POP POP PUSH1 0x1 SWAP1 SUB SWAP1 PUSH0 MSTORE PUSH1 0x20 PUSH0 KECCAK256 SWAP1 PUSH1 0x2 MUL ADD PUSH0 SWAP1 SWAP2 SWAP1 SWAP2 SWAP1 SWAP2 POP PUSH0 DUP3 ADD MLOAD DUP2 PUSH0 ADD SWAP1 DUP2 PUSH2 0x12A SWAP2 SWAP1 PUSH2 0x5B4 JUMP JUMPDEST POP PUSH1 0x20 DUP3 ADD MLOAD DUP2 PUSH1 0x1 ADD SSTORE POP POP PUSH1 0x4 PUSH1 0x40 MLOAD DUP1 PUSH1 0x40 ADD PUSH1 0x40 MSTORE DUP1 PUSH1 0x40 MLOAD DUP1 PUSH1 0x40 ADD PUSH1 0x40 MSTORE DUP1 PUSH1 0xB DUP2 MSTORE PUSH1 0x20 ADD PUSH32 0x53696C76657220436F696E000000000000000000000000000000000000000000 DUP2 MSTORE POP DUP2 MSTORE PUSH1 0x20 ADD PUSH8 0x3782DACE9D90000 DUP2 MSTORE POP SWAP1 DUP1 PUSH1 0x1 DUP2 SLOAD ADD DUP1 DUP3 SSTORE DUP1 SWAP2 POP POP PUSH1 0x1 SWAP1 SUB SWAP1 PUSH0 MSTORE PUSH1 0x20 PUSH0 KECCAK256 SWAP1 PUSH1 0x2 MUL ADD PUSH0 SWAP1 SWAP2 SWAP1 SWAP2 SWAP1 SWAP2 POP PUSH0 DUP3 ADD MLOAD DUP2 PUSH0 ADD SWAP1 DUP2 PUSH2 0x1C4 SWAP2 SWAP1 PUSH2 0x5B4 JUMP JUMPDEST POP PUSH1 0x20 DUP3 ADD MLOAD DUP2 PUSH1 0x1 ADD SSTORE POP POP PUSH1 0x4 PUSH1 0x40 MLOAD DUP1 PUSH1 0x40 ADD PUSH1 0x40 MSTORE DUP1 PUSH1 0x40 MLOAD DUP1 PUSH1 0x40 ADD PUSH1 0x40 MSTORE DUP1 PUSH1 0xB DUP2 MSTORE PUSH1 0x20 ADD PUSH32 0x42726F6E7A6520436F696E000000000000000000000000000000000000000000 DUP2 MSTORE POP DUP2 MSTORE PUSH1 0x20 ADD PUSH8 0x16345785D8A0000 DUP2 MSTORE POP SWAP1 DUP1 PUSH1 0x1 DUP2 SLOAD ADD DUP1 DUP3 SSTORE DUP1 SWAP2 POP POP PUSH1 0x1 SWAP1 SUB SWAP1 PUSH0 MSTORE PUSH1 0x20 PUSH0 KECCAK256 SWAP1 PUSH1 0x2 MUL ADD PUSH0 SWAP1 SWAP2 SWAP1 SWAP2 SWAP1 SWAP2 POP PUSH0 DUP3 ADD MLOAD DUP2 PUSH0 ADD SWAP1 DUP2 PUSH2 0x25E SWAP2 SWAP1 PUSH2 0x5B4 JUMP JUMPDEST POP PUSH1 0x20 DUP3 ADD MLOAD DUP2 PUSH1 0x1 ADD SSTORE POP POP PUSH1 0x4 PUSH1 0x40 MLOAD DUP1 PUSH1 0x40 ADD PUSH1 0x40 MSTORE DUP1 PUSH1 0x40 MLOAD DUP1 PUSH1 0x40 ADD PUSH1 0x40 MSTORE DUP1 PUSH1 0x4 DUP2 MSTORE PUSH1 0x20 ADD PUSH32 0x436F616C00000000000000000000000000000000000000000000000000000000 DUP2 MSTORE POP DUP2 MSTORE PUSH1 0x20 ADD PUSH0 DUP2 MSTORE POP SWAP1 DUP1 PUSH1 0x1 DUP2 SLOAD ADD DUP1 DUP3 SSTORE DUP1 SWAP2 POP POP PUSH1 0x1 SWAP1 SUB SWAP1 PUSH0 MSTORE PUSH1 0x20 PUSH0 KECCAK256 SWAP1 PUSH1 0x2 MUL ADD PUSH0 SWAP1 SWAP2 SWAP1 SWAP2 SWAP1 SWAP2 POP PUSH0 DUP3 ADD MLOAD DUP2 PUSH0 ADD SWAP1 DUP2 PUSH2 0x2F0 SWAP2 SWAP1 PUSH2 0x5B4 JUMP JUMPDEST POP PUSH1 0x20 DUP3 ADD MLOAD DUP2 PUSH1 0x1 ADD SSTORE POP POP PUSH2 0x683 JUMP JUMPDEST PUSH0 DUP3 DUP3 MSTORE PUSH1 0x20 DUP3 ADD SWAP1 POP SWAP3 SWAP2 POP POP JUMP JUMPDEST PUSH32 0x496E636F7272656374204554482073656E740000000000000000000000000000 PUSH0 DUP3 ADD MSTORE POP JUMP JUMPDEST PUSH0 PUSH2 0x346 PUSH1 0x12 DUP4 PUSH2 0x302 JUMP JUMPDEST SWAP2 POP PUSH2 0x351 DUP3 PUSH2 0x312 JUMP JUMPDEST PUSH1 0x20 DUP3 ADD SWAP1 POP SWAP2 SWAP1 POP JUMP JUMPDEST PUSH0 PUSH1 0x20 DUP3 ADD SWAP1 POP DUP2 DUP2 SUB PUSH0 DUP4 ADD MSTORE PUSH2 0x373 DUP2 PUSH2 0x33A JUMP JUMPDEST SWAP1 POP SWAP2 SWAP1 POP JUMP JUMPDEST PUSH0 DUP2 MLOAD SWAP1 POP SWAP2 SWAP1 POP JUMP JUMPDEST PUSH32 0x4E487B7100000000000000000000000000000000000000000000000000000000 PUSH0 MSTORE PUSH1 0x41 PUSH1 0x4 MSTORE PUSH1 0x24 PUSH0 REVERT JUMPDEST PUSH32 0x4E487B7100000000000000000000000000000000000000000000000000000000 PUSH0 MSTORE PUSH1 0x22 PUSH1 0x4 MSTORE PUSH1 0x24 PUSH0 REVERT JUMPDEST PUSH0 PUSH1 0x2 DUP3 DIV SWAP1 POP PUSH1 0x1 DUP3 AND DUP1 PUSH2 0x3F5 JUMPI PUSH1 0x7F DUP3 AND SWAP2 POP JUMPDEST PUSH1 0x20 DUP3 LT DUP2 SUB PUSH2 0x408 JUMPI PUSH2 0x407 PUSH2 0x3B1 JUMP JUMPDEST JUMPDEST POP SWAP2 SWAP1 POP JUMP JUMPDEST PUSH0 DUP2 SWAP1 POP DUP2 PUSH0 MSTORE PUSH1 0x20 PUSH0 KECCAK256 SWAP1 POP SWAP2 SWAP1 POP JUMP JUMPDEST PUSH0 PUSH1 0x20 PUSH1 0x1F DUP4 ADD DIV SWAP1 POP SWAP2 SWAP1 POP JUMP JUMPDEST PUSH0 DUP3 DUP3 SHL SWAP1 POP SWAP3 SWAP2 POP POP JUMP JUMPDEST PUSH0 PUSH1 0x8 DUP4 MUL PUSH2 0x46A PUSH32 0xFFFFFFFFFFFFFFFFFFFFFFFFFFFFFFFFFFFFFFFFFFFFFFFFFFFFFFFFFFFFFFFF DUP3 PUSH2 0x42F JUMP JUMPDEST PUSH2 0x474 DUP7 DUP4 PUSH2 0x42F JUMP JUMPDEST SWAP6 POP DUP1 NOT DUP5 AND SWAP4 POP DUP1 DUP7 AND DUP5 OR SWAP3 POP POP POP SWAP4 SWAP3 POP POP POP JUMP JUMPDEST PUSH0 DUP2 SWAP1 POP SWAP2 SWAP1 POP JUMP JUMPDEST PUSH0 DUP2 SWAP1 POP SWAP2 SWAP1 POP JUMP JUMPDEST PUSH0 PUSH2 0x4B8 PUSH2 0x4B3 PUSH2 0x4AE DUP5 PUSH2 0x48C JUMP JUMPDEST PUSH2 0x495 JUMP JUMPDEST PUSH2 0x48C JUMP JUMPDEST SWAP1 POP SWAP2 SWAP1 POP JUMP JUMPDEST PUSH0 DUP2 SWAP1 POP SWAP2 SWAP1 POP JUMP JUMPDEST PUSH2 0x4D1 DUP4 PUSH2 0x49E JUMP JUMPDEST PUSH2 0x4E5 PUSH2 0x4DD DUP3 PUSH2 0x4BF JUMP JUMPDEST DUP5 DUP5 SLOAD PUSH2 0x43B JUMP JUMPDEST DUP3 SSTORE POP POP POP POP JUMP JUMPDEST PUSH0 SWAP1 JUMP JUMPDEST PUSH2 0x4F9 PUSH2 0x4ED JUMP JUMPDEST PUSH2 0x504 DUP2 DUP5 DUP5 PUSH2 0x4C8 JUMP JUMPDEST POP POP POP JUMP JUMPDEST JUMPDEST DUP2 DUP2 LT ISZERO PUSH2 0x527 JUMPI PUSH2 0x51C PUSH0 DUP3 PUSH2 0x4F1 JUMP JUMPDEST PUSH1 0x1 DUP2 ADD SWAP1 POP PUSH2 0x50A JUMP JUMPDEST POP POP JUMP JUMPDEST PUSH1 0x1F DUP3 GT ISZERO PUSH2 0x56C JUMPI PUSH2 0x53D DUP2 PUSH2 0x40E JUMP JUMPDEST PUSH2 0x546 DUP5 PUSH2 0x420 JUMP JUMPDEST DUP2 ADD PUSH1 0x20 DUP6 LT ISZERO PUSH2 0x555 JUMPI DUP2 SWAP1 POP JUMPDEST PUSH2 0x569 PUSH2 0x561 DUP6 PUSH2 0x420 JUMP JUMPDEST DUP4 ADD DUP3 PUSH2 0x509 JUMP JUMPDEST POP POP JUMPDEST POP POP POP JUMP JUMPDEST PUSH0 DUP3 DUP3 SHR SWAP1 POP SWAP3 SWAP2 POP POP JUMP JUMPDEST PUSH0 PUSH2 0x58C PUSH0 NOT DUP5 PUSH1 0x8 MUL PUSH2 0x571 JUMP JUMPDEST NOT DUP1 DUP4 AND SWAP2 POP POP SWAP3 SWAP2 POP POP JUMP JUMPDEST PUSH0 PUSH2 0x5A4 DUP4 DUP4 PUSH2 0x57D JUMP JUMPDEST SWAP2 POP DUP3 PUSH1 0x2 MUL DUP3 OR SWAP1 POP SWAP3 SWAP2 POP POP JUMP JUMPDEST PUSH2 0x5BD DUP3 PUSH2 0x37A JUMP JUMPDEST PUSH8 0xFFFFFFFFFFFFFFFF DUP2 GT ISZERO PUSH2 0x5D6 JUMPI PUSH2 0x5D5 PUSH2 0x384 JUMP JUMPDEST JUMPDEST PUSH2 0x5E0 DUP3 SLOAD PUSH2 0x3DE JUMP JUMPDEST PUSH2 0x5EB DUP3 DUP3 DUP6 PUSH2 0x52B JUMP JUMPDEST PUSH0 PUSH1 0x20 SWAP1 POP PUSH1 0x1F DUP4 GT PUSH1 0x1 DUP2 EQ PUSH2 0x61C JUMPI PUSH0 DUP5 ISZERO PUSH2 0x60A JUMPI DUP3 DUP8 ADD MLOAD SWAP1 POP JUMPDEST PUSH2 0x614 DUP6 DUP3 PUSH2 0x599 JUMP JUMPDEST DUP7 SSTORE POP PUSH2 0x67B JUMP JUMPDEST PUSH1 0x1F NOT DUP5 AND PUSH2 0x62A DUP7 PUSH2 0x40E JUMP JUMPDEST PUSH0 JUMPDEST DUP3 DUP2 LT ISZERO PUSH2 0x651 JUMPI DUP5 DUP10 ADD MLOAD DUP3 SSTORE PUSH1 0x1 DUP3 ADD SWAP2 POP PUSH1 0x20 DUP6 ADD SWAP5 POP PUSH1 0x20 DUP2 ADD SWAP1 POP PUSH2 0x62C JUMP JUMPDEST DUP7 DUP4 LT ISZERO PUSH2 0x66E JUMPI DUP5 DUP10 ADD MLOAD PUSH2 0x66A PUSH1 0x1F DUP10 AND DUP3 PUSH2 0x57D JUMP JUMPDEST DUP4 SSTORE POP JUMPDEST PUSH1 0x1 PUSH1 0x2 DUP9 MUL ADD DUP9 SSTORE POP POP POP JUMPDEST POP POP POP POP POP POP JUMP JUMPDEST PUSH2 0x2589 DUP1 PUSH2 0x690 PUSH0 CODECOPY PUSH0 RETURN INVALID PUSH1 0x80 PUSH1 0x40 MSTORE PUSH1 0x4 CALLDATASIZE LT PUSH2 0xFD JUMPI PUSH0 CALLDATALOAD PUSH1 0xE0 SHR DUP1 PUSH4 0x7061EB13 GT PUSH2 0x94 JUMPI DUP1 PUSH4 0xA6F9DAE1 GT PUSH2 0x63 JUMPI DUP1 PUSH4 0xA6F9DAE1 EQ PUSH2 0x2E7 JUMPI DUP1 PUSH4 0xC2E952C7 EQ PUSH2 0x30F JUMPI DUP1 PUSH4 0xCDD35D4C EQ PUSH2 0x325 JUMPI DUP1 PUSH4 0xF26D9F2F EQ PUSH2 0x34D JUMPI DUP1 PUSH4 0xF7DBEA3E EQ PUSH2 0x375 JUMPI PUSH2 0xFD JUMP JUMPDEST DUP1 PUSH4 0x7061EB13 EQ PUSH2 0x22C JUMPI DUP1 PUSH4 0x7706C4BA EQ PUSH2 0x256 JUMPI DUP1 PUSH4 0x8DA5CB5B EQ PUSH2 0x293 JUMPI DUP1 PUSH4 0xA6482858 EQ PUSH2 0x2BD JUMPI PUSH2 0xFD JUMP JUMPDEST DUP1 PUSH4 0x1B8B13A7 GT PUSH2 0xD0 JUMPI DUP1 PUSH4 0x1B8B13A7 EQ PUSH2 0x1A6 JUMPI DUP1 PUSH4 0x24600FC3 EQ PUSH2 0x1D0 JUMPI DUP1 PUSH4 0x479507BB EQ PUSH2 0x1E6 JUMPI DUP1 PUSH4 0x521DE05C EQ PUSH2 0x1F0 JUMPI PUSH2 0xFD JUMP JUMPDEST DUP1 PUSH4 0x572B0CC EQ PUSH2 0x101 JUMPI DUP1 PUSH4 0xB83A727 EQ PUSH2 0x12B JUMPI DUP1 PUSH4 0x11CF62F8 EQ PUSH2 0x141 JUMPI DUP1 PUSH4 0x15490EBB EQ PUSH2 0x17E JUMPI JUMPDEST PUSH0 DUP1 REVERT JUMPDEST CALLVALUE DUP1 ISZERO PUSH2 0x10C JUMPI PUSH0 DUP1 REVERT JUMPDEST POP PUSH2 0x115 PUSH2 0x39D JUMP JUMPDEST PUSH1 0x40 MLOAD PUSH2 0x122 SWAP2 SWAP1 PUSH2 0x17FD JUMP JUMPDEST PUSH1 0x40 MLOAD DUP1 SWAP2 SUB SWAP1 RETURN JUMPDEST CALLVALUE DUP1 ISZERO PUSH2 0x136 JUMPI PUSH0 DUP1 REVERT JUMPDEST POP PUSH2 0x13F PUSH2 0x4CD JUMP JUMPDEST STOP JUMPDEST CALLVALUE DUP1 ISZERO PUSH2 0x14C JUMPI PUSH0 DUP1 REVERT JUMPDEST POP PUSH2 0x167 PUSH1 0x4 DUP1 CALLDATASIZE SUB DUP2 ADD SWAP1 PUSH2 0x162 SWAP2 SWAP1 PUSH2 0x18B2 JUMP JUMPDEST PUSH2 0x6C8 JUMP JUMPDEST PUSH1 0x40 MLOAD PUSH2 0x175 SWAP3 SWAP2 SWAP1 PUSH2 0x1947 JUMP JUMPDEST PUSH1 0x40 MLOAD DUP1 SWAP2 SUB SWAP1 RETURN JUMPDEST CALLVALUE DUP1 ISZERO PUSH2 0x189 JUMPI PUSH0 DUP1 REVERT JUMPDEST POP PUSH2 0x1A4 PUSH1 0x4 DUP1 CALLDATASIZE SUB DUP2 ADD SWAP1 PUSH2 0x19F SWAP2 SWAP1 PUSH2 0x18B2 JUMP JUMPDEST PUSH2 0x788 JUMP JUMPDEST STOP JUMPDEST CALLVALUE DUP1 ISZERO PUSH2 0x1B1 JUMPI PUSH0 DUP1 REVERT JUMPDEST POP PUSH2 0x1BA PUSH2 0x95E JUMP JUMPDEST PUSH1 0x40 MLOAD PUSH2 0x1C7 SWAP2 SWAP1 PUSH2 0x17FD JUMP JUMPDEST PUSH1 0x40 MLOAD DUP1 SWAP2 SUB SWAP1 RETURN JUMPDEST CALLVALUE DUP1 ISZERO PUSH2 0x1DB JUMPI PUSH0 DUP1 REVERT JUMPDEST POP PUSH2 0x1E4 PUSH2 0xA53 JUMP JUMPDEST STOP JUMPDEST PUSH2 0x1EE PUSH2 0xBAB JUMP JUMPDEST STOP JUMPDEST CALLVALUE DUP1 ISZERO PUSH2 0x1FB JUMPI PUSH0 DUP1 REVERT JUMPDEST POP PUSH2 0x216 PUSH1 0x4 DUP1 CALLDATASIZE SUB DUP2 ADD SWAP1 PUSH2 0x211 SWAP2 SWAP1 PUSH2 0x1975 JUMP JUMPDEST PUSH2 0xC45 JUMP JUMPDEST PUSH1 0x40 MLOAD PUSH2 0x223 SWAP2 SWAP1 PUSH2 0x19A0 JUMP JUMPDEST PUSH1 0x40 MLOAD DUP1 SWAP2 SUB SWAP1 RETURN JUMPDEST CALLVALUE DUP1 ISZERO PUSH2 0x237 JUMPI PUSH0 DUP1 REVERT JUMPDEST POP PUSH2 0x240 PUSH2 0xC5A JUMP JUMPDEST PUSH1 0x40 MLOAD PUSH2 0x24D SWAP2 SWAP1 PUSH2 0x19A0 JUMP JUMPDEST PUSH1 0x40 MLOAD DUP1 SWAP2 SUB SWAP1 RETURN JUMPDEST CALLVALUE DUP1 ISZERO PUSH2 0x261 JUMPI PUSH0 DUP1 REVERT JUMPDEST POP PUSH2 0x27C PUSH1 0x4 DUP1 CALLDATASIZE SUB DUP2 ADD SWAP1 PUSH2 0x277 SWAP2 SWAP1 PUSH2 0x19B9 JUMP JUMPDEST PUSH2 0xC66 JUMP JUMPDEST PUSH1 0x40 MLOAD PUSH2 0x28A SWAP3 SWAP2 SWAP1 PUSH2 0x1947 JUMP JUMPDEST PUSH1 0x40 MLOAD DUP1 SWAP2 SUB SWAP1 RETURN JUMPDEST CALLVALUE DUP1 ISZERO PUSH2 0x29E JUMPI PUSH0 DUP1 REVERT JUMPDEST POP PUSH2 0x2A7 PUSH2 0xD1B JUMP JUMPDEST PUSH1 0x40 MLOAD PUSH2 0x2B4 SWAP2 SWAP1 PUSH2 0x19F3 JUMP JUMPDEST PUSH1 0x40 MLOAD DUP1 SWAP2 SUB SWAP1 RETURN JUMPDEST CALLVALUE DUP1 ISZERO PUSH2 0x2C8 JUMPI PUSH0 DUP1 REVERT JUMPDEST POP PUSH2 0x2D1 PUSH2 0xD3E JUMP JUMPDEST PUSH1 0x40 MLOAD PUSH2 0x2DE SWAP2 SWAP1 PUSH2 0x19A0 JUMP JUMPDEST PUSH1 0x40 MLOAD DUP1 SWAP2 SUB SWAP1 RETURN JUMPDEST CALLVALUE DUP1 ISZERO PUSH2 0x2F2 JUMPI PUSH0 DUP1 REVERT JUMPDEST POP PUSH2 0x30D PUSH1 0x4 DUP1 CALLDATASIZE SUB DUP2 ADD SWAP1 PUSH2 0x308 SWAP2 SWAP1 PUSH2 0x1975 JUMP JUMPDEST PUSH2 0xD44 JUMP JUMPDEST STOP JUMPDEST CALLVALUE DUP1 ISZERO PUSH2 0x31A JUMPI PUSH0 DUP1 REVERT JUMPDEST POP PUSH2 0x323 PUSH2 0xD86 JUMP JUMPDEST STOP JUMPDEST CALLVALUE DUP1 ISZERO PUSH2 0x330 JUMPI PUSH0 DUP1 REVERT JUMPDEST POP PUSH2 0x34B PUSH1 0x4 DUP1 CALLDATASIZE SUB DUP2 ADD SWAP1 PUSH2 0x346 SWAP2 SWAP1 PUSH2 0x1B38 JUMP JUMPDEST PUSH2 0x120F JUMP JUMPDEST STOP JUMPDEST CALLVALUE DUP1 ISZERO PUSH2 0x358 JUMPI PUSH0 DUP1 REVERT JUMPDEST POP PUSH2 0x373 PUSH1 0x4 DUP1 CALLDATASIZE SUB DUP2 ADD SWAP1 PUSH2 0x36E SWAP2 SWAP1 PUSH2 0x19B9 JUMP JUMPDEST PUSH2 0x12FD JUMP JUMPDEST STOP JUMPDEST CALLVALUE DUP1 ISZERO PUSH2 0x380 JUMPI PUSH0 DUP1 REVERT JUMPDEST POP PUSH2 0x39B PUSH1 0x4 DUP1 CALLDATASIZE SUB DUP2 ADD SWAP1 PUSH2 0x396 SWAP2 SWAP1 PUSH2 0x19B9 JUMP JUMPDEST PUSH2 0x1544 JUMP JUMPDEST STOP JUMPDEST PUSH1 0x60 PUSH1 0x3 PUSH0 CALLER PUSH20 0xFFFFFFFFFFFFFFFFFFFFFFFFFFFFFFFFFFFFFFFF AND PUSH20 0xFFFFFFFFFFFFFFFFFFFFFFFFFFFFFFFFFFFFFFFF AND DUP2 MSTORE PUSH1 0x20 ADD SWAP1 DUP2 MSTORE PUSH1 0x20 ADD PUSH0 KECCAK256 DUP1 SLOAD DUP1 PUSH1 0x20 MUL PUSH1 0x20 ADD PUSH1 0x40 MLOAD SWAP1 DUP2 ADD PUSH1 0x40 MSTORE DUP1 SWAP3 SWAP2 SWAP1 DUP2 DUP2 MSTORE PUSH1 0x20 ADD PUSH0 SWAP1 JUMPDEST DUP3 DUP3 LT ISZERO PUSH2 0x4C4 JUMPI DUP4 DUP3 SWAP1 PUSH0 MSTORE PUSH1 0x20 PUSH0 KECCAK256 SWAP1 PUSH1 0x2 MUL ADD PUSH1 0x40 MLOAD DUP1 PUSH1 0x40 ADD PUSH1 0x40 MSTORE SWAP1 DUP2 PUSH0 DUP3 ADD DUP1 SLOAD PUSH2 0x42B SWAP1 PUSH2 0x1BBF JUMP JUMPDEST DUP1 PUSH1 0x1F ADD PUSH1 0x20 DUP1 SWAP2 DIV MUL PUSH1 0x20 ADD PUSH1 0x40 MLOAD SWAP1 DUP2 ADD PUSH1 0x40 MSTORE DUP1 SWAP3 SWAP2 SWAP1 DUP2 DUP2 MSTORE PUSH1 0x20 ADD DUP3 DUP1 SLOAD PUSH2 0x457 SWAP1 PUSH2 0x1BBF JUMP JUMPDEST DUP1 ISZERO PUSH2 0x4A2 JUMPI DUP1 PUSH1 0x1F LT PUSH2 0x479 JUMPI PUSH2 0x100 DUP1 DUP4 SLOAD DIV MUL DUP4 MSTORE SWAP2 PUSH1 0x20 ADD SWAP2 PUSH2 0x4A2 JUMP JUMPDEST DUP3 ADD SWAP2 SWAP1 PUSH0 MSTORE PUSH1 0x20 PUSH0 KECCAK256 SWAP1 JUMPDEST DUP2 SLOAD DUP2 MSTORE SWAP1 PUSH1 0x1 ADD SWAP1 PUSH1 0x20 ADD DUP1 DUP4 GT PUSH2 0x485 JUMPI DUP3 SWAP1 SUB PUSH1 0x1F AND DUP3 ADD SWAP2 JUMPDEST POP POP POP POP POP DUP2 MSTORE PUSH1 0x20 ADD PUSH1 0x1 DUP3 ADD SLOAD DUP2 MSTORE POP POP DUP2 MSTORE PUSH1 0x20 ADD SWAP1 PUSH1 0x1 ADD SWAP1 PUSH2 0x3FB JUMP JUMPDEST POP POP POP POP SWAP1 POP SWAP1 JUMP JUMPDEST PUSH0 DUP1 JUMPDEST PUSH1 0x3 PUSH0 CALLER PUSH20 0xFFFFFFFFFFFFFFFFFFFFFFFFFFFFFFFFFFFFFFFF AND PUSH20 0xFFFFFFFFFFFFFFFFFFFFFFFFFFFFFFFFFFFFFFFF AND DUP2 MSTORE PUSH1 0x20 ADD SWAP1 DUP2 MSTORE PUSH1 0x20 ADD PUSH0 KECCAK256 DUP1 SLOAD SWAP1 POP DUP2 LT ISZERO PUSH2 0x591 JUMPI PUSH1 0x3 PUSH0 CALLER PUSH20 0xFFFFFFFFFFFFFFFFFFFFFFFFFFFFFFFFFFFFFFFF AND PUSH20 0xFFFFFFFFFFFFFFFFFFFFFFFFFFFFFFFFFFFFFFFF AND DUP2 MSTORE PUSH1 0x20 ADD SWAP1 DUP2 MSTORE PUSH1 0x20 ADD PUSH0 KECCAK256 DUP2 DUP2 SLOAD DUP2 LT PUSH2 0x567 JUMPI PUSH2 0x566 PUSH2 0x1BEF JUMP JUMPDEST JUMPDEST SWAP1 PUSH0 MSTORE PUSH1 0x20 PUSH0 KECCAK256 SWAP1 PUSH1 0x2 MUL ADD PUSH1 0x1 ADD SLOAD DUP3 PUSH2 0x582 SWAP2 SWAP1 PUSH2 0x1C49 JUMP JUMPDEST SWAP2 POP DUP1 DUP1 PUSH1 0x1 ADD SWAP2 POP POP PUSH2 0x4D0 JUMP JUMPDEST POP PUSH0 DUP2 GT PUSH2 0x5D4 JUMPI PUSH1 0x40 MLOAD PUSH32 0x8C379A000000000000000000000000000000000000000000000000000000000 DUP2 MSTORE PUSH1 0x4 ADD PUSH2 0x5CB SWAP1 PUSH2 0x1CC6 JUMP JUMPDEST PUSH1 0x40 MLOAD DUP1 SWAP2 SUB SWAP1 REVERT JUMPDEST PUSH0 CALLER PUSH20 0xFFFFFFFFFFFFFFFFFFFFFFFFFFFFFFFFFFFFFFFF AND DUP3 PUSH1 0x40 MLOAD PUSH2 0x5F9 SWAP1 PUSH2 0x1D11 JUMP JUMPDEST PUSH0 PUSH1 0x40 MLOAD DUP1 DUP4 SUB DUP2 DUP6 DUP8 GAS CALL SWAP3 POP POP POP RETURNDATASIZE DUP1 PUSH0 DUP2 EQ PUSH2 0x633 JUMPI PUSH1 0x40 MLOAD SWAP2 POP PUSH1 0x1F NOT PUSH1 0x3F RETURNDATASIZE ADD AND DUP3 ADD PUSH1 0x40 MSTORE RETURNDATASIZE DUP3 MSTORE RETURNDATASIZE PUSH0 PUSH1 0x20 DUP5 ADD RETURNDATACOPY PUSH2 0x638 JUMP JUMPDEST PUSH1 0x60 SWAP2 POP JUMPDEST POP POP SWAP1 POP DUP1 PUSH2 0x67C JUMPI PUSH1 0x40 MLOAD PUSH32 0x8C379A000000000000000000000000000000000000000000000000000000000 DUP2 MSTORE PUSH1 0x4 ADD PUSH2 0x673 SWAP1 PUSH2 0x1D6F JUMP JUMPDEST PUSH1 0x40 MLOAD DUP1 SWAP2 SUB SWAP1 REVERT JUMPDEST PUSH1 0x3 PUSH0 CALLER PUSH20 0xFFFFFFFFFFFFFFFFFFFFFFFFFFFFFFFFFFFFFFFF AND PUSH20 0xFFFFFFFFFFFFFFFFFFFFFFFFFFFFFFFFFFFFFFFF AND DUP2 MSTORE PUSH1 0x20 ADD SWAP1 DUP2 MSTORE PUSH1 0x20 ADD PUSH0 KECCAK256 PUSH0 PUSH2 0x6C4 SWAP2 SWAP1 PUSH2 0x15DB JUMP JUMPDEST POP POP JUMP JUMPDEST PUSH1 0x3 PUSH1 0x20 MSTORE DUP2 PUSH0 MSTORE PUSH1 0x40 PUSH0 KECCAK256 DUP2 DUP2 SLOAD DUP2 LT PUSH2 0x6E1 JUMPI PUSH0 DUP1 REVERT JUMPDEST SWAP1 PUSH0 MSTORE PUSH1 0x20 PUSH0 KECCAK256 SWAP1 PUSH1 0x2 MUL ADD PUSH0 SWAP2 POP SWAP2 POP POP DUP1 PUSH0 ADD DUP1 SLOAD PUSH2 0x701 SWAP1 PUSH2 0x1BBF JUMP JUMPDEST DUP1 PUSH1 0x1F ADD PUSH1 0x20 DUP1 SWAP2 DIV MUL PUSH1 0x20 ADD PUSH1 0x40 MLOAD SWAP1 DUP2 ADD PUSH1 0x40 MSTORE DUP1 SWAP3 SWAP2 SWAP1 DUP2 DUP2 MSTORE PUSH1 0x20 ADD DUP3 DUP1 SLOAD PUSH2 0x72D SWAP1 PUSH2 0x1BBF JUMP JUMPDEST DUP1 ISZERO PUSH2 0x778 JUMPI DUP1 PUSH1 0x1F LT PUSH2 0x74F JUMPI PUSH2 0x100 DUP1 DUP4 SLOAD DIV MUL DUP4 MSTORE SWAP2 PUSH1 0x20 ADD SWAP2 PUSH2 0x778 JUMP JUMPDEST DUP3 ADD SWAP2 SWAP1 PUSH0 MSTORE PUSH1 0x20 PUSH0 KECCAK256 SWAP1 JUMPDEST DUP2 SLOAD DUP2 MSTORE SWAP1 PUSH1 0x1 ADD SWAP1 PUSH1 0x20 ADD DUP1 DUP4 GT PUSH2 0x75B JUMPI DUP3 SWAP1 SUB PUSH1 0x1F AND DUP3 ADD SWAP2 JUMPDEST POP POP POP POP POP SWAP1 DUP1 PUSH1 0x1 ADD SLOAD SWAP1 POP DUP3 JUMP JUMPDEST PUSH1 0x3 PUSH0 CALLER PUSH20 0xFFFFFFFFFFFFFFFFFFFFFFFFFFFFFFFFFFFFFFFF AND PUSH20 0xFFFFFFFFFFFFFFFFFFFFFFFFFFFFFFFFFFFFFFFF AND DUP2 MSTORE PUSH1 0x20 ADD SWAP1 DUP2 MSTORE PUSH1 0x20 ADD PUSH0 KECCAK256 DUP1 SLOAD SWAP1 POP DUP2 LT PUSH2 0x80A JUMPI PUSH1 0x40 MLOAD PUSH32 0x8C379A000000000000000000000000000000000000000000000000000000000 DUP2 MSTORE PUSH1 0x4 ADD PUSH2 0x801 SWAP1 PUSH2 0x1DD7 JUMP JUMPDEST PUSH1 0x40 MLOAD DUP1 SWAP2 SUB SWAP1 REVERT JUMPDEST PUSH1 0x3 PUSH0 DUP4 PUSH20 0xFFFFFFFFFFFFFFFFFFFFFFFFFFFFFFFFFFFFFFFF AND PUSH20 0xFFFFFFFFFFFFFFFFFFFFFFFFFFFFFFFFFFFFFFFF AND DUP2 MSTORE PUSH1 0x20 ADD SWAP1 DUP2 MSTORE PUSH1 0x20 ADD PUSH0 KECCAK256 PUSH1 0x3 PUSH0 CALLER PUSH20 0xFFFFFFFFFFFFFFFFFFFFFFFFFFFFFFFFFFFFFFFF AND PUSH20 0xFFFFFFFFFFFFFFFFFFFFFFFFFFFFFFFFFFFFFFFF AND DUP2 MSTORE PUSH1 0x20 ADD SWAP1 DUP2 MSTORE PUSH1 0x20 ADD PUSH0 KECCAK256 DUP3 DUP2 SLOAD DUP2 LT PUSH2 0x896 JUMPI PUSH2 0x895 PUSH2 0x1BEF JUMP JUMPDEST JUMPDEST SWAP1 PUSH0 MSTORE PUSH1 0x20 PUSH0 KECCAK256 SWAP1 PUSH1 0x2 MUL ADD SWAP1 DUP1 PUSH1 0x1 DUP2 SLOAD ADD DUP1 DUP3 SSTORE DUP1 SWAP2 POP POP PUSH1 0x1 SWAP1 SUB SWAP1 PUSH0 MSTORE PUSH1 0x20 PUSH0 KECCAK256 SWAP1 PUSH1 0x2 MUL ADD PUSH0 SWAP1 SWAP2 SWAP1 SWAP2 SWAP1 SWAP2 POP PUSH0 DUP3 ADD DUP2 PUSH0 ADD SWAP1 DUP2 PUSH2 0x8DA SWAP2 SWAP1 PUSH2 0x1FA7 JUMP JUMPDEST POP PUSH1 0x1 DUP3 ADD SLOAD DUP2 PUSH1 0x1 ADD SSTORE POP POP PUSH1 0x3 PUSH0 CALLER PUSH20 0xFFFFFFFFFFFFFFFFFFFFFFFFFFFFFFFFFFFFFFFF AND PUSH20 0xFFFFFFFFFFFFFFFFFFFFFFFFFFFFFFFFFFFFFFFF AND DUP2 MSTORE PUSH1 0x20 ADD SWAP1 DUP2 MSTORE PUSH1 0x20 ADD PUSH0 KECCAK256 DUP2 DUP2 SLOAD DUP2 LT PUSH2 0x936 JUMPI PUSH2 0x935 PUSH2 0x1BEF JUMP JUMPDEST JUMPDEST SWAP1 PUSH0 MSTORE PUSH1 0x20 PUSH0 KECCAK256 SWAP1 PUSH1 0x2 MUL ADD PUSH0 DUP1 DUP3 ADD PUSH0 PUSH2 0x951 SWAP2 SWAP1 PUSH2 0x15FC JUMP JUMPDEST PUSH1 0x1 DUP3 ADD PUSH0 SWAP1 SSTORE POP POP POP POP JUMP JUMPDEST PUSH1 0x60 PUSH1 0x4 DUP1 SLOAD DUP1 PUSH1 0x20 MUL PUSH1 0x20 ADD PUSH1 0x40 MLOAD SWAP1 DUP2 ADD PUSH1 0x40 MSTORE DUP1 SWAP3 SWAP2 SWAP1 DUP2 DUP2 MSTORE PUSH1 0x20 ADD PUSH0 SWAP1 JUMPDEST DUP3 DUP3 LT ISZERO PUSH2 0xA4A JUMPI DUP4 DUP3 SWAP1 PUSH0 MSTORE PUSH1 0x20 PUSH0 KECCAK256 SWAP1 PUSH1 0x2 MUL ADD PUSH1 0x40 MLOAD DUP1 PUSH1 0x40 ADD PUSH1 0x40 MSTORE SWAP1 DUP2 PUSH0 DUP3 ADD DUP1 SLOAD PUSH2 0x9B1 SWAP1 PUSH2 0x1BBF JUMP JUMPDEST DUP1 PUSH1 0x1F ADD PUSH1 0x20 DUP1 SWAP2 DIV MUL PUSH1 0x20 ADD PUSH1 0x40 MLOAD SWAP1 DUP2 ADD PUSH1 0x40 MSTORE DUP1 SWAP3 SWAP2 SWAP1 DUP2 DUP2 MSTORE PUSH1 0x20 ADD DUP3 DUP1 SLOAD PUSH2 0x9DD SWAP1 PUSH2 0x1BBF JUMP JUMPDEST DUP1 ISZERO PUSH2 0xA28 JUMPI DUP1 PUSH1 0x1F LT PUSH2 0x9FF JUMPI PUSH2 0x100 DUP1 DUP4 SLOAD DIV MUL DUP4 MSTORE SWAP2 PUSH1 0x20 ADD SWAP2 PUSH2 0xA28 JUMP JUMPDEST DUP3 ADD SWAP2 SWAP1 PUSH0 MSTORE PUSH1 0x20 PUSH0 KECCAK256 SWAP1 JUMPDEST DUP2 SLOAD DUP2 MSTORE SWAP1 PUSH1 0x1 ADD SWAP1 PUSH1 0x20 ADD DUP1 DUP4 GT PUSH2 0xA0B JUMPI DUP3 SWAP1 SUB PUSH1 0x1F AND DUP3 ADD SWAP2 JUMPDEST POP POP POP POP POP DUP2 MSTORE PUSH1 0x20 ADD PUSH1 0x1 DUP3 ADD SLOAD DUP2 MSTORE POP POP DUP2 MSTORE PUSH1 0x20 ADD SWAP1 PUSH1 0x1 ADD SWAP1 PUSH2 0x981 JUMP JUMPDEST POP POP POP POP SWAP1 POP SWAP1 JUMP JUMPDEST PUSH0 DUP1 SLOAD SWAP1 PUSH2 0x100 EXP SWAP1 DIV PUSH20 0xFFFFFFFFFFFFFFFFFFFFFFFFFFFFFFFFFFFFFFFF AND PUSH20 0xFFFFFFFFFFFFFFFFFFFFFFFFFFFFFFFFFFFFFFFF AND CALLER PUSH20 0xFFFFFFFFFFFFFFFFFFFFFFFFFFFFFFFFFFFFFFFF AND EQ PUSH2 0xAE0 JUMPI PUSH1 0x40 MLOAD PUSH32 0x8C379A000000000000000000000000000000000000000000000000000000000 DUP2 MSTORE PUSH1 0x4 ADD PUSH2 0xAD7 SWAP1 PUSH2 0x20D6 JUMP JUMPDEST PUSH1 0x40 MLOAD DUP1 SWAP2 SUB SWAP1 REVERT JUMPDEST PUSH0 DUP1 PUSH0 SWAP1 SLOAD SWAP1 PUSH2 0x100 EXP SWAP1 DIV PUSH20 0xFFFFFFFFFFFFFFFFFFFFFFFFFFFFFFFFFFFFFFFF AND PUSH20 0xFFFFFFFFFFFFFFFFFFFFFFFFFFFFFFFFFFFFFFFF AND SELFBALANCE PUSH1 0x40 MLOAD PUSH2 0xB25 SWAP1 PUSH2 0x1D11 JUMP JUMPDEST PUSH0 PUSH1 0x40 MLOAD DUP1 DUP4 SUB DUP2 DUP6 DUP8 GAS CALL SWAP3 POP POP POP RETURNDATASIZE DUP1 PUSH0 DUP2 EQ PUSH2 0xB5F JUMPI PUSH1 0x40 MLOAD SWAP2 POP PUSH1 0x1F NOT PUSH1 0x3F RETURNDATASIZE ADD AND DUP3 ADD PUSH1 0x40 MSTORE RETURNDATASIZE DUP3 MSTORE RETURNDATASIZE PUSH0 PUSH1 0x20 DUP5 ADD RETURNDATACOPY PUSH2 0xB64 JUMP JUMPDEST PUSH1 0x60 SWAP2 POP JUMPDEST POP POP SWAP1 POP DUP1 PUSH2 0xBA8 JUMPI PUSH1 0x40 MLOAD PUSH32 0x8C379A000000000000000000000000000000000000000000000000000000000 DUP2 MSTORE PUSH1 0x4 ADD PUSH2 0xB9F SWAP1 PUSH2 0x213E JUMP JUMPDEST PUSH1 0x40 MLOAD DUP1 SWAP2 SUB SWAP1 REVERT JUMPDEST POP JUMP JUMPDEST PUSH1 0x1 SLOAD CALLVALUE EQ PUSH2 0xBEF JUMPI PUSH1 0x40 MLOAD PUSH32 0x8C379A000000000000000000000000000000000000000000000000000000000 DUP2 MSTORE PUSH1 0x4 ADD PUSH2 0xBE6 SWAP1 PUSH2 0x21A6 JUMP JUMPDEST PUSH1 0x40 MLOAD DUP1 SWAP2 SUB SWAP1 REVERT JUMPDEST PUSH1 0x1 PUSH1 0x2 PUSH0 CALLER PUSH20 0xFFFFFFFFFFFFFFFFFFFFFFFFFFFFFFFFFFFFFFFF AND PUSH20 0xFFFFFFFFFFFFFFFFFFFFFFFFFFFFFFFFFFFFFFFF AND DUP2 MSTORE PUSH1 0x20 ADD SWAP1 DUP2 MSTORE PUSH1 0x20 ADD PUSH0 KECCAK256 PUSH0 DUP3 DUP3 SLOAD PUSH2 0xC3C SWAP2 SWAP1 PUSH2 0x1C49 JUMP JUMPDEST SWAP3 POP POP DUP2 SWAP1 SSTORE POP JUMP JUMPDEST PUSH1 0x2 PUSH1 0x20 MSTORE DUP1 PUSH0 MSTORE PUSH1 0x40 PUSH0 KECCAK256 PUSH0 SWAP2 POP SWAP1 POP SLOAD DUP2 JUMP JUMPDEST PUSH8 0x16345785D8A0000 DUP2 JUMP JUMPDEST PUSH1 0x4 DUP2 DUP2 SLOAD DUP2 LT PUSH2 0xC75 JUMPI PUSH0 DUP1 REVERT JUMPDEST SWAP1 PUSH0 MSTORE PUSH1 0x20 PUSH0 KECCAK256 SWAP1 PUSH1 0x2 MUL ADD PUSH0 SWAP2 POP SWAP1 POP DUP1 PUSH0 ADD DUP1 SLOAD PUSH2 0xC94 SWAP1 PUSH2 0x1BBF JUMP JUMPDEST DUP1 PUSH1 0x1F ADD PUSH1 0x20 DUP1 SWAP2 DIV MUL PUSH1 0x20 ADD PUSH1 0x40 MLOAD SWAP1 DUP2 ADD PUSH1 0x40 MSTORE DUP1 SWAP3 SWAP2 SWAP1 DUP2 DUP2 MSTORE PUSH1 0x20 ADD DUP3 DUP1 SLOAD PUSH2 0xCC0 SWAP1 PUSH2 0x1BBF JUMP JUMPDEST DUP1 ISZERO PUSH2 0xD0B JUMPI DUP1 PUSH1 0x1F LT PUSH2 0xCE2 JUMPI PUSH2 0x100 DUP1 DUP4 SLOAD DIV MUL DUP4 MSTORE SWAP2 PUSH1 0x20 ADD SWAP2 PUSH2 0xD0B JUMP JUMPDEST DUP3 ADD SWAP2 SWAP1 PUSH0 MSTORE PUSH1 0x20 PUSH0 KECCAK256 SWAP1 JUMPDEST DUP2 SLOAD DUP2 MSTORE SWAP1 PUSH1 0x1 ADD SWAP1 PUSH1 0x20 ADD DUP1 DUP4 GT PUSH2 0xCEE JUMPI DUP3 SWAP1 SUB PUSH1 0x1F AND DUP3 ADD SWAP2 JUMPDEST POP POP POP POP POP SWAP1 DUP1 PUSH1 0x1 ADD SLOAD SWAP1 POP DUP3 JUMP JUMPDEST PUSH0 DUP1 SLOAD SWAP1 PUSH2 0x100 EXP SWAP1 DIV PUSH20 0xFFFFFFFFFFFFFFFFFFFFFFFFFFFFFFFFFFFFFFFF AND DUP2 JUMP JUMPDEST PUSH1 0x1 SLOAD DUP2 JUMP JUMPDEST DUP1 PUSH0 DUP1 PUSH2 0x100 EXP DUP2 SLOAD DUP2 PUSH20 0xFFFFFFFFFFFFFFFFFFFFFFFFFFFFFFFFFFFFFFFF MUL NOT AND SWAP1 DUP4 PUSH20 0xFFFFFFFFFFFFFFFFFFFFFFFFFFFFFFFFFFFFFFFF AND MUL OR SWAP1 SSTORE POP POP JUMP JUMPDEST PUSH0 PUSH1 0x2 PUSH0 CALLER PUSH20 0xFFFFFFFFFFFFFFFFFFFFFFFFFFFFFFFFFFFFFFFF AND PUSH20 0xFFFFFFFFFFFFFFFFFFFFFFFFFFFFFFFFFFFFFFFF AND DUP2 MSTORE PUSH1 0x20 ADD SWAP1 DUP2 MSTORE PUSH1 0x20 ADD PUSH0 KECCAK256 SLOAD GT PUSH2 0xE05 JUMPI PUSH1 0x40 MLOAD PUSH32 0x8C379A000000000000000000000000000000000000000000000000000000000 DUP2 MSTORE PUSH1 0x4 ADD PUSH2 0xDFC SWAP1 PUSH2 0x220E JUMP JUMPDEST PUSH1 0x40 MLOAD DUP1 SWAP2 SUB SWAP1 REVERT JUMPDEST PUSH0 PUSH1 0x64 TIMESTAMP CALLER PUSH1 0x40 MLOAD PUSH1 0x20 ADD PUSH2 0xE1B SWAP3 SWAP2 SWAP1 PUSH2 0x2291 JUMP JUMPDEST PUSH1 0x40 MLOAD PUSH1 0x20 DUP2 DUP4 SUB SUB DUP2 MSTORE SWAP1 PUSH1 0x40 MSTORE DUP1 MLOAD SWAP1 PUSH1 0x20 ADD KECCAK256 PUSH0 SHR PUSH2 0xE3D SWAP2 SWAP1 PUSH2 0x22E9 JUMP JUMPDEST SWAP1 POP PUSH1 0x4B DUP2 LT ISZERO PUSH2 0xF1A JUMPI PUSH1 0x3 PUSH0 CALLER PUSH20 0xFFFFFFFFFFFFFFFFFFFFFFFFFFFFFFFFFFFFFFFF AND PUSH20 0xFFFFFFFFFFFFFFFFFFFFFFFFFFFFFFFFFFFFFFFF AND DUP2 MSTORE PUSH1 0x20 ADD SWAP1 DUP2 MSTORE PUSH1 0x20 ADD PUSH0 KECCAK256 PUSH1 0x40 MLOAD DUP1 PUSH1 0x40 ADD PUSH1 0x40 MSTORE DUP1 PUSH1 0x40 MLOAD DUP1 PUSH1 0x40 ADD PUSH1 0x40 MSTORE DUP1 PUSH1 0x4 DUP2 MSTORE PUSH1 0x20 ADD PUSH32 0x436F616C00000000000000000000000000000000000000000000000000000000 DUP2 MSTORE POP DUP2 MSTORE PUSH1 0x20 ADD PUSH0 DUP2 MSTORE POP SWAP1 DUP1 PUSH1 0x1 DUP2 SLOAD ADD DUP1 DUP3 SSTORE DUP1 SWAP2 POP POP PUSH1 0x1 SWAP1 SUB SWAP1 PUSH0 MSTORE PUSH1 0x20 PUSH0 KECCAK256 SWAP1 PUSH1 0x2 MUL ADD PUSH0 SWAP1 SWAP2 SWAP1 SWAP2 SWAP1 SWAP2 POP PUSH0 DUP3 ADD MLOAD DUP2 PUSH0 ADD SWAP1 DUP2 PUSH2 0xF08 SWAP2 SWAP1 PUSH2 0x2319 JUMP JUMPDEST POP PUSH1 0x20 DUP3 ADD MLOAD DUP2 PUSH1 0x1 ADD SSTORE POP POP PUSH2 0x11B8 JUMP JUMPDEST PUSH1 0x5F DUP2 LT ISZERO PUSH2 0xFFD JUMPI PUSH1 0x3 PUSH0 CALLER PUSH20 0xFFFFFFFFFFFFFFFFFFFFFFFFFFFFFFFFFFFFFFFF AND PUSH20 0xFFFFFFFFFFFFFFFFFFFFFFFFFFFFFFFFFFFFFFFF AND DUP2 MSTORE PUSH1 0x20 ADD SWAP1 DUP2 MSTORE PUSH1 0x20 ADD PUSH0 KECCAK256 PUSH1 0x40 MLOAD DUP1 PUSH1 0x40 ADD PUSH1 0x40 MSTORE DUP1 PUSH1 0x40 MLOAD DUP1 PUSH1 0x40 ADD PUSH1 0x40 MSTORE DUP1 PUSH1 0xB DUP2 MSTORE PUSH1 0x20 ADD PUSH32 0x42726F6E7A6520436F696E000000000000000000000000000000000000000000 DUP2 MSTORE POP DUP2 MSTORE PUSH1 0x20 ADD PUSH8 0x16345785D8A0000 DUP2 MSTORE POP SWAP1 DUP1 PUSH1 0x1 DUP2 SLOAD ADD DUP1 DUP3 SSTORE DUP1 SWAP2 POP POP PUSH1 0x1 SWAP1 SUB SWAP1 PUSH0 MSTORE PUSH1 0x20 PUSH0 KECCAK256 SWAP1 PUSH1 0x2 MUL ADD PUSH0 SWAP1 SWAP2 SWAP1 SWAP2 SWAP1 SWAP2 POP PUSH0 DUP3 ADD MLOAD DUP2 PUSH0 ADD SWAP1 DUP2 PUSH2 0xFEB SWAP2 SWAP1 PUSH2 0x2319 JUMP JUMPDEST POP PUSH1 0x20 DUP3 ADD MLOAD DUP2 PUSH1 0x1 ADD SSTORE POP POP PUSH2 0x11B7 JUMP JUMPDEST PUSH1 0x63 DUP2 LT ISZERO PUSH2 0x10E0 JUMPI PUSH1 0x3 PUSH0 CALLER PUSH20 0xFFFFFFFFFFFFFFFFFFFFFFFFFFFFFFFFFFFFFFFF AND PUSH20 0xFFFFFFFFFFFFFFFFFFFFFFFFFFFFFFFFFFFFFFFF AND DUP2 MSTORE PUSH1 0x20 ADD SWAP1 DUP2 MSTORE PUSH1 0x20 ADD PUSH0 KECCAK256 PUSH1 0x40 MLOAD DUP1 PUSH1 0x40 ADD PUSH1 0x40 MSTORE DUP1 PUSH1 0x40 MLOAD DUP1 PUSH1 0x40 ADD PUSH1 0x40 MSTORE DUP1 PUSH1 0xB DUP2 MSTORE PUSH1 0x20 ADD PUSH32 0x53696C76657220436F696E000000000000000000000000000000000000000000 DUP2 MSTORE POP DUP2 MSTORE PUSH1 0x20 ADD PUSH8 0x6F05B59D3B20000 DUP2 MSTORE POP SWAP1 DUP1 PUSH1 0x1 DUP2 SLOAD ADD DUP1 DUP3 SSTORE DUP1 SWAP2 POP POP PUSH1 0x1 SWAP1 SUB SWAP1 PUSH0 MSTORE PUSH1 0x20 PUSH0 KECCAK256 SWAP1 PUSH1 0x2 MUL ADD PUSH0 SWAP1 SWAP2 SWAP1 SWAP2 SWAP1 SWAP2 POP PUSH0 DUP3 ADD MLOAD DUP2 PUSH0 ADD SWAP1 DUP2 PUSH2 0x10CE SWAP2 SWAP1 PUSH2 0x2319 JUMP JUMPDEST POP PUSH1 0x20 DUP3 ADD MLOAD DUP2 PUSH1 0x1 ADD SSTORE POP POP PUSH2 0x11B6 JUMP JUMPDEST PUSH1 0x3 PUSH0 CALLER PUSH20 0xFFFFFFFFFFFFFFFFFFFFFFFFFFFFFFFFFFFFFFFF AND PUSH20 0xFFFFFFFFFFFFFFFFFFFFFFFFFFFFFFFFFFFFFFFF AND DUP2 MSTORE PUSH1 0x20 ADD SWAP1 DUP2 MSTORE PUSH1 0x20 ADD PUSH0 KECCAK256 PUSH1 0x40 MLOAD DUP1 PUSH1 0x40 ADD PUSH1 0x40 MSTORE DUP1 PUSH1 0x40 MLOAD DUP1 PUSH1 0x40 ADD PUSH1 0x40 MSTORE DUP1 PUSH1 0x9 DUP2 MSTORE PUSH1 0x20 ADD PUSH32 0x476F6C6420436F696E0000000000000000000000000000000000000000000000 DUP2 MSTORE POP DUP2 MSTORE PUSH1 0x20 ADD PUSH8 0xDE0B6B3A7640000 DUP2 MSTORE POP SWAP1 DUP1 PUSH1 0x1 DUP2 SLOAD ADD DUP1 DUP3 SSTORE DUP1 SWAP2 POP POP PUSH1 0x1 SWAP1 SUB SWAP1 PUSH0 MSTORE PUSH1 0x20 PUSH0 KECCAK256 SWAP1 PUSH1 0x2 MUL ADD PUSH0 SWAP1 SWAP2 SWAP1 SWAP2 SWAP1 SWAP2 POP PUSH0 DUP3 ADD MLOAD DUP2 PUSH0 ADD SWAP1 DUP2 PUSH2 0x11A8 SWAP2 SWAP1 PUSH2 0x2319 JUMP JUMPDEST POP PUSH1 0x20 DUP3 ADD MLOAD DUP2 PUSH1 0x1 ADD SSTORE POP POP JUMPDEST JUMPDEST JUMPDEST PUSH1 0x1 PUSH1 0x2 PUSH0 CALLER PUSH20 0xFFFFFFFFFFFFFFFFFFFFFFFFFFFFFFFFFFFFFFFF AND PUSH20 0xFFFFFFFFFFFFFFFFFFFFFFFFFFFFFFFFFFFFFFFF AND DUP2 MSTORE PUSH1 0x20 ADD SWAP1 DUP2 MSTORE PUSH1 0x20 ADD PUSH0 KECCAK256 PUSH0 DUP3 DUP3 SLOAD PUSH2 0x1205 SWAP2 SWAP1 PUSH2 0x23E8 JUMP JUMPDEST SWAP3 POP POP DUP2 SWAP1 SSTORE POP POP JUMP JUMPDEST PUSH0 DUP1 SLOAD SWAP1 PUSH2 0x100 EXP SWAP1 DIV PUSH20 0xFFFFFFFFFFFFFFFFFFFFFFFFFFFFFFFFFFFFFFFF AND PUSH20 0xFFFFFFFFFFFFFFFFFFFFFFFFFFFFFFFFFFFFFFFF AND CALLER PUSH20 0xFFFFFFFFFFFFFFFFFFFFFFFFFFFFFFFFFFFFFFFF AND EQ PUSH2 0x129C JUMPI PUSH1 0x40 MLOAD PUSH32 0x8C379A000000000000000000000000000000000000000000000000000000000 DUP2 MSTORE PUSH1 0x4 ADD PUSH2 0x1293 SWAP1 PUSH2 0x2465 JUMP JUMPDEST PUSH1 0x40 MLOAD DUP1 SWAP2 SUB SWAP1 REVERT JUMPDEST PUSH1 0x4 PUSH1 0x40 MLOAD DUP1 PUSH1 0x40 ADD PUSH1 0x40 MSTORE DUP1 DUP5 DUP2 MSTORE PUSH1 0x20 ADD DUP4 DUP2 MSTORE POP SWAP1 DUP1 PUSH1 0x1 DUP2 SLOAD ADD DUP1 DUP3 SSTORE DUP1 SWAP2 POP POP PUSH1 0x1 SWAP1 SUB SWAP1 PUSH0 MSTORE PUSH1 0x20 PUSH0 KECCAK256 SWAP1 PUSH1 0x2 MUL ADD PUSH0 SWAP1 SWAP2 SWAP1 SWAP2 SWAP1 SWAP2 POP PUSH0 DUP3 ADD MLOAD DUP2 PUSH0 ADD SWAP1 DUP2 PUSH2 0x12EC SWAP2 SWAP1 PUSH2 0x2319 JUMP JUMPDEST POP PUSH1 0x20 DUP3 ADD MLOAD DUP2 PUSH1 0x1 ADD SSTORE POP POP POP POP JUMP JUMPDEST PUSH1 0x3 PUSH0 CALLER PUSH20 0xFFFFFFFFFFFFFFFFFFFFFFFFFFFFFFFFFFFFFFFF AND PUSH20 0xFFFFFFFFFFFFFFFFFFFFFFFFFFFFFFFFFFFFFFFF AND DUP2 MSTORE PUSH1 0x20 ADD SWAP1 DUP2 MSTORE PUSH1 0x20 ADD PUSH0 KECCAK256 DUP1 SLOAD SWAP1 POP DUP2 GT ISZERO PUSH2 0x1380 JUMPI PUSH1 0x40 MLOAD PUSH32 0x8C379A000000000000000000000000000000000000000000000000000000000 DUP2 MSTORE PUSH1 0x4 ADD PUSH2 0x1377 SWAP1 PUSH2 0x1DD7 JUMP JUMPDEST PUSH1 0x40 MLOAD DUP1 SWAP2 SUB SWAP1 REVERT JUMPDEST PUSH0 PUSH1 0x3 PUSH0 CALLER PUSH20 0xFFFFFFFFFFFFFFFFFFFFFFFFFFFFFFFFFFFFFFFF AND PUSH20 0xFFFFFFFFFFFFFFFFFFFFFFFFFFFFFFFFFFFFFFFF AND DUP2 MSTORE PUSH1 0x20 ADD SWAP1 DUP2 MSTORE PUSH1 0x20 ADD PUSH0 KECCAK256 DUP3 DUP2 SLOAD DUP2 LT PUSH2 0x13D0 JUMPI PUSH2 0x13CF PUSH2 0x1BEF JUMP JUMPDEST JUMPDEST SWAP1 PUSH0 MSTORE PUSH1 0x20 PUSH0 KECCAK256 SWAP1 PUSH1 0x2 MUL ADD PUSH1 0x1 ADD SLOAD SWAP1 POP PUSH0 DUP2 GT PUSH2 0x1424 JUMPI PUSH1 0x40 MLOAD PUSH32 0x8C379A000000000000000000000000000000000000000000000000000000000 DUP2 MSTORE PUSH1 0x4 ADD PUSH2 0x141B SWAP1 PUSH2 0x24CD JUMP JUMPDEST PUSH1 0x40 MLOAD DUP1 SWAP2 SUB SWAP1 REVERT JUMPDEST PUSH0 CALLER PUSH20 0xFFFFFFFFFFFFFFFFFFFFFFFFFFFFFFFFFFFFFFFF AND DUP3 PUSH1 0x40 MLOAD PUSH2 0x1449 SWAP1 PUSH2 0x1D11 JUMP JUMPDEST PUSH0 PUSH1 0x40 MLOAD DUP1 DUP4 SUB DUP2 DUP6 DUP8 GAS CALL SWAP3 POP POP POP RETURNDATASIZE DUP1 PUSH0 DUP2 EQ PUSH2 0x1483 JUMPI PUSH1 0x40 MLOAD SWAP2 POP PUSH1 0x1F NOT PUSH1 0x3F RETURNDATASIZE ADD AND DUP3 ADD PUSH1 0x40 MSTORE RETURNDATASIZE DUP3 MSTORE RETURNDATASIZE PUSH0 PUSH1 0x20 DUP5 ADD RETURNDATACOPY PUSH2 0x1488 JUMP JUMPDEST PUSH1 0x60 SWAP2 POP JUMPDEST POP POP SWAP1 POP DUP1 PUSH2 0x14CC JUMPI PUSH1 0x40 MLOAD PUSH32 0x8C379A000000000000000000000000000000000000000000000000000000000 DUP2 MSTORE PUSH1 0x4 ADD PUSH2 0x14C3 SWAP1 PUSH2 0x213E JUMP JUMPDEST PUSH1 0x40 MLOAD DUP1 SWAP2 SUB SWAP1 REVERT JUMPDEST PUSH1 0x3 PUSH0 CALLER PUSH20 0xFFFFFFFFFFFFFFFFFFFFFFFFFFFFFFFFFFFFFFFF AND PUSH20 0xFFFFFFFFFFFFFFFFFFFFFFFFFFFFFFFFFFFFFFFF AND DUP2 MSTORE PUSH1 0x20 ADD SWAP1 DUP2 MSTORE PUSH1 0x20 ADD PUSH0 KECCAK256 DUP4 DUP2 SLOAD DUP2 LT PUSH2 0x151B JUMPI PUSH2 0x151A PUSH2 0x1BEF JUMP JUMPDEST JUMPDEST SWAP1 PUSH0 MSTORE PUSH1 0x20 PUSH0 KECCAK256 SWAP1 PUSH1 0x2 MUL ADD PUSH0 DUP1 DUP3 ADD PUSH0 PUSH2 0x1536 SWAP2 SWAP1 PUSH2 0x15FC JUMP JUMPDEST PUSH1 0x1 DUP3 ADD PUSH0 SWAP1 SSTORE POP POP POP POP POP JUMP JUMPDEST PUSH0 DUP1 SLOAD SWAP1 PUSH2 0x100 EXP SWAP1 DIV PUSH20 0xFFFFFFFFFFFFFFFFFFFFFFFFFFFFFFFFFFFFFFFF AND PUSH20 0xFFFFFFFFFFFFFFFFFFFFFFFFFFFFFFFFFFFFFFFF AND CALLER PUSH20 0xFFFFFFFFFFFFFFFFFFFFFFFFFFFFFFFFFFFFFFFF AND EQ PUSH2 0x15D1 JUMPI PUSH1 0x40 MLOAD PUSH32 0x8C379A000000000000000000000000000000000000000000000000000000000 DUP2 MSTORE PUSH1 0x4 ADD PUSH2 0x15C8 SWAP1 PUSH2 0x2535 JUMP JUMPDEST PUSH1 0x40 MLOAD DUP1 SWAP2 SUB SWAP1 REVERT JUMPDEST DUP1 PUSH1 0x1 DUP2 SWAP1 SSTORE POP POP JUMP JUMPDEST POP DUP1 SLOAD PUSH0 DUP3 SSTORE PUSH1 0x2 MUL SWAP1 PUSH0 MSTORE PUSH1 0x20 PUSH0 KECCAK256 SWAP1 DUP2 ADD SWAP1 PUSH2 0x15F9 SWAP2 SWAP1 PUSH2 0x1639 JUMP JUMPDEST POP JUMP JUMPDEST POP DUP1 SLOAD PUSH2 0x1608 SWAP1 PUSH2 0x1BBF JUMP JUMPDEST PUSH0 DUP3 SSTORE DUP1 PUSH1 0x1F LT PUSH2 0x1619 JUMPI POP PUSH2 0x1636 JUMP JUMPDEST PUSH1 0x1F ADD PUSH1 0x20 SWAP1 DIV SWAP1 PUSH0 MSTORE PUSH1 0x20 PUSH0 KECCAK256 SWAP1 DUP2 ADD SWAP1 PUSH2 0x1635 SWAP2 SWAP1 PUSH2 0x1665 JUMP JUMPDEST JUMPDEST POP JUMP JUMPDEST JUMPDEST DUP1 DUP3 GT ISZERO PUSH2 0x1661 JUMPI PUSH0 DUP1 DUP3 ADD PUSH0 PUSH2 0x1651 SWAP2 SWAP1 PUSH2 0x15FC JUMP JUMPDEST PUSH1 0x1 DUP3 ADD PUSH0 SWAP1 SSTORE POP PUSH1 0x2 ADD PUSH2 0x163A JUMP JUMPDEST POP SWAP1 JUMP JUMPDEST JUMPDEST DUP1 DUP3 GT ISZERO PUSH2 0x167C JUMPI PUSH0 DUP2 PUSH0 SWAP1 SSTORE POP PUSH1 0x1 ADD PUSH2 0x1666 JUMP JUMPDEST POP SWAP1 JUMP JUMPDEST PUSH0 DUP2 MLOAD SWAP1 POP SWAP2 SWAP1 POP JUMP JUMPDEST PUSH0 DUP3 DUP3 MSTORE PUSH1 0x20 DUP3 ADD SWAP1 POP SWAP3 SWAP2 POP POP JUMP JUMPDEST PUSH0 DUP2 SWAP1 POP PUSH1 0x20 DUP3 ADD SWAP1 POP SWAP2 SWAP1 POP JUMP JUMPDEST PUSH0 DUP2 MLOAD SWAP1 POP SWAP2 SWAP1 POP JUMP JUMPDEST PUSH0 DUP3 DUP3 MSTORE PUSH1 0x20 DUP3 ADD SWAP1 POP SWAP3 SWAP2 POP POP JUMP JUMPDEST DUP3 DUP2 DUP4 MCOPY PUSH0 DUP4 DUP4 ADD MSTORE POP POP POP JUMP JUMPDEST PUSH0 PUSH1 0x1F NOT PUSH1 0x1F DUP4 ADD AND SWAP1 POP SWAP2 SWAP1 POP JUMP JUMPDEST PUSH0 PUSH2 0x16EB DUP3 PUSH2 0x16A9 JUMP JUMPDEST PUSH2 0x16F5 DUP2 DUP6 PUSH2 0x16B3 JUMP JUMPDEST SWAP4 POP PUSH2 0x1705 DUP2 DUP6 PUSH1 0x20 DUP7 ADD PUSH2 0x16C3 JUMP JUMPDEST PUSH2 0x170E DUP2 PUSH2 0x16D1 JUMP JUMPDEST DUP5 ADD SWAP2 POP POP SWAP3 SWAP2 POP POP JUMP JUMPDEST PUSH0 DUP2 SWAP1 POP SWAP2 SWAP1 POP JUMP JUMPDEST PUSH2 0x172B DUP2 PUSH2 0x1719 JUMP JUMPDEST DUP3 MSTORE POP POP JUMP JUMPDEST PUSH0 PUSH1 0x40 DUP4 ADD PUSH0 DUP4 ADD MLOAD DUP5 DUP3 SUB PUSH0 DUP7 ADD MSTORE PUSH2 0x174B DUP3 DUP3 PUSH2 0x16E1 JUMP JUMPDEST SWAP2 POP POP PUSH1 0x20 DUP4 ADD MLOAD PUSH2 0x1760 PUSH1 0x20 DUP7 ADD DUP3 PUSH2 0x1722 JUMP JUMPDEST POP DUP1 SWAP2 POP POP SWAP3 SWAP2 POP POP JUMP JUMPDEST PUSH0 PUSH2 0x1776 DUP4 DUP4 PUSH2 0x1731 JUMP JUMPDEST SWAP1 POP SWAP3 SWAP2 POP POP JUMP JUMPDEST PUSH0 PUSH1 0x20 DUP3 ADD SWAP1 POP SWAP2 SWAP1 POP JUMP JUMPDEST PUSH0 PUSH2 0x1794 DUP3 PUSH2 0x1680 JUMP JUMPDEST PUSH2 0x179E DUP2 DUP6 PUSH2 0x168A JUMP JUMPDEST SWAP4 POP DUP4 PUSH1 0x20 DUP3 MUL DUP6 ADD PUSH2 0x17B0 DUP6 PUSH2 0x169A JUMP JUMPDEST DUP1 PUSH0 JUMPDEST DUP6 DUP2 LT ISZERO PUSH2 0x17EB JUMPI DUP5 DUP5 SUB DUP10 MSTORE DUP2 MLOAD PUSH2 0x17CC DUP6 DUP3 PUSH2 0x176B JUMP JUMPDEST SWAP5 POP PUSH2 0x17D7 DUP4 PUSH2 0x177E JUMP JUMPDEST SWAP3 POP PUSH1 0x20 DUP11 ADD SWAP10 POP POP PUSH1 0x1 DUP2 ADD SWAP1 POP PUSH2 0x17B3 JUMP JUMPDEST POP DUP3 SWAP8 POP DUP8 SWAP6 POP POP POP POP POP POP SWAP3 SWAP2 POP POP JUMP JUMPDEST PUSH0 PUSH1 0x20 DUP3 ADD SWAP1 POP DUP2 DUP2 SUB PUSH0 DUP4 ADD MSTORE PUSH2 0x1815 DUP2 DUP5 PUSH2 0x178A JUMP JUMPDEST SWAP1 POP SWAP3 SWAP2 POP POP JUMP JUMPDEST PUSH0 PUSH1 0x40 MLOAD SWAP1 POP SWAP1 JUMP JUMPDEST PUSH0 DUP1 REVERT JUMPDEST PUSH0 DUP1 REVERT JUMPDEST PUSH0 PUSH20 0xFFFFFFFFFFFFFFFFFFFFFFFFFFFFFFFFFFFFFFFF DUP3 AND SWAP1 POP SWAP2 SWAP1 POP JUMP JUMPDEST PUSH0 PUSH2 0x1857 DUP3 PUSH2 0x182E JUMP JUMPDEST SWAP1 POP SWAP2 SWAP1 POP JUMP JUMPDEST PUSH2 0x1867 DUP2 PUSH2 0x184D JUMP JUMPDEST DUP2 EQ PUSH2 0x1871 JUMPI PUSH0 DUP1 REVERT JUMPDEST POP JUMP JUMPDEST PUSH0 DUP2 CALLDATALOAD SWAP1 POP PUSH2 0x1882 DUP2 PUSH2 0x185E JUMP JUMPDEST SWAP3 SWAP2 POP POP JUMP JUMPDEST PUSH2 0x1891 DUP2 PUSH2 0x1719 JUMP JUMPDEST DUP2 EQ PUSH2 0x189B JUMPI PUSH0 DUP1 REVERT JUMPDEST POP JUMP JUMPDEST PUSH0 DUP2 CALLDATALOAD SWAP1 POP PUSH2 0x18AC DUP2 PUSH2 0x1888 JUMP JUMPDEST SWAP3 SWAP2 POP POP JUMP JUMPDEST PUSH0 DUP1 PUSH1 0x40 DUP4 DUP6 SUB SLT ISZERO PUSH2 0x18C8 JUMPI PUSH2 0x18C7 PUSH2 0x1826 JUMP JUMPDEST JUMPDEST PUSH0 PUSH2 0x18D5 DUP6 DUP3 DUP7 ADD PUSH2 0x1874 JUMP JUMPDEST SWAP3 POP POP PUSH1 0x20 PUSH2 0x18E6 DUP6 DUP3 DUP7 ADD PUSH2 0x189E JUMP JUMPDEST SWAP2 POP POP SWAP3 POP SWAP3 SWAP1 POP JUMP JUMPDEST PUSH0 DUP3 DUP3 MSTORE PUSH1 0x20 DUP3 ADD SWAP1 POP SWAP3 SWAP2 POP POP JUMP JUMPDEST PUSH0 PUSH2 0x190A DUP3 PUSH2 0x16A9 JUMP JUMPDEST PUSH2 0x1914 DUP2 DUP6 PUSH2 0x18F0 JUMP JUMPDEST SWAP4 POP PUSH2 0x1924 DUP2 DUP6 PUSH1 0x20 DUP7 ADD PUSH2 0x16C3 JUMP JUMPDEST PUSH2 0x192D DUP2 PUSH2 0x16D1 JUMP JUMPDEST DUP5 ADD SWAP2 POP POP SWAP3 SWAP2 POP POP JUMP JUMPDEST PUSH2 0x1941 DUP2 PUSH2 0x1719 JUMP JUMPDEST DUP3 MSTORE POP POP JUMP JUMPDEST PUSH0 PUSH1 0x40 DUP3 ADD SWAP1 POP DUP2 DUP2 SUB PUSH0 DUP4 ADD MSTORE PUSH2 0x195F DUP2 DUP6 PUSH2 0x1900 JUMP JUMPDEST SWAP1 POP PUSH2 0x196E PUSH1 0x20 DUP4 ADD DUP5 PUSH2 0x1938 JUMP JUMPDEST SWAP4 SWAP3 POP POP POP JUMP JUMPDEST PUSH0 PUSH1 0x20 DUP3 DUP5 SUB SLT ISZERO PUSH2 0x198A JUMPI PUSH2 0x1989 PUSH2 0x1826 JUMP JUMPDEST JUMPDEST PUSH0 PUSH2 0x1997 DUP5 DUP3 DUP6 ADD PUSH2 0x1874 JUMP JUMPDEST SWAP2 POP POP SWAP3 SWAP2 POP POP JUMP JUMPDEST PUSH0 PUSH1 0x20 DUP3 ADD SWAP1 POP PUSH2 0x19B3 PUSH0 DUP4 ADD DUP5 PUSH2 0x1938 JUMP JUMPDEST SWAP3 SWAP2 POP POP JUMP JUMPDEST PUSH0 PUSH1 0x20 DUP3 DUP5 SUB SLT ISZERO PUSH2 0x19CE JUMPI PUSH2 0x19CD PUSH2 0x1826 JUMP JUMPDEST JUMPDEST PUSH0 PUSH2 0x19DB DUP5 DUP3 DUP6 ADD PUSH2 0x189E JUMP JUMPDEST SWAP2 POP POP SWAP3 SWAP2 POP POP JUMP JUMPDEST PUSH2 0x19ED DUP2 PUSH2 0x184D JUMP JUMPDEST DUP3 MSTORE POP POP JUMP JUMPDEST PUSH0 PUSH1 0x20 DUP3 ADD SWAP1 POP PUSH2 0x1A06 PUSH0 DUP4 ADD DUP5 PUSH2 0x19E4 JUMP JUMPDEST SWAP3 SWAP2 POP POP JUMP JUMPDEST PUSH0 DUP1 REVERT JUMPDEST PUSH0 DUP1 REVERT JUMPDEST PUSH32 0x4E487B7100000000000000000000000000000000000000000000000000000000 PUSH0 MSTORE PUSH1 0x41 PUSH1 0x4 MSTORE PUSH1 0x24 PUSH0 REVERT JUMPDEST PUSH2 0x1A4A DUP3 PUSH2 0x16D1 JUMP JUMPDEST DUP2 ADD DUP2 DUP2 LT PUSH8 0xFFFFFFFFFFFFFFFF DUP3 GT OR ISZERO PUSH2 0x1A69 JUMPI PUSH2 0x1A68 PUSH2 0x1A14 JUMP JUMPDEST JUMPDEST DUP1 PUSH1 0x40 MSTORE POP POP POP JUMP JUMPDEST PUSH0 PUSH2 0x1A7B PUSH2 0x181D JUMP JUMPDEST SWAP1 POP PUSH2 0x1A87 DUP3 DUP3 PUSH2 0x1A41 JUMP JUMPDEST SWAP2 SWAP1 POP JUMP JUMPDEST PUSH0 PUSH8 0xFFFFFFFFFFFFFFFF DUP3 GT ISZERO PUSH2 0x1AA6 JUMPI PUSH2 0x1AA5 PUSH2 0x1A14 JUMP JUMPDEST JUMPDEST PUSH2 0x1AAF DUP3 PUSH2 0x16D1 JUMP JUMPDEST SWAP1 POP PUSH1 0x20 DUP2 ADD SWAP1 POP SWAP2 SWAP1 POP JUMP JUMPDEST DUP3 DUP2 DUP4 CALLDATACOPY PUSH0 DUP4 DUP4 ADD MSTORE POP POP POP JUMP JUMPDEST PUSH0 PUSH2 0x1ADC PUSH2 0x1AD7 DUP5 PUSH2 0x1A8C JUMP JUMPDEST PUSH2 0x1A72 JUMP JUMPDEST SWAP1 POP DUP3 DUP2 MSTORE PUSH1 0x20 DUP2 ADD DUP5 DUP5 DUP5 ADD GT ISZERO PUSH2 0x1AF8 JUMPI PUSH2 0x1AF7 PUSH2 0x1A10 JUMP JUMPDEST JUMPDEST PUSH2 0x1B03 DUP5 DUP3 DUP6 PUSH2 0x1ABC JUMP JUMPDEST POP SWAP4 SWAP3 POP POP POP JUMP JUMPDEST PUSH0 DUP3 PUSH1 0x1F DUP4 ADD SLT PUSH2 0x1B1F JUMPI PUSH2 0x1B1E PUSH2 0x1A0C JUMP JUMPDEST JUMPDEST DUP2 CALLDATALOAD PUSH2 0x1B2F DUP5 DUP3 PUSH1 0x20 DUP7 ADD PUSH2 0x1ACA JUMP JUMPDEST SWAP2 POP POP SWAP3 SWAP2 POP POP JUMP JUMPDEST PUSH0 DUP1 PUSH1 0x40 DUP4 DUP6 SUB SLT ISZERO PUSH2 0x1B4E JUMPI PUSH2 0x1B4D PUSH2 0x1826 JUMP JUMPDEST JUMPDEST PUSH0 DUP4 ADD CALLDATALOAD PUSH8 0xFFFFFFFFFFFFFFFF DUP2 GT ISZERO PUSH2 0x1B6B JUMPI PUSH2 0x1B6A PUSH2 0x182A JUMP JUMPDEST JUMPDEST PUSH2 0x1B77 DUP6 DUP3 DUP7 ADD PUSH2 0x1B0B JUMP JUMPDEST SWAP3 POP POP PUSH1 0x20 PUSH2 0x1B88 DUP6 DUP3 DUP7 ADD PUSH2 0x189E JUMP JUMPDEST SWAP2 POP POP SWAP3 POP SWAP3 SWAP1 POP JUMP JUMPDEST PUSH32 0x4E487B7100000000000000000000000000000000000000000000000000000000 PUSH0 MSTORE PUSH1 0x22 PUSH1 0x4 MSTORE PUSH1 0x24 PUSH0 REVERT JUMPDEST PUSH0 PUSH1 0x2 DUP3 DIV SWAP1 POP PUSH1 0x1 DUP3 AND DUP1 PUSH2 0x1BD6 JUMPI PUSH1 0x7F DUP3 AND SWAP2 POP JUMPDEST PUSH1 0x20 DUP3 LT DUP2 SUB PUSH2 0x1BE9 JUMPI PUSH2 0x1BE8 PUSH2 0x1B92 JUMP JUMPDEST JUMPDEST POP SWAP2 SWAP1 POP JUMP JUMPDEST PUSH32 0x4E487B7100000000000000000000000000000000000000000000000000000000 PUSH0 MSTORE PUSH1 0x32 PUSH1 0x4 MSTORE PUSH1 0x24 PUSH0 REVERT JUMPDEST PUSH32 0x4E487B7100000000000000000000000000000000000000000000000000000000 PUSH0 MSTORE PUSH1 0x11 PUSH1 0x4 MSTORE PUSH1 0x24 PUSH0 REVERT JUMPDEST PUSH0 PUSH2 0x1C53 DUP3 PUSH2 0x1719 JUMP JUMPDEST SWAP2 POP PUSH2 0x1C5E DUP4 PUSH2 0x1719 JUMP JUMPDEST SWAP3 POP DUP3 DUP3 ADD SWAP1 POP DUP1 DUP3 GT ISZERO PUSH2 0x1C76 JUMPI PUSH2 0x1C75 PUSH2 0x1C1C JUMP JUMPDEST JUMPDEST SWAP3 SWAP2 POP POP JUMP JUMPDEST PUSH32 0x4E6F207265776172647320746F20636C61696D00000000000000000000000000 PUSH0 DUP3 ADD MSTORE POP JUMP JUMPDEST PUSH0 PUSH2 0x1CB0 PUSH1 0x13 DUP4 PUSH2 0x18F0 JUMP JUMPDEST SWAP2 POP PUSH2 0x1CBB DUP3 PUSH2 0x1C7C JUMP JUMPDEST PUSH1 0x20 DUP3 ADD SWAP1 POP SWAP2 SWAP1 POP JUMP JUMPDEST PUSH0 PUSH1 0x20 DUP3 ADD SWAP1 POP DUP2 DUP2 SUB PUSH0 DUP4 ADD MSTORE PUSH2 0x1CDD DUP2 PUSH2 0x1CA4 JUMP JUMPDEST SWAP1 POP SWAP2 SWAP1 POP JUMP JUMPDEST PUSH0 DUP2 SWAP1 POP SWAP3 SWAP2 POP POP JUMP JUMPDEST POP JUMP JUMPDEST PUSH0 PUSH2 0x1CFC PUSH0 DUP4 PUSH2 0x1CE4 JUMP JUMPDEST SWAP2 POP PUSH2 0x1D07 DUP3 PUSH2 0x1CEE JUMP JUMPDEST PUSH0 DUP3 ADD SWAP1 POP SWAP2 SWAP1 POP JUMP JUMPDEST PUSH0 PUSH2 0x1D1B DUP3 PUSH2 0x1CF1 JUMP JUMPDEST SWAP2 POP DUP2 SWAP1 POP SWAP2 SWAP1 POP JUMP JUMPDEST PUSH32 0x5472616E73666572206661696C65642D3E20436865636B000000000000000000 PUSH0 DUP3 ADD MSTORE POP JUMP JUMPDEST PUSH0 PUSH2 0x1D59 PUSH1 0x17 DUP4 PUSH2 0x18F0 JUMP JUMPDEST SWAP2 POP PUSH2 0x1D64 DUP3 PUSH2 0x1D25 JUMP JUMPDEST PUSH1 0x20 DUP3 ADD SWAP1 POP SWAP2 SWAP1 POP JUMP JUMPDEST PUSH0 PUSH1 0x20 DUP3 ADD SWAP1 POP DUP2 DUP2 SUB PUSH0 DUP4 ADD MSTORE PUSH2 0x1D86 DUP2 PUSH2 0x1D4D JUMP JUMPDEST SWAP1 POP SWAP2 SWAP1 POP JUMP JUMPDEST PUSH32 0x496E76616C696420696E64657800000000000000000000000000000000000000 PUSH0 DUP3 ADD MSTORE POP JUMP JUMPDEST PUSH0 PUSH2 0x1DC1 PUSH1 0xD DUP4 PUSH2 0x18F0 JUMP JUMPDEST SWAP2 POP PUSH2 0x1DCC DUP3 PUSH2 0x1D8D JUMP JUMPDEST PUSH1 0x20 DUP3 ADD SWAP1 POP SWAP2 SWAP1 POP JUMP JUMPDEST PUSH0 PUSH1 0x20 DUP3 ADD SWAP1 POP DUP2 DUP2 SUB PUSH0 DUP4 ADD MSTORE PUSH2 0x1DEE DUP2 PUSH2 0x1DB5 JUMP JUMPDEST SWAP1 POP SWAP2 SWAP1 POP JUMP JUMPDEST PUSH0 DUP2 SLOAD SWAP1 POP PUSH2 0x1E03 DUP2 PUSH2 0x1BBF JUMP JUMPDEST SWAP1 POP SWAP2 SWAP1 POP JUMP JUMPDEST PUSH0 DUP2 SWAP1 POP DUP2 PUSH0 MSTORE PUSH1 0x20 PUSH0 KECCAK256 SWAP1 POP SWAP2 SWAP1 POP JUMP JUMPDEST PUSH0 PUSH1 0x20 PUSH1 0x1F DUP4 ADD DIV SWAP1 POP SWAP2 SWAP1 POP JUMP JUMPDEST PUSH0 DUP3 DUP3 SHL SWAP1 POP SWAP3 SWAP2 POP POP JUMP JUMPDEST PUSH0 PUSH1 0x8 DUP4 MUL PUSH2 0x1E66 PUSH32 0xFFFFFFFFFFFFFFFFFFFFFFFFFFFFFFFFFFFFFFFFFFFFFFFFFFFFFFFFFFFFFFFF DUP3 PUSH2 0x1E2B JUMP JUMPDEST PUSH2 0x1E70 DUP7 DUP4 PUSH2 0x1E2B JUMP JUMPDEST SWAP6 POP DUP1 NOT DUP5 AND SWAP4 POP DUP1 DUP7 AND DUP5 OR SWAP3 POP POP POP SWAP4 SWAP3 POP POP POP JUMP JUMPDEST PUSH0 DUP2 SWAP1 POP SWAP2 SWAP1 POP JUMP JUMPDEST PUSH0 PUSH2 0x1EAB PUSH2 0x1EA6 PUSH2 0x1EA1 DUP5 PUSH2 0x1719 JUMP JUMPDEST PUSH2 0x1E88 JUMP JUMPDEST PUSH2 0x1719 JUMP JUMPDEST SWAP1 POP SWAP2 SWAP1 POP JUMP JUMPDEST PUSH0 DUP2 SWAP1 POP SWAP2 SWAP1 POP JUMP JUMPDEST PUSH2 0x1EC4 DUP4 PUSH2 0x1E91 JUMP JUMPDEST PUSH2 0x1ED8 PUSH2 0x1ED0 DUP3 PUSH2 0x1EB2 JUMP JUMPDEST DUP5 DUP5 SLOAD PUSH2 0x1E37 JUMP JUMPDEST DUP3 SSTORE POP POP POP POP JUMP JUMPDEST PUSH0 SWAP1 JUMP JUMPDEST PUSH2 0x1EEC PUSH2 0x1EE0 JUMP JUMPDEST PUSH2 0x1EF7 DUP2 DUP5 DUP5 PUSH2 0x1EBB JUMP JUMPDEST POP POP POP JUMP JUMPDEST JUMPDEST DUP2 DUP2 LT ISZERO PUSH2 0x1F1A JUMPI PUSH2 0x1F0F PUSH0 DUP3 PUSH2 0x1EE4 JUMP JUMPDEST PUSH1 0x1 DUP2 ADD SWAP1 POP PUSH2 0x1EFD JUMP JUMPDEST POP POP JUMP JUMPDEST PUSH1 0x1F DUP3 GT ISZERO PUSH2 0x1F5F JUMPI PUSH2 0x1F30 DUP2 PUSH2 0x1E0A JUMP JUMPDEST PUSH2 0x1F39 DUP5 PUSH2 0x1E1C JUMP JUMPDEST DUP2 ADD PUSH1 0x20 DUP6 LT ISZERO PUSH2 0x1F48 JUMPI DUP2 SWAP1 POP JUMPDEST PUSH2 0x1F5C PUSH2 0x1F54 DUP6 PUSH2 0x1E1C JUMP JUMPDEST DUP4 ADD DUP3 PUSH2 0x1EFC JUMP JUMPDEST POP POP JUMPDEST POP POP POP JUMP JUMPDEST PUSH0 DUP3 DUP3 SHR SWAP1 POP SWAP3 SWAP2 POP POP JUMP JUMPDEST PUSH0 PUSH2 0x1F7F PUSH0 NOT DUP5 PUSH1 0x8 MUL PUSH2 0x1F64 JUMP JUMPDEST NOT DUP1 DUP4 AND SWAP2 POP POP SWAP3 SWAP2 POP POP JUMP JUMPDEST PUSH0 PUSH2 0x1F97 DUP4 DUP4 PUSH2 0x1F70 JUMP JUMPDEST SWAP2 POP DUP3 PUSH1 0x2 MUL DUP3 OR SWAP1 POP SWAP3 SWAP2 POP POP JUMP JUMPDEST DUP2 DUP2 SUB PUSH2 0x1FB5 JUMPI POP POP PUSH2 0x208A JUMP JUMPDEST PUSH2 0x1FBE DUP3 PUSH2 0x1DF5 JUMP JUMPDEST PUSH8 0xFFFFFFFFFFFFFFFF DUP2 GT ISZERO PUSH2 0x1FD7 JUMPI PUSH2 0x1FD6 PUSH2 0x1A14 JUMP JUMPDEST JUMPDEST PUSH2 0x1FE1 DUP3 SLOAD PUSH2 0x1BBF JUMP JUMPDEST PUSH2 0x1FEC DUP3 DUP3 DUP6 PUSH2 0x1F1E JUMP JUMPDEST PUSH0 PUSH1 0x1F DUP4 GT PUSH1 0x1 DUP2 EQ PUSH2 0x2019 JUMPI PUSH0 DUP5 ISZERO PUSH2 0x2007 JUMPI DUP3 DUP8 ADD SLOAD SWAP1 POP JUMPDEST PUSH2 0x2011 DUP6 DUP3 PUSH2 0x1F8C JUMP JUMPDEST DUP7 SSTORE POP PUSH2 0x2083 JUMP JUMPDEST PUSH1 0x1F NOT DUP5 AND PUSH2 0x2027 DUP8 PUSH2 0x1E0A JUMP JUMPDEST SWAP7 POP PUSH2 0x2032 DUP7 PUSH2 0x1E0A JUMP JUMPDEST PUSH0 JUMPDEST DUP3 DUP2 LT ISZERO PUSH2 0x2059 JUMPI DUP5 DUP10 ADD SLOAD DUP3 SSTORE PUSH1 0x1 DUP3 ADD SWAP2 POP PUSH1 0x1 DUP6 ADD SWAP5 POP PUSH1 0x20 DUP2 ADD SWAP1 POP PUSH2 0x2034 JUMP JUMPDEST DUP7 DUP4 LT ISZERO PUSH2 0x2076 JUMPI DUP5 DUP10 ADD SLOAD PUSH2 0x2072 PUSH1 0x1F DUP10 AND DUP3 PUSH2 0x1F70 JUMP JUMPDEST DUP4 SSTORE POP JUMPDEST PUSH1 0x1 PUSH1 0x2 DUP9 MUL ADD DUP9 SSTORE POP POP POP JUMPDEST POP POP POP POP POP POP JUMPDEST JUMP JUMPDEST PUSH32 0x4F6E6C79206F776E65722063616E207769746864726177000000000000000000 PUSH0 DUP3 ADD MSTORE POP JUMP JUMPDEST PUSH0 PUSH2 0x20C0 PUSH1 0x17 DUP4 PUSH2 0x18F0 JUMP JUMPDEST SWAP2 POP PUSH2 0x20CB DUP3 PUSH2 0x208C JUMP JUMPDEST PUSH1 0x20 DUP3 ADD SWAP1 POP SWAP2 SWAP1 POP JUMP JUMPDEST PUSH0 PUSH1 0x20 DUP3 ADD SWAP1 POP DUP2 DUP2 SUB PUSH0 DUP4 ADD MSTORE PUSH2 0x20ED DUP2 PUSH2 0x20B4 JUMP JUMPDEST SWAP1 POP SWAP2 SWAP1 POP JUMP JUMPDEST PUSH32 0x5472616E73666572206661696C65640000000000000000000000000000000000 PUSH0 DUP3 ADD MSTORE POP JUMP JUMPDEST PUSH0 PUSH2 0x2128 PUSH1 0xF DUP4 PUSH2 0x18F0 JUMP JUMPDEST SWAP2 POP PUSH2 0x2133 DUP3 PUSH2 0x20F4 JUMP JUMPDEST PUSH1 0x20 DUP3 ADD SWAP1 POP SWAP2 SWAP1 POP JUMP JUMPDEST PUSH0 PUSH1 0x20 DUP3 ADD SWAP1 POP DUP2 DUP2 SUB PUSH0 DUP4 ADD MSTORE PUSH2 0x2155 DUP2 PUSH2 0x211C JUMP JUMPDEST SWAP1 POP SWAP2 SWAP1 POP JUMP JUMPDEST PUSH32 0x496E636F7272656374204554482073656E740000000000000000000000000000 PUSH0 DUP3 ADD MSTORE POP JUMP JUMPDEST PUSH0 PUSH2 0x2190 PUSH1 0x12 DUP4 PUSH2 0x18F0 JUMP JUMPDEST SWAP2 POP PUSH2 0x219B DUP3 PUSH2 0x215C JUMP JUMPDEST PUSH1 0x20 DUP3 ADD SWAP1 POP SWAP2 SWAP1 POP JUMP JUMPDEST PUSH0 PUSH1 0x20 DUP3 ADD SWAP1 POP DUP2 DUP2 SUB PUSH0 DUP4 ADD MSTORE PUSH2 0x21BD DUP2 PUSH2 0x2184 JUMP JUMPDEST SWAP1 POP SWAP2 SWAP1 POP JUMP JUMPDEST PUSH32 0x4E6F20626F78657320746F206F70656E00000000000000000000000000000000 PUSH0 DUP3 ADD MSTORE POP JUMP JUMPDEST PUSH0 PUSH2 0x21F8 PUSH1 0x10 DUP4 PUSH2 0x18F0 JUMP JUMPDEST SWAP2 POP PUSH2 0x2203 DUP3 PUSH2 0x21C4 JUMP JUMPDEST PUSH1 0x20 DUP3 ADD SWAP1 POP SWAP2 SWAP1 POP JUMP JUMPDEST PUSH0 PUSH1 0x20 DUP3 ADD SWAP1 POP DUP2 DUP2 SUB PUSH0 DUP4 ADD MSTORE PUSH2 0x2225 DUP2 PUSH2 0x21EC JUMP JUMPDEST SWAP1 POP SWAP2 SWAP1 POP JUMP JUMPDEST PUSH0 DUP2 SWAP1 POP SWAP2 SWAP1 POP JUMP JUMPDEST PUSH2 0x2246 PUSH2 0x2241 DUP3 PUSH2 0x1719 JUMP JUMPDEST PUSH2 0x222C JUMP JUMPDEST DUP3 MSTORE POP POP JUMP JUMPDEST PUSH0 DUP2 PUSH1 0x60 SHL SWAP1 POP SWAP2 SWAP1 POP JUMP JUMPDEST PUSH0 PUSH2 0x2262 DUP3 PUSH2 0x224C JUMP JUMPDEST SWAP1 POP SWAP2 SWAP1 POP JUMP JUMPDEST PUSH0 PUSH2 0x2273 DUP3 PUSH2 0x2258 JUMP JUMPDEST SWAP1 POP SWAP2 SWAP1 POP JUMP JUMPDEST PUSH2 0x228B PUSH2 0x2286 DUP3 PUSH2 0x184D JUMP JUMPDEST PUSH2 0x2269 JUMP JUMPDEST DUP3 MSTORE POP POP JUMP JUMPDEST PUSH0 PUSH2 0x229C DUP3 DUP6 PUSH2 0x2235 JUMP JUMPDEST PUSH1 0x20 DUP3 ADD SWAP2 POP PUSH2 0x22AC DUP3 DUP5 PUSH2 0x227A JUMP JUMPDEST PUSH1 0x14 DUP3 ADD SWAP2 POP DUP2 SWAP1 POP SWAP4 SWAP3 POP POP POP JUMP JUMPDEST PUSH32 0x4E487B7100000000000000000000000000000000000000000000000000000000 PUSH0 MSTORE PUSH1 0x12 PUSH1 0x4 MSTORE PUSH1 0x24 PUSH0 REVERT JUMPDEST PUSH0 PUSH2 0x22F3 DUP3 PUSH2 0x1719 JUMP JUMPDEST SWAP2 POP PUSH2 0x22FE DUP4 PUSH2 0x1719 JUMP JUMPDEST SWAP3 POP DUP3 PUSH2 0x230E JUMPI PUSH2 0x230D PUSH2 0x22BC JUMP JUMPDEST JUMPDEST DUP3 DUP3 MOD SWAP1 POP SWAP3 SWAP2 POP POP JUMP JUMPDEST PUSH2 0x2322 DUP3 PUSH2 0x16A9 JUMP JUMPDEST PUSH8 0xFFFFFFFFFFFFFFFF DUP2 GT ISZERO PUSH2 0x233B JUMPI PUSH2 0x233A PUSH2 0x1A14 JUMP JUMPDEST JUMPDEST PUSH2 0x2345 DUP3 SLOAD PUSH2 0x1BBF JUMP JUMPDEST PUSH2 0x2350 DUP3 DUP3 DUP6 PUSH2 0x1F1E JUMP JUMPDEST PUSH0 PUSH1 0x20 SWAP1 POP PUSH1 0x1F DUP4 GT PUSH1 0x1 DUP2 EQ PUSH2 0x2381 JUMPI PUSH0 DUP5 ISZERO PUSH2 0x236F JUMPI DUP3 DUP8 ADD MLOAD SWAP1 POP JUMPDEST PUSH2 0x2379 DUP6 DUP3 PUSH2 0x1F8C JUMP JUMPDEST DUP7 SSTORE POP PUSH2 0x23E0 JUMP JUMPDEST PUSH1 0x1F NOT DUP5 AND PUSH2 0x238F DUP7 PUSH2 0x1E0A JUMP JUMPDEST PUSH0 JUMPDEST DUP3 DUP2 LT ISZERO PUSH2 0x23B6 JUMPI DUP5 DUP10 ADD MLOAD DUP3 SSTORE PUSH1 0x1 DUP3 ADD SWAP2 POP PUSH1 0x20 DUP6 ADD SWAP5 POP PUSH1 0x20 DUP2 ADD SWAP1 POP PUSH2 0x2391 JUMP JUMPDEST DUP7 DUP4 LT ISZERO PUSH2 0x23D3 JUMPI DUP5 DUP10 ADD MLOAD PUSH2 0x23CF PUSH1 0x1F DUP10 AND DUP3 PUSH2 0x1F70 JUMP JUMPDEST DUP4 SSTORE POP JUMPDEST PUSH1 0x1 PUSH1 0x2 DUP9 MUL ADD DUP9 SSTORE POP POP POP JUMPDEST POP POP POP POP POP POP JUMP JUMPDEST PUSH0 PUSH2 0x23F2 DUP3 PUSH2 0x1719 JUMP JUMPDEST SWAP2 POP PUSH2 0x23FD DUP4 PUSH2 0x1719 JUMP JUMPDEST SWAP3 POP DUP3 DUP3 SUB SWAP1 POP DUP2 DUP2 GT ISZERO PUSH2 0x2415 JUMPI PUSH2 0x2414 PUSH2 0x1C1C JUMP JUMPDEST JUMPDEST SWAP3 SWAP2 POP POP JUMP JUMPDEST PUSH32 0x4F6E6C79206F776E65722063616E206164642072657761726473000000000000 PUSH0 DUP3 ADD MSTORE POP JUMP JUMPDEST PUSH0 PUSH2 0x244F PUSH1 0x1A DUP4 PUSH2 0x18F0 JUMP JUMPDEST SWAP2 POP PUSH2 0x245A DUP3 PUSH2 0x241B JUMP JUMPDEST PUSH1 0x20 DUP3 ADD SWAP1 POP SWAP2 SWAP1 POP JUMP JUMPDEST PUSH0 PUSH1 0x20 DUP3 ADD SWAP1 POP DUP2 DUP2 SUB PUSH0 DUP4 ADD MSTORE PUSH2 0x247C DUP2 PUSH2 0x2443 JUMP JUMPDEST SWAP1 POP SWAP2 SWAP1 POP JUMP JUMPDEST PUSH32 0x4E6F2072657761726420746F20636C61696D0000000000000000000000000000 PUSH0 DUP3 ADD MSTORE POP JUMP JUMPDEST PUSH0 PUSH2 0x24B7 PUSH1 0x12 DUP4 PUSH2 0x18F0 JUMP JUMPDEST SWAP2 POP PUSH2 0x24C2 DUP3 PUSH2 0x2483 JUMP JUMPDEST PUSH1 0x20 DUP3 ADD SWAP1 POP SWAP2 SWAP1 POP JUMP JUMPDEST PUSH0 PUSH1 0x20 DUP3 ADD SWAP1 POP DUP2 DUP2 SUB PUSH0 DUP4 ADD MSTORE PUSH2 0x24E4 DUP2 PUSH2 0x24AB JUMP JUMPDEST SWAP1 POP SWAP2 SWAP1 POP JUMP JUMPDEST PUSH32 0x4F6E6C79206F776E65722063616E207365742070726963650000000000000000 PUSH0 DUP3 ADD MSTORE POP JUMP JUMPDEST PUSH0 PUSH2 0x251F PUSH1 0x18 DUP4 PUSH2 0x18F0 JUMP JUMPDEST SWAP2 POP PUSH2 0x252A DUP3 PUSH2 0x24EB JUMP JUMPDEST PUSH1 0x20 DUP3 ADD SWAP1 POP SWAP2 SWAP1 POP JUMP JUMPDEST PUSH0 PUSH1 0x20 DUP3 ADD SWAP1 POP DUP2 DUP2 SUB PUSH0 DUP4 ADD MSTORE PUSH2 0x254C DUP2 PUSH2 0x2513 JUMP JUMPDEST SWAP1 POP SWAP2 SWAP1 POP JUMP INVALID LOG2 PUSH5 0x6970667358 0x22 SLT KECCAK256 0xA5 0xCC LOG1 RETURNDATACOPY 0xD5 0xE8 0xEE STOP 0xFC 0xBF 0x25 PUSH31 0x6B1216AEF15BCF84B99A745220FB0B70FF5052D364736F6C634300081A0033 "
				},
				"gasEstimates": {
					"creation": {
						"codeDepositCost": "1921800",
						"executionCost": "infinite",
						"totalCost": "infinite"
					},
					"external": {
						"SEEDVALUE()": "348",
						"addReward(string,uint256)": "infinite",
						"boxPrice()": "2514",
						"boxesOwned(address)": "2891",
						"buyBox()": "infinite",
						"changeOwner(address)": "24737",
						"claimAllRewards()": "infinite",
						"claimSingleReward(uint256)": "infinite",
						"getRewardPool()": "infinite",
						"getRewards()": "infinite",
						"openBox()": "infinite",
						"owner()": "2572",
						"rewardPool(uint256)": "infinite",
						"rewardsOwned(address,uint256)": "infinite",
						"setBoxPrice(uint256)": "24791",
						"transferReward(address,uint256)": "infinite",
						"withdrawFunds()": "infinite"
					}
				},
				"methodIdentifiers": {
					"SEEDVALUE()": "7061eb13",
					"addReward(string,uint256)": "cdd35d4c",
					"boxPrice()": "a6482858",
					"boxesOwned(address)": "521de05c",
					"buyBox()": "479507bb",
					"changeOwner(address)": "a6f9dae1",
					"claimAllRewards()": "0b83a727",
					"claimSingleReward(uint256)": "f26d9f2f",
					"getRewardPool()": "1b8b13a7",
					"getRewards()": "0572b0cc",
					"openBox()": "c2e952c7",
					"owner()": "8da5cb5b",
					"rewardPool(uint256)": "7706c4ba",
					"rewardsOwned(address,uint256)": "11cf62f8",
					"setBoxPrice(uint256)": "f7dbea3e",
					"transferReward(address,uint256)": "15490ebb",
					"withdrawFunds()": "24600fc3"
				}
			},
			"storageLayout": {
				"storage": [
					{
						"astId": 3,
						"contract": "src/MysteryBox.sol:MysteryBox",
						"label": "owner",
						"offset": 0,
						"slot": "0",
						"type": "t_address"
					},
					{
						"astId": 5,
						"contract": "src/MysteryBox.sol:MysteryBox",
						"label": "boxPrice",
						"offset": 0,
						"slot": "1",
						"type": "t_uint256"
					},
					{
						"astId": 9,
						"contract": "src/MysteryBox.sol:MysteryBox",
						"label": "boxesOwned",
						"offset": 0,
						"slot": "2",
						"type": "t_mapping(t_address,t_uint256)"
					},
					{
						"astId": 15,
						"contract": "src/MysteryBox.sol:MysteryBox",
						"label": "rewardsOwned",
						"offset": 0,
						"slot": "3",
						"type": "t_mapping(t_address,t_array(t_struct(Reward)27_storage)dyn_storage)"
					},
					{
						"astId": 19,
						"contract": "src/MysteryBox.sol:MysteryBox",
						"label": "rewardPool",
						"offset": 0,
						"slot": "4",
						"type": "t_array(t_struct(Reward)27_storage)dyn_storage"
					}
				],
				"types": {
					"t_address": {
						"encoding": "inplace",
						"label": "address",
						"numberOfBytes": "20"
					},
					"t_array(t_struct(Reward)27_storage)dyn_storage": {
						"base": "t_struct(Reward)27_storage",
						"encoding": "dynamic_array",
						"label": "struct MysteryBox.Reward[]",
						"numberOfBytes": "32"
					},
					"t_mapping(t_address,t_array(t_struct(Reward)27_storage)dyn_storage)": {
						"encoding": "mapping",
						"key": "t_address",
						"label": "mapping(address => struct MysteryBox.Reward[])",
						"numberOfBytes": "32",
						"value": "t_array(t_struct(Reward)27_storage)dyn_storage"
					},
					"t_mapping(t_address,t_uint256)": {
						"encoding": "mapping",
						"key": "t_address",
						"label": "mapping(address => uint256)",
						"numberOfBytes": "32",
						"value": "t_uint256"
					},
					"t_string_storage": {
						"encoding": "bytes",
						"label": "string",
						"numberOfBytes": "32"
					},
					"t_struct(Reward)27_storage": {
						"encoding": "inplace",
						"label": "struct MysteryBox.Reward",
						"members": [
							{
								"astId": 24,
								"contract": "src/MysteryBox.sol:MysteryBox",
								"label": "name",
								"offset": 0,
								"slot": "0",
								"type": "t_string_storage"
							},
							{
								"astId": 26,
								"contract": "src/MysteryBox.sol:MysteryBox",
								"label": "value",
								"offset": 0,
								"slot": "1",
								"type": "t_uint256"
							}
						],
						"numberOfBytes": "64"
					},
					"t_uint256": {
						"encoding": "inplace",
						"label": "uint256",
						"numberOfBytes": "32"
					}
				}
			},
			"userdoc": {
				"kind": "user",
				"methods": {},
				"version": 1
			}
		}
	}
}